{
  "address": "0xCA831DbF7F958CF34A921Ba125D45cdFA8F56109",
  "abi": [
    {
      "inputs": [],
      "stateMutability": "nonpayable",
      "type": "constructor"
    },
    {
      "inputs": [],
      "name": "AccessControlBadConfirmation",
      "type": "error"
    },
    {
      "inputs": [
        {
          "internalType": "address",
          "name": "account",
          "type": "address"
        },
        {
          "internalType": "bytes32",
          "name": "neededRole",
          "type": "bytes32"
        }
      ],
      "name": "AccessControlUnauthorizedAccount",
      "type": "error"
    },
    {
      "inputs": [
        {
          "internalType": "address",
          "name": "target",
          "type": "address"
        }
      ],
      "name": "AddressEmptyCode",
      "type": "error"
    },
    {
      "inputs": [
        {
          "internalType": "address",
          "name": "account",
          "type": "address"
        }
      ],
      "name": "AddressInsufficientBalance",
      "type": "error"
    },
    {
      "inputs": [],
      "name": "EnforcedPause",
      "type": "error"
    },
    {
      "inputs": [],
      "name": "ExpectedPause",
      "type": "error"
    },
    {
      "inputs": [],
      "name": "FailedInnerCall",
      "type": "error"
    },
    {
      "inputs": [],
      "name": "InvalidInitialization",
      "type": "error"
    },
    {
      "inputs": [],
      "name": "NotInitializing",
      "type": "error"
    },
    {
      "inputs": [],
      "name": "ReentrancyGuardReentrantCall",
      "type": "error"
    },
    {
      "inputs": [
        {
          "internalType": "address",
          "name": "token",
          "type": "address"
        }
      ],
      "name": "SafeERC20FailedOperation",
      "type": "error"
    },
    {
      "inputs": [],
      "name": "UNICARD_REGISTRY_CARD_ALREADY_DEACTIVATED",
      "type": "error"
    },
    {
      "inputs": [],
      "name": "UNICARD_REGISTRY_CARD_ALREADY_OPENED",
      "type": "error"
    },
    {
      "inputs": [],
      "name": "UNICARD_REGISTRY_CARD_NOT_OPENED",
      "type": "error"
    },
    {
      "inputs": [],
      "name": "UNICARD_REGISTRY_PAYMENT_TOKEN_NOT_ALLOWED",
      "type": "error"
    },
    {
      "anonymous": false,
      "inputs": [
        {
          "indexed": true,
          "internalType": "address",
          "name": "holder",
          "type": "address"
        },
        {
          "indexed": true,
          "internalType": "uint256",
          "name": "nonce",
          "type": "uint256"
        }
      ],
      "name": "CardCloseRequest",
      "type": "event"
    },
    {
      "anonymous": false,
      "inputs": [
        {
          "indexed": true,
          "internalType": "address",
          "name": "holder",
          "type": "address"
        },
        {
          "indexed": true,
          "internalType": "address",
          "name": "paymentToken",
          "type": "address"
        },
        {
          "indexed": true,
          "internalType": "uint256",
          "name": "nonce",
          "type": "uint256"
        },
        {
          "indexed": false,
          "internalType": "uint256",
          "name": "amount",
          "type": "uint256"
        },
        {
          "indexed": false,
          "internalType": "string",
          "name": "productCode",
          "type": "string"
        },
        {
          "indexed": false,
          "internalType": "string",
          "name": "inviteCode",
          "type": "string"
        },
        {
          "indexed": false,
          "internalType": "string",
          "name": "referralCode",
          "type": "string"
        }
      ],
      "name": "CardOpenRequest",
      "type": "event"
    },
    {
      "anonymous": false,
      "inputs": [
        {
          "indexed": false,
          "internalType": "uint64",
          "name": "version",
          "type": "uint64"
        }
      ],
      "name": "Initialized",
      "type": "event"
    },
    {
      "anonymous": false,
      "inputs": [
        {
          "indexed": false,
          "internalType": "address",
          "name": "account",
          "type": "address"
        }
      ],
      "name": "Paused",
      "type": "event"
    },
    {
      "anonymous": false,
      "inputs": [
        {
          "indexed": true,
          "internalType": "bytes32",
          "name": "role",
          "type": "bytes32"
        },
        {
          "indexed": true,
          "internalType": "bytes32",
          "name": "previousAdminRole",
          "type": "bytes32"
        },
        {
          "indexed": true,
          "internalType": "bytes32",
          "name": "newAdminRole",
          "type": "bytes32"
        }
      ],
      "name": "RoleAdminChanged",
      "type": "event"
    },
    {
      "anonymous": false,
      "inputs": [
        {
          "indexed": true,
          "internalType": "bytes32",
          "name": "role",
          "type": "bytes32"
        },
        {
          "indexed": true,
          "internalType": "address",
          "name": "account",
          "type": "address"
        },
        {
          "indexed": true,
          "internalType": "address",
          "name": "sender",
          "type": "address"
        }
      ],
      "name": "RoleGranted",
      "type": "event"
    },
    {
      "anonymous": false,
      "inputs": [
        {
          "indexed": true,
          "internalType": "bytes32",
          "name": "role",
          "type": "bytes32"
        },
        {
          "indexed": true,
          "internalType": "address",
          "name": "account",
          "type": "address"
        },
        {
          "indexed": true,
          "internalType": "address",
          "name": "sender",
          "type": "address"
        }
      ],
      "name": "RoleRevoked",
      "type": "event"
    },
    {
      "anonymous": false,
      "inputs": [
        {
          "indexed": false,
          "internalType": "address",
          "name": "account",
          "type": "address"
        }
      ],
      "name": "Unpaused",
      "type": "event"
    },
    {
      "inputs": [],
      "name": "ALLOWED_TOKEN_PAYMENT",
      "outputs": [
        {
          "internalType": "bytes32",
          "name": "",
          "type": "bytes32"
        }
      ],
      "stateMutability": "view",
      "type": "function"
    },
    {
      "inputs": [],
      "name": "CONTROLLER_ROLE",
      "outputs": [
        {
          "internalType": "bytes32",
          "name": "",
          "type": "bytes32"
        }
      ],
      "stateMutability": "view",
      "type": "function"
    },
    {
      "inputs": [],
      "name": "DEFAULT_ADMIN_ROLE",
      "outputs": [
        {
          "internalType": "bytes32",
          "name": "",
          "type": "bytes32"
        }
      ],
      "stateMutability": "view",
      "type": "function"
    },
    {
      "inputs": [],
      "name": "NATIVE_TOKEN",
      "outputs": [
        {
          "internalType": "address",
          "name": "",
          "type": "address"
        }
      ],
      "stateMutability": "view",
      "type": "function"
    },
    {
      "inputs": [
        {
          "internalType": "bytes32",
          "name": "",
          "type": "bytes32"
        }
      ],
      "name": "cards",
      "outputs": [
        {
          "internalType": "address",
          "name": "holder",
          "type": "address"
        },
        {
          "internalType": "address",
          "name": "paymentToken",
          "type": "address"
        },
        {
          "internalType": "uint256",
          "name": "nonce",
          "type": "uint256"
        },
        {
          "internalType": "uint256",
          "name": "openCardAmount",
          "type": "uint256"
        },
        {
          "internalType": "string",
          "name": "productCode",
          "type": "string"
        },
        {
          "internalType": "string",
          "name": "inviteCode",
          "type": "string"
        },
        {
          "internalType": "string",
          "name": "referralCode",
          "type": "string"
        },
        {
          "internalType": "enum Enums.CardStatus",
          "name": "status",
          "type": "uint8"
        }
      ],
      "stateMutability": "view",
      "type": "function"
    },
    {
      "inputs": [
        {
          "internalType": "address",
          "name": "holder",
          "type": "address"
        },
        {
          "internalType": "uint256",
          "name": "nonce",
          "type": "uint256"
        }
      ],
      "name": "closeCardRequest",
      "outputs": [],
      "stateMutability": "nonpayable",
      "type": "function"
    },
    {
      "inputs": [
        {
          "internalType": "bytes32",
          "name": "role",
          "type": "bytes32"
        }
      ],
      "name": "getRoleAdmin",
      "outputs": [
        {
          "internalType": "bytes32",
          "name": "",
          "type": "bytes32"
        }
      ],
      "stateMutability": "view",
      "type": "function"
    },
    {
      "inputs": [
        {
          "internalType": "bytes32",
          "name": "role",
          "type": "bytes32"
        },
        {
          "internalType": "address",
          "name": "account",
          "type": "address"
        }
      ],
      "name": "grantRole",
      "outputs": [],
      "stateMutability": "nonpayable",
      "type": "function"
    },
    {
      "inputs": [
        {
          "internalType": "bytes32",
          "name": "role",
          "type": "bytes32"
        },
        {
          "internalType": "address",
          "name": "account",
          "type": "address"
        }
      ],
      "name": "hasRole",
      "outputs": [
        {
          "internalType": "bool",
          "name": "",
          "type": "bool"
        }
      ],
      "stateMutability": "view",
      "type": "function"
    },
    {
      "inputs": [
        {
          "internalType": "address",
          "name": "anAdmin",
          "type": "address"
        }
      ],
      "name": "initialize",
      "outputs": [],
      "stateMutability": "nonpayable",
      "type": "function"
    },
    {
      "inputs": [
        {
          "internalType": "address",
          "name": "",
          "type": "address"
        }
      ],
      "name": "nonces",
      "outputs": [
        {
          "internalType": "uint256",
          "name": "",
          "type": "uint256"
        }
      ],
      "stateMutability": "view",
      "type": "function"
    },
    {
      "inputs": [
        {
          "internalType": "address",
          "name": "holder",
          "type": "address"
        },
        {
          "internalType": "address",
          "name": "paymentToken",
          "type": "address"
        },
        {
          "internalType": "uint256",
          "name": "amount",
          "type": "uint256"
        },
        {
          "internalType": "string",
          "name": "productCode",
          "type": "string"
        },
        {
          "internalType": "string",
          "name": "inviteCode",
          "type": "string"
        },
        {
          "internalType": "string",
          "name": "referralCode",
          "type": "string"
        }
      ],
      "name": "openCardRequest",
      "outputs": [],
      "stateMutability": "payable",
      "type": "function"
    },
    {
      "inputs": [],
      "name": "paused",
      "outputs": [
        {
          "internalType": "bool",
          "name": "",
          "type": "bool"
        }
      ],
      "stateMutability": "view",
      "type": "function"
    },
    {
      "inputs": [
        {
          "internalType": "bytes32",
          "name": "role",
          "type": "bytes32"
        },
        {
          "internalType": "address",
          "name": "callerConfirmation",
          "type": "address"
        }
      ],
      "name": "renounceRole",
      "outputs": [],
      "stateMutability": "nonpayable",
      "type": "function"
    },
    {
      "inputs": [
        {
          "internalType": "bytes32",
          "name": "role",
          "type": "bytes32"
        },
        {
          "internalType": "address",
          "name": "account",
          "type": "address"
        }
      ],
      "name": "revokeRole",
      "outputs": [],
      "stateMutability": "nonpayable",
      "type": "function"
    },
    {
      "inputs": [
        {
          "internalType": "bytes4",
          "name": "interfaceId",
          "type": "bytes4"
        }
      ],
      "name": "supportsInterface",
      "outputs": [
        {
          "internalType": "bool",
          "name": "",
          "type": "bool"
        }
      ],
      "stateMutability": "view",
      "type": "function"
    },
    {
      "inputs": [
        {
          "internalType": "bool",
          "name": "enablePauseOrNot",
          "type": "bool"
        }
      ],
      "name": "togglePause",
      "outputs": [],
      "stateMutability": "nonpayable",
      "type": "function"
    },
    {
      "inputs": [
        {
          "internalType": "address",
          "name": "paymentToken",
          "type": "address"
        },
        {
          "internalType": "uint256",
          "name": "amount",
          "type": "uint256"
        }
      ],
      "name": "withdrawRegistryFunds",
      "outputs": [],
      "stateMutability": "nonpayable",
      "type": "function"
    },
    {
      "stateMutability": "payable",
      "type": "receive"
    }
  ],
  "transactionHash": "0x6c39f838d4f970f06f104bca9471cd8b105214990210440e497a52b7e2e8d136",
  "args": [],
  "numDeployments": 1,
  "solcInputHash": "eb6dfbc37ec320df7c5432a3ea80a82e",
  "bytecode": "0x608060405234801561001057600080fd5b5061001961001e565b6100d0565b7ff0c57e16840df040f15088dc2f81fe391c3923bec73e23a9662efc9c229c6a00805468010000000000000000900460ff161561006e5760405163f92ee8a960e01b815260040160405180910390fd5b80546001600160401b03908116146100cd5780546001600160401b0319166001600160401b0390811782556040519081527fc7f505b2f371ae2175ee4913f4499e1f2633a7b5936321eed1cdaeb6115181d29060200160405180910390a15b50565b611b28806100df6000396000f3fe60806040526004361061010d5760003560e01c8063707cd60c116100955780639ae97dcb116100645780639ae97dcb1461039a578063a217fddf146103ce578063a4ded79f146103e3578063c4d66de8146103f6578063d547741f1461041657600080fd5b8063707cd60c146102c65780637ecebe00146102fa57806390e2a5891461032757806391d148541461034757600080fd5b806331f7d964116100dc57806331f7d964146101ef57806336568abe1461022f57806348f5d6361461024f57806357d159c61461026f5780635c975abb1461028f57600080fd5b806301ffc9a714610119578063092c5b3b1461014e578063248a9ca3146101905780632f2ff15d146101cd57600080fd5b3661011457005b600080fd5b34801561012557600080fd5b506101396101343660046115cc565b610436565b60405190151581526020015b60405180910390f35b34801561015a57600080fd5b506101827f7b765e0e932d348852a6f810bfa1ab891e259123f02db8cdcde614c57022335781565b604051908152602001610145565b34801561019c57600080fd5b506101826101ab3660046115f6565b6000908152600080516020611afc833981519152602052604090206001015490565b3480156101d957600080fd5b506101ed6101e836600461162b565b61046d565b005b3480156101fb57600080fd5b5061021773eeeeeeeeeeeeeeeeeeeeeeeeeeeeeeeeeeeeeeee81565b6040516001600160a01b039091168152602001610145565b34801561023b57600080fd5b506101ed61024a36600461162b565b6104a5565b34801561025b57600080fd5b506101ed61026a366004611657565b6104dd565b34801561027b57600080fd5b506101ed61028a36600461168f565b6106d4565b34801561029b57600080fd5b507fcd5ed15c6e187e77e9aee88184c21f4f2182ab5827cb3b7e07fbedcd63f033005460ff16610139565b3480156102d257600080fd5b506102e66102e13660046115f6565b6106f9565b604051610145989796959493929190611712565b34801561030657600080fd5b506101826103153660046117a7565b60006020819052908152604090205481565b34801561033357600080fd5b506101ed610342366004611657565b6108e6565b34801561035357600080fd5b5061013961036236600461162b565b6000918252600080516020611afc833981519152602090815260408084206001600160a01b0393909316845291905290205460ff1690565b3480156103a657600080fd5b506101827fb0556657657e6f2a9ab555181b3ae26a9a17fe4de2644d7a728f0eb3957063d281565b3480156103da57600080fd5b50610182600081565b6101ed6103f1366004611865565b610996565b34801561040257600080fd5b506101ed6104113660046117a7565b610d05565b34801561042257600080fd5b506101ed61043136600461162b565b610e99565b60006001600160e01b03198216637965db0b60e01b148061046757506301ffc9a760e01b6001600160e01b03198316145b92915050565b6000828152600080516020611afc833981519152602052604090206001015461049581610ecb565b61049f8383610ed8565b50505050565b6001600160a01b03811633146104ce5760405163334bd91960e11b815260040160405180910390fd5b6104d88282610f95565b505050565b7f7b765e0e932d348852a6f810bfa1ab891e259123f02db8cdcde614c57022335761050781610ecb565b6040516bffffffffffffffffffffffff19606085901b1660208201526034810183905260009060540160408051601f1981840301815291905280516020909101209050600260008281526001602052604090206007015460ff166002811115610572576105726116fc565b03610590576040516371d51e3960e11b815260040160405180910390fd5b60008181526001602052604081206007015460ff1660028111156105b6576105b66116fc565b036105d457604051631eadd0b160e11b815260040160405180910390fd5b600081815260016020819052604090912060078101805460ff19166002179055015473eeeeeeeeeeeeeeeeeeeeeeeeeeeeeeeeeeeeeeee6001600160a01b0390911614610650576000818152600160208190526040909120600381015491015461064b916001600160a01b03909116908690611029565b610698565b6000818152600160205260408082206003015490516001600160a01b0387169282156108fc02929190818181858888f19350505050158015610696573d6000803e3d6000fd5b505b60405183906001600160a01b038616907fcf1b1d3e5121f04e109c842a0298ca6f0abca03f4200ab92081f1347317325d390600090a350505050565b60006106df81610ecb565b81156106f1576106ed61109d565b5050565b6106ed611112565b6001602081905260009182526040909120805491810154600282015460038301546004840180546001600160a01b039687169690941694929391929161073e90611917565b80601f016020809104026020016040519081016040528092919081815260200182805461076a90611917565b80156107b75780601f1061078c576101008083540402835291602001916107b7565b820191906000526020600020905b81548152906001019060200180831161079a57829003601f168201915b5050505050908060050180546107cc90611917565b80601f01602080910402602001604051908101604052809291908181526020018280546107f890611917565b80156108455780601f1061081a57610100808354040283529160200191610845565b820191906000526020600020905b81548152906001019060200180831161082857829003601f168201915b50505050509080600601805461085a90611917565b80601f016020809104026020016040519081016040528092919081815260200182805461088690611917565b80156108d35780601f106108a8576101008083540402835291602001916108d3565b820191906000526020600020905b8154815290600101906020018083116108b657829003601f168201915b5050506007909301549192505060ff1688565b60006108f181610ecb565b6108f961116a565b6109016111b4565b6001600160a01b03831673eeeeeeeeeeeeeeeeeeeeeeeeeeeeeeeeeeeeeeee1461093e576109396001600160a01b0384163384611029565b61096d565b604051339083156108fc029084906000818181858888f1935050505015801561096b573d6000803e3d6000fd5b505b6104d860017f9b779b17422d0df92223018b32b4d1fa46e071723d6817e2486d003becc55f0055565b61099e61116a565b6109a66111b4565b6001600160a01b03851660009081527f84503713b7228bce4269205fe5b780fb403c046127aeaddf5ac3b4a34c0dd57a602052604090205460ff166109fe576040516375f65cff60e01b815260040160405180910390fd5b8315610ab9576001600160a01b03851673eeeeeeeeeeeeeeeeeeeeeeeeeeeeeeeeeeeeeeee14610a4257610a3d6001600160a01b03861687308761121f565b610ab9565b604051309085156108fc029086906000818181858888f19350505050158015610a6f573d6000803e3d6000fd5b5083341115610ab9576001600160a01b0386166108fc610a8f8634611951565b6040518115909202916000818181858888f19350505050158015610ab7573d6000803e3d6000fd5b505b6001600160a01b03861660009081526020818152604080832054815160608b901b6bffffffffffffffffffffffff1916818501526034808201839052835180830390910181526054909101835280519084012080855260019093529083206007015490929060ff166002811115610b3257610b326116fc565b03610c6757604051806101000160405280896001600160a01b03168152602001886001600160a01b0316815260200183815260200187815260200186815260200185815260200184815260200160016002811115610b9257610b926116fc565b90526000828152600160208181526040928390208451815473ffffffffffffffffffffffffffffffffffffffff199081166001600160a01b0392831617835592860151938201805490931693169290921790559082015160028201556060820151600382015560808201516004820190610c0c90826119b8565b5060a08201516005820190610c2190826119b8565b5060c08201516006820190610c3690826119b8565b5060e082015160078201805460ff19166001836002811115610c5a57610c5a6116fc565b0217905550905050610c80565b604051630ac301c160e41b815260040160405180910390fd5b81876001600160a01b0316896001600160a01b03167f1ee1fa132d80d633a623a19f9eeaadced54ebcecae215c88b49a9d9c9d9636a689898989604051610cca9493929190611a78565b60405180910390a45050610cfd60017f9b779b17422d0df92223018b32b4d1fa46e071723d6817e2486d003becc55f0055565b505050505050565b7ff0c57e16840df040f15088dc2f81fe391c3923bec73e23a9662efc9c229c6a00805468010000000000000000810460ff16159067ffffffffffffffff16600081158015610d505750825b905060008267ffffffffffffffff166001148015610d6d5750303b155b905081158015610d7b575080155b15610d995760405163f92ee8a960e01b815260040160405180910390fd5b845467ffffffffffffffff191660011785558315610dcd57845468ff00000000000000001916680100000000000000001785555b610dd5611258565b610ddd611260565b610de5611270565b610df0600087610ed8565b50610e1c7f7b765e0e932d348852a6f810bfa1ab891e259123f02db8cdcde614c5702233576000611280565b610e477fb0556657657e6f2a9ab555181b3ae26a9a17fe4de2644d7a728f0eb3957063d26000611280565b8315610cfd57845468ff000000000000000019168555604051600181527fc7f505b2f371ae2175ee4913f4499e1f2633a7b5936321eed1cdaeb6115181d29060200160405180910390a1505050505050565b6000828152600080516020611afc8339815191526020526040902060010154610ec181610ecb565b61049f8383610f95565b610ed58133611300565b50565b6000828152600080516020611afc833981519152602081815260408084206001600160a01b038616855290915282205460ff16610f8b576000848152602082815260408083206001600160a01b03871684529091529020805460ff19166001179055610f413390565b6001600160a01b0316836001600160a01b0316857f2f8788117e7eff1d82e926ec794901d17c78024a50270940304540a733656f0d60405160405180910390a46001915050610467565b6000915050610467565b6000828152600080516020611afc833981519152602081815260408084206001600160a01b038616855290915282205460ff1615610f8b576000848152602082815260408083206001600160a01b0387168085529252808320805460ff1916905551339287917ff6391f5c32d9c69d2a47ea670b442974b53935d1edc7fd64eb21e047a839171b9190a46001915050610467565b6040516001600160a01b038381166024830152604482018390526104d891859182169063a9059cbb906064015b604051602081830303815290604052915060e01b6020820180517bffffffffffffffffffffffffffffffffffffffffffffffffffffffff8381831617835250505050611367565b6110a56111b4565b7fcd5ed15c6e187e77e9aee88184c21f4f2182ab5827cb3b7e07fbedcd63f03300805460ff191660011781557f62e78cea01bee320cd4e420270b5ea74000d11b0c9f74754ebdbfc544b05a258335b6040516001600160a01b03909116815260200160405180910390a150565b61111a6113ca565b7fcd5ed15c6e187e77e9aee88184c21f4f2182ab5827cb3b7e07fbedcd63f03300805460ff191681557f5db9ee0a495bf2e6ff9c91a7834c1ba4fdd244a5e8aa4e537bd38aeae4b073aa336110f4565b7f9b779b17422d0df92223018b32b4d1fa46e071723d6817e2486d003becc55f008054600119016111ae57604051633ee5aeb560e01b815260040160405180910390fd5b60029055565b7fcd5ed15c6e187e77e9aee88184c21f4f2182ab5827cb3b7e07fbedcd63f033005460ff16156111f75760405163d93c066560e01b815260040160405180910390fd5b565b60017f9b779b17422d0df92223018b32b4d1fa46e071723d6817e2486d003becc55f0055565b6040516001600160a01b03848116602483015283811660448301526064820183905261049f9186918216906323b872dd90608401611056565b6111f761140c565b61126861140c565b6111f761145a565b61127861140c565b6111f7611462565b600080516020611afc83398151915260006112b7846000908152600080516020611afc833981519152602052604090206001015490565b600085815260208490526040808220600101869055519192508491839187917fbd79b86ffe0ab8e8776151514217cd7cacd52c909f66475c3af44e129f0b00ff9190a450505050565b6000828152600080516020611afc833981519152602090815260408083206001600160a01b038516845290915290205460ff166106ed5760405163e2517d3f60e01b81526001600160a01b0382166004820152602481018390526044015b60405180910390fd5b600061137c6001600160a01b03841683611495565b905080516000141580156113a157508080602001905181019061139f9190611ac2565b155b156104d857604051635274afe760e01b81526001600160a01b038416600482015260240161135e565b7fcd5ed15c6e187e77e9aee88184c21f4f2182ab5827cb3b7e07fbedcd63f033005460ff166111f757604051638dfc202b60e01b815260040160405180910390fd5b7ff0c57e16840df040f15088dc2f81fe391c3923bec73e23a9662efc9c229c6a005468010000000000000000900460ff166111f757604051631afcd79f60e31b815260040160405180910390fd5b6111f961140c565b61146a61140c565b7fcd5ed15c6e187e77e9aee88184c21f4f2182ab5827cb3b7e07fbedcd63f03300805460ff19169055565b60606114a3838360006114aa565b9392505050565b6060814710156114cf5760405163cd78605960e01b815230600482015260240161135e565b600080856001600160a01b031684866040516114eb9190611adf565b60006040518083038185875af1925050503d8060008114611528576040519150601f19603f3d011682016040523d82523d6000602084013e61152d565b606091505b509150915061153d868383611547565b9695505050505050565b60608261155c57611557826115a3565b6114a3565b815115801561157357506001600160a01b0384163b155b1561159c57604051639996b31560e01b81526001600160a01b038516600482015260240161135e565b50806114a3565b8051156115b35780518082602001fd5b604051630a12f52160e11b815260040160405180910390fd5b6000602082840312156115de57600080fd5b81356001600160e01b0319811681146114a357600080fd5b60006020828403121561160857600080fd5b5035919050565b80356001600160a01b038116811461162657600080fd5b919050565b6000806040838503121561163e57600080fd5b8235915061164e6020840161160f565b90509250929050565b6000806040838503121561166a57600080fd5b6116738361160f565b946020939093013593505050565b8015158114610ed557600080fd5b6000602082840312156116a157600080fd5b81356114a381611681565b60005b838110156116c75781810151838201526020016116af565b50506000910152565b600081518084526116e88160208601602086016116ac565b601f01601f19169290920160200192915050565b634e487b7160e01b600052602160045260246000fd5b60006101006001600160a01b03808c168452808b1660208501525088604084015287606084015280608084015261174b818401886116d0565b905082810360a084015261175f81876116d0565b905082810360c084015261177381866116d0565b9150506003831061179457634e487b7160e01b600052602160045260246000fd5b8260e08301529998505050505050505050565b6000602082840312156117b957600080fd5b6114a38261160f565b634e487b7160e01b600052604160045260246000fd5b600082601f8301126117e957600080fd5b813567ffffffffffffffff80821115611804576118046117c2565b604051601f8301601f19908116603f0116810190828211818310171561182c5761182c6117c2565b8160405283815286602085880101111561184557600080fd5b836020870160208301376000602085830101528094505050505092915050565b60008060008060008060c0878903121561187e57600080fd5b6118878761160f565b95506118956020880161160f565b945060408701359350606087013567ffffffffffffffff808211156118b957600080fd5b6118c58a838b016117d8565b945060808901359150808211156118db57600080fd5b6118e78a838b016117d8565b935060a08901359150808211156118fd57600080fd5b5061190a89828a016117d8565b9150509295509295509295565b600181811c9082168061192b57607f821691505b60208210810361194b57634e487b7160e01b600052602260045260246000fd5b50919050565b8181038181111561046757634e487b7160e01b600052601160045260246000fd5b601f8211156104d857600081815260208120601f850160051c810160208610156119995750805b601f850160051c820191505b81811015610cfd578281556001016119a5565b815167ffffffffffffffff8111156119d2576119d26117c2565b6119e6816119e08454611917565b84611972565b602080601f831160018114611a1b5760008415611a035750858301515b600019600386901b1c1916600185901b178555610cfd565b600085815260208120601f198616915b82811015611a4a57888601518255948401946001909101908401611a2b565b5085821015611a685787850151600019600388901b60f8161c191681555b5050505050600190811b01905550565b848152608060208201526000611a9160808301866116d0565b8281036040840152611aa381866116d0565b90508281036060840152611ab781856116d0565b979650505050505050565b600060208284031215611ad457600080fd5b81516114a381611681565b60008251611af18184602087016116ac565b919091019291505056fe02dd7bc7dec4dceedda775e58dd541e08a116c6c53815c0bd028192f7b626800a164736f6c6343000814000a",
  "devdoc": {
    "errors": {
      "AccessControlBadConfirmation()": [
        {
          "details": "The caller of a function is not the expected one. NOTE: Don't confuse with {AccessControlUnauthorizedAccount}."
        }
      ],
      "AccessControlUnauthorizedAccount(address,bytes32)": [
        {
          "details": "The `account` is missing a role."
        }
      ],
      "AddressEmptyCode(address)": [
        {
          "details": "There's no code at `target` (it is not a contract)."
        }
      ],
      "AddressInsufficientBalance(address)": [
        {
          "details": "The ETH balance of the account is not enough to perform the operation."
        }
      ],
      "EnforcedPause()": [
        {
          "details": "The operation failed because the contract is paused."
        }
      ],
      "ExpectedPause()": [
        {
          "details": "The operation failed because the contract is not paused."
        }
      ],
      "FailedInnerCall()": [
        {
          "details": "A call to an address target failed. The target may have reverted."
        }
      ],
      "InvalidInitialization()": [
        {
          "details": "The contract is already initialized."
        }
      ],
      "NotInitializing()": [
        {
          "details": "The contract is not initializing."
        }
      ],
      "ReentrancyGuardReentrantCall()": [
        {
          "details": "Unauthorized reentrant call."
        }
      ],
      "SafeERC20FailedOperation(address)": [
        {
          "details": "An operation with an ERC20 token failed."
        }
      ]
    },
    "events": {
      "Initialized(uint64)": {
        "details": "Triggered when the contract has been initialized or reinitialized."
      },
      "Paused(address)": {
        "details": "Emitted when the pause is triggered by `account`."
      },
      "RoleAdminChanged(bytes32,bytes32,bytes32)": {
        "details": "Emitted when `newAdminRole` is set as ``role``'s admin role, replacing `previousAdminRole` `DEFAULT_ADMIN_ROLE` is the starting admin for all roles, despite {RoleAdminChanged} not being emitted signaling this."
      },
      "RoleGranted(bytes32,address,address)": {
        "details": "Emitted when `account` is granted `role`. `sender` is the account that originated the contract call, an admin role bearer except when using {AccessControl-_setupRole}."
      },
      "RoleRevoked(bytes32,address,address)": {
        "details": "Emitted when `account` is revoked `role`. `sender` is the account that originated the contract call:   - if using `revokeRole`, it is the admin role bearer   - if using `renounceRole`, it is the role bearer (i.e. `account`)"
      },
      "Unpaused(address)": {
        "details": "Emitted when the pause is lifted by `account`."
      }
    },
    "kind": "dev",
    "methods": {
      "constructor": {
        "custom:oz-upgrades-unsafe-allow": "constructor"
      },
      "getRoleAdmin(bytes32)": {
        "details": "Returns the admin role that controls `role`. See {grantRole} and {revokeRole}. To change a role's admin, use {_setRoleAdmin}."
      },
      "grantRole(bytes32,address)": {
        "details": "Grants `role` to `account`. If `account` had not been already granted `role`, emits a {RoleGranted} event. Requirements: - the caller must have ``role``'s admin role. May emit a {RoleGranted} event."
      },
      "hasRole(bytes32,address)": {
        "details": "Returns `true` if `account` has been granted `role`."
      },
      "paused()": {
        "details": "Returns true if the contract is paused, and false otherwise."
      },
      "renounceRole(bytes32,address)": {
        "details": "Revokes `role` from the calling account. Roles are often managed via {grantRole} and {revokeRole}: this function's purpose is to provide a mechanism for accounts to lose their privileges if they are compromised (such as when a trusted device is misplaced). If the calling account had been revoked `role`, emits a {RoleRevoked} event. Requirements: - the caller must be `callerConfirmation`. May emit a {RoleRevoked} event."
      },
      "revokeRole(bytes32,address)": {
        "details": "Revokes `role` from `account`. If `account` had been granted `role`, emits a {RoleRevoked} event. Requirements: - the caller must have ``role``'s admin role. May emit a {RoleRevoked} event."
      },
      "supportsInterface(bytes4)": {
        "details": "See {IERC165-supportsInterface}."
      }
    },
    "version": 1
  },
  "userdoc": {
    "kind": "user",
    "methods": {},
    "version": 1
  },
  "storageLayout": {
    "storage": [
      {
        "astId": 7995,
        "contract": "src/core/UniCardRegistry.sol:UniCardRegistry",
        "label": "nonces",
        "offset": 0,
        "slot": "0",
        "type": "t_mapping(t_address,t_uint256)"
      },
      {
        "astId": 8000,
        "contract": "src/core/UniCardRegistry.sol:UniCardRegistry",
        "label": "cards",
        "offset": 0,
        "slot": "1",
        "type": "t_mapping(t_bytes32,t_struct(Card)11785_storage)"
      }
    ],
    "types": {
      "t_address": {
        "encoding": "inplace",
        "label": "address",
        "numberOfBytes": "20"
      },
      "t_bytes32": {
        "encoding": "inplace",
        "label": "bytes32",
        "numberOfBytes": "32"
      },
      "t_enum(CardStatus)11943": {
        "encoding": "inplace",
        "label": "enum Enums.CardStatus",
        "numberOfBytes": "1"
      },
      "t_mapping(t_address,t_uint256)": {
        "encoding": "mapping",
        "key": "t_address",
        "label": "mapping(address => uint256)",
        "numberOfBytes": "32",
        "value": "t_uint256"
      },
      "t_mapping(t_bytes32,t_struct(Card)11785_storage)": {
        "encoding": "mapping",
        "key": "t_bytes32",
        "label": "mapping(bytes32 => struct IUniCardRegistry.Card)",
        "numberOfBytes": "32",
        "value": "t_struct(Card)11785_storage"
      },
      "t_string_storage": {
        "encoding": "bytes",
        "label": "string",
        "numberOfBytes": "32"
      },
      "t_struct(Card)11785_storage": {
        "encoding": "inplace",
        "label": "struct IUniCardRegistry.Card",
        "members": [
          {
            "astId": 11769,
            "contract": "src/core/UniCardRegistry.sol:UniCardRegistry",
            "label": "holder",
            "offset": 0,
            "slot": "0",
            "type": "t_address"
          },
          {
            "astId": 11771,
            "contract": "src/core/UniCardRegistry.sol:UniCardRegistry",
            "label": "paymentToken",
            "offset": 0,
            "slot": "1",
            "type": "t_address"
          },
          {
            "astId": 11773,
            "contract": "src/core/UniCardRegistry.sol:UniCardRegistry",
            "label": "nonce",
            "offset": 0,
            "slot": "2",
            "type": "t_uint256"
          },
          {
            "astId": 11775,
            "contract": "src/core/UniCardRegistry.sol:UniCardRegistry",
            "label": "openCardAmount",
            "offset": 0,
            "slot": "3",
            "type": "t_uint256"
          },
          {
            "astId": 11777,
            "contract": "src/core/UniCardRegistry.sol:UniCardRegistry",
            "label": "productCode",
            "offset": 0,
            "slot": "4",
            "type": "t_string_storage"
          },
          {
            "astId": 11779,
            "contract": "src/core/UniCardRegistry.sol:UniCardRegistry",
            "label": "inviteCode",
            "offset": 0,
            "slot": "5",
            "type": "t_string_storage"
          },
          {
            "astId": 11781,
            "contract": "src/core/UniCardRegistry.sol:UniCardRegistry",
            "label": "referralCode",
            "offset": 0,
            "slot": "6",
            "type": "t_string_storage"
          },
          {
            "astId": 11784,
            "contract": "src/core/UniCardRegistry.sol:UniCardRegistry",
            "label": "status",
            "offset": 0,
            "slot": "7",
            "type": "t_enum(CardStatus)11943"
          }
        ],
        "numberOfBytes": "256"
      },
      "t_uint256": {
        "encoding": "inplace",
        "label": "uint256",
        "numberOfBytes": "32"
      }
    }
  }
}