{
  "address": "0xF8ed87eCD4D1173d86C67E28f35A2beC52020fF2",
  "abi": [
    {
      "inputs": [],
      "stateMutability": "nonpayable",
      "type": "constructor"
    },
    {
      "inputs": [],
      "name": "AccessControlBadConfirmation",
      "type": "error"
    },
    {
      "inputs": [
        {
          "internalType": "address",
          "name": "account",
          "type": "address"
        },
        {
          "internalType": "bytes32",
          "name": "neededRole",
          "type": "bytes32"
        }
      ],
      "name": "AccessControlUnauthorizedAccount",
      "type": "error"
    },
    {
      "inputs": [
        {
          "internalType": "address",
          "name": "target",
          "type": "address"
        }
      ],
      "name": "AddressEmptyCode",
      "type": "error"
    },
    {
      "inputs": [
        {
          "internalType": "address",
          "name": "account",
          "type": "address"
        }
      ],
      "name": "AddressInsufficientBalance",
      "type": "error"
    },
    {
      "inputs": [],
      "name": "ECDSAInvalidSignature",
      "type": "error"
    },
    {
      "inputs": [
        {
          "internalType": "uint256",
          "name": "length",
          "type": "uint256"
        }
      ],
      "name": "ECDSAInvalidSignatureLength",
      "type": "error"
    },
    {
      "inputs": [
        {
          "internalType": "bytes32",
          "name": "s",
          "type": "bytes32"
        }
      ],
      "name": "ECDSAInvalidSignatureS",
      "type": "error"
    },
    {
      "inputs": [],
      "name": "EnforcedPause",
      "type": "error"
    },
    {
      "inputs": [],
      "name": "ExpectedPause",
      "type": "error"
    },
    {
      "inputs": [],
      "name": "FailedInnerCall",
      "type": "error"
    },
    {
      "inputs": [],
      "name": "InvalidInitialization",
      "type": "error"
    },
    {
      "inputs": [],
      "name": "NotInitializing",
      "type": "error"
    },
    {
      "inputs": [],
      "name": "ReentrancyGuardReentrantCall",
      "type": "error"
    },
    {
      "inputs": [
        {
          "internalType": "address",
          "name": "token",
          "type": "address"
        }
      ],
      "name": "SafeERC20FailedOperation",
      "type": "error"
    },
    {
      "inputs": [],
      "name": "UNICARD_REGISTRY_INVALID_SIGNATURE",
      "type": "error"
    },
    {
      "inputs": [],
      "name": "UNICARD_REGISTRY_NONCE_MISMATCH",
      "type": "error"
    },
    {
      "inputs": [],
      "name": "UNICARD_REGISTRY_PAYMENT_TOKEN_NOT_ALLOWED",
      "type": "error"
    },
    {
      "inputs": [],
      "name": "UNICARD_REGISTRY_REQUEST_TX_HASH_ALREADY_USED",
      "type": "error"
    },
    {
      "inputs": [],
      "name": "UNICARD_REGISTRY_REQUEST_TX_HASH_EMPTY",
      "type": "error"
    },
    {
      "inputs": [],
      "name": "UNICARD_REGISTRY_USER_ALREADY_HAS_COMMITMENT",
      "type": "error"
    },
    {
      "anonymous": false,
      "inputs": [
        {
          "indexed": true,
          "internalType": "address",
          "name": "holder",
          "type": "address"
        },
        {
          "indexed": true,
          "internalType": "address",
          "name": "paymentToken",
          "type": "address"
        },
        {
          "indexed": false,
          "internalType": "uint256",
          "name": "nonce",
          "type": "uint256"
        },
        {
          "indexed": false,
          "internalType": "bytes32",
          "name": "commitment",
          "type": "bytes32"
        },
        {
          "indexed": false,
          "internalType": "string",
          "name": "requestTxHash",
          "type": "string"
        }
      ],
      "name": "CardOpenConfirmation",
      "type": "event"
    },
    {
      "anonymous": false,
      "inputs": [
        {
          "indexed": true,
          "internalType": "address",
          "name": "holder",
          "type": "address"
        },
        {
          "indexed": true,
          "internalType": "address",
          "name": "paymentToken",
          "type": "address"
        },
        {
          "indexed": true,
          "internalType": "uint256",
          "name": "nonce",
          "type": "uint256"
        },
        {
          "indexed": false,
          "internalType": "uint256",
          "name": "amount",
          "type": "uint256"
        },
        {
          "indexed": false,
          "internalType": "string",
          "name": "productCode",
          "type": "string"
        },
        {
          "indexed": false,
          "internalType": "string",
          "name": "inviteCode",
          "type": "string"
        },
        {
          "indexed": false,
          "internalType": "string",
          "name": "referralCode",
          "type": "string"
        },
        {
          "indexed": false,
          "internalType": "bytes32",
          "name": "commitment",
          "type": "bytes32"
        }
      ],
      "name": "CardOpenRequest",
      "type": "event"
    },
    {
      "anonymous": false,
      "inputs": [
        {
          "indexed": false,
          "internalType": "uint64",
          "name": "version",
          "type": "uint64"
        }
      ],
      "name": "Initialized",
      "type": "event"
    },
    {
      "anonymous": false,
      "inputs": [
        {
          "indexed": false,
          "internalType": "address",
          "name": "account",
          "type": "address"
        }
      ],
      "name": "Paused",
      "type": "event"
    },
    {
      "anonymous": false,
      "inputs": [
        {
          "indexed": true,
          "internalType": "bytes32",
          "name": "role",
          "type": "bytes32"
        },
        {
          "indexed": true,
          "internalType": "bytes32",
          "name": "previousAdminRole",
          "type": "bytes32"
        },
        {
          "indexed": true,
          "internalType": "bytes32",
          "name": "newAdminRole",
          "type": "bytes32"
        }
      ],
      "name": "RoleAdminChanged",
      "type": "event"
    },
    {
      "anonymous": false,
      "inputs": [
        {
          "indexed": true,
          "internalType": "bytes32",
          "name": "role",
          "type": "bytes32"
        },
        {
          "indexed": true,
          "internalType": "address",
          "name": "account",
          "type": "address"
        },
        {
          "indexed": true,
          "internalType": "address",
          "name": "sender",
          "type": "address"
        }
      ],
      "name": "RoleGranted",
      "type": "event"
    },
    {
      "anonymous": false,
      "inputs": [
        {
          "indexed": true,
          "internalType": "bytes32",
          "name": "role",
          "type": "bytes32"
        },
        {
          "indexed": true,
          "internalType": "address",
          "name": "account",
          "type": "address"
        },
        {
          "indexed": true,
          "internalType": "address",
          "name": "sender",
          "type": "address"
        }
      ],
      "name": "RoleRevoked",
      "type": "event"
    },
    {
      "anonymous": false,
      "inputs": [
        {
          "indexed": false,
          "internalType": "address",
          "name": "account",
          "type": "address"
        }
      ],
      "name": "Unpaused",
      "type": "event"
    },
    {
      "inputs": [],
      "name": "ALLOWED_TOKEN_PAYMENT",
      "outputs": [
        {
          "internalType": "bytes32",
          "name": "",
          "type": "bytes32"
        }
      ],
      "stateMutability": "view",
      "type": "function"
    },
    {
      "inputs": [],
      "name": "CONTROLLER_ROLE",
      "outputs": [
        {
          "internalType": "bytes32",
          "name": "",
          "type": "bytes32"
        }
      ],
      "stateMutability": "view",
      "type": "function"
    },
    {
      "inputs": [],
      "name": "DEFAULT_ADMIN_ROLE",
      "outputs": [
        {
          "internalType": "bytes32",
          "name": "",
          "type": "bytes32"
        }
      ],
      "stateMutability": "view",
      "type": "function"
    },
    {
      "inputs": [],
      "name": "NATIVE_TOKEN",
      "outputs": [
        {
          "internalType": "address",
          "name": "",
          "type": "address"
        }
      ],
      "stateMutability": "view",
      "type": "function"
    },
    {
      "inputs": [],
      "name": "UNICARD_VAULT_ROLE",
      "outputs": [
        {
          "internalType": "bytes32",
          "name": "",
          "type": "bytes32"
        }
      ],
      "stateMutability": "view",
      "type": "function"
    },
    {
      "inputs": [
        {
          "internalType": "bytes32",
          "name": "commitment",
          "type": "bytes32"
        }
      ],
      "name": "commitments",
      "outputs": [
        {
          "components": [
            {
              "internalType": "string",
              "name": "productCode",
              "type": "string"
            },
            {
              "internalType": "address",
              "name": "holder",
              "type": "address"
            },
            {
              "internalType": "address",
              "name": "paymentToken",
              "type": "address"
            },
            {
              "internalType": "uint256",
              "name": "nonce",
              "type": "uint256"
            }
          ],
          "internalType": "struct IUniCardRegistry.Commitment",
          "name": "",
          "type": "tuple"
        }
      ],
      "stateMutability": "view",
      "type": "function"
    },
    {
      "inputs": [
        {
          "internalType": "address",
          "name": "aHolder",
          "type": "address"
        },
        {
          "internalType": "uint256",
          "name": "aNonce",
          "type": "uint256"
        }
      ],
      "name": "confirmationKey",
      "outputs": [
        {
          "internalType": "bytes32",
          "name": "",
          "type": "bytes32"
        }
      ],
      "stateMutability": "pure",
      "type": "function"
    },
    {
      "inputs": [
        {
          "internalType": "bytes32",
          "name": "confirmation",
          "type": "bytes32"
        }
      ],
      "name": "confirmations",
      "outputs": [
        {
          "components": [
            {
              "internalType": "string",
              "name": "productCode",
              "type": "string"
            },
            {
              "internalType": "address",
              "name": "holder",
              "type": "address"
            },
            {
              "internalType": "address",
              "name": "paymentToken",
              "type": "address"
            },
            {
              "internalType": "uint256",
              "name": "nonce",
              "type": "uint256"
            },
            {
              "internalType": "bytes32",
              "name": "commitment",
              "type": "bytes32"
            },
            {
              "internalType": "string",
              "name": "requestTxHash",
              "type": "string"
            }
          ],
          "internalType": "struct IUniCardRegistry.Confirmation",
          "name": "",
          "type": "tuple"
        }
      ],
      "stateMutability": "view",
      "type": "function"
    },
    {
      "inputs": [
        {
          "internalType": "bytes32",
          "name": "role",
          "type": "bytes32"
        }
      ],
      "name": "getRoleAdmin",
      "outputs": [
        {
          "internalType": "bytes32",
          "name": "",
          "type": "bytes32"
        }
      ],
      "stateMutability": "view",
      "type": "function"
    },
    {
      "inputs": [
        {
          "internalType": "bytes32",
          "name": "role",
          "type": "bytes32"
        },
        {
          "internalType": "address",
          "name": "account",
          "type": "address"
        }
      ],
      "name": "grantRole",
      "outputs": [],
      "stateMutability": "nonpayable",
      "type": "function"
    },
    {
      "inputs": [
        {
          "internalType": "address",
          "name": "anAddress",
          "type": "address"
        }
      ],
      "name": "hasAdminRole",
      "outputs": [
        {
          "internalType": "bool",
          "name": "",
          "type": "bool"
        }
      ],
      "stateMutability": "view",
      "type": "function"
    },
    {
      "inputs": [
        {
          "internalType": "address",
          "name": "anAddress",
          "type": "address"
        }
      ],
      "name": "hasControllerRole",
      "outputs": [
        {
          "internalType": "bool",
          "name": "",
          "type": "bool"
        }
      ],
      "stateMutability": "view",
      "type": "function"
    },
    {
      "inputs": [
        {
          "internalType": "bytes32",
          "name": "role",
          "type": "bytes32"
        },
        {
          "internalType": "address",
          "name": "account",
          "type": "address"
        }
      ],
      "name": "hasRole",
      "outputs": [
        {
          "internalType": "bool",
          "name": "",
          "type": "bool"
        }
      ],
      "stateMutability": "view",
      "type": "function"
    },
    {
      "inputs": [
        {
          "internalType": "address",
          "name": "anAdmin",
          "type": "address"
        }
      ],
      "name": "initialize",
      "outputs": [],
      "stateMutability": "nonpayable",
      "type": "function"
    },
    {
      "inputs": [
        {
          "internalType": "address",
          "name": "",
          "type": "address"
        }
      ],
      "name": "nonces",
      "outputs": [
        {
          "internalType": "uint256",
          "name": "",
          "type": "uint256"
        }
      ],
      "stateMutability": "view",
      "type": "function"
    },
    {
      "inputs": [
        {
          "internalType": "address",
          "name": "holder",
          "type": "address"
        },
        {
          "internalType": "address",
          "name": "paymentToken",
          "type": "address"
        },
        {
          "internalType": "uint256",
          "name": "nonce",
          "type": "uint256"
        },
        {
          "internalType": "string",
          "name": "productCode",
          "type": "string"
        },
        {
          "internalType": "bytes",
          "name": "signature",
          "type": "bytes"
        },
        {
          "internalType": "string",
          "name": "requestTxHash",
          "type": "string"
        }
      ],
      "name": "openCardConfirmation",
      "outputs": [],
      "stateMutability": "nonpayable",
      "type": "function"
    },
    {
      "inputs": [
        {
          "internalType": "address",
          "name": "holder",
          "type": "address"
        },
        {
          "internalType": "address",
          "name": "paymentToken",
          "type": "address"
        },
        {
          "internalType": "uint256",
          "name": "amount",
          "type": "uint256"
        },
        {
          "internalType": "string",
          "name": "productCode",
          "type": "string"
        },
        {
          "internalType": "string",
          "name": "inviteCode",
          "type": "string"
        },
        {
          "internalType": "string",
          "name": "referralCode",
          "type": "string"
        }
      ],
      "name": "openCardRequest",
      "outputs": [],
      "stateMutability": "payable",
      "type": "function"
    },
    {
      "inputs": [],
      "name": "paused",
      "outputs": [
        {
          "internalType": "bool",
          "name": "",
          "type": "bool"
        }
      ],
      "stateMutability": "view",
      "type": "function"
    },
    {
      "inputs": [
        {
          "internalType": "bytes32",
          "name": "role",
          "type": "bytes32"
        },
        {
          "internalType": "address",
          "name": "callerConfirmation",
          "type": "address"
        }
      ],
      "name": "renounceRole",
      "outputs": [],
      "stateMutability": "nonpayable",
      "type": "function"
    },
    {
      "inputs": [
        {
          "internalType": "bytes32",
          "name": "role",
          "type": "bytes32"
        },
        {
          "internalType": "address",
          "name": "account",
          "type": "address"
        }
      ],
      "name": "revokeRole",
      "outputs": [],
      "stateMutability": "nonpayable",
      "type": "function"
    },
    {
      "inputs": [
        {
          "internalType": "bytes4",
          "name": "interfaceId",
          "type": "bytes4"
        }
      ],
      "name": "supportsInterface",
      "outputs": [
        {
          "internalType": "bool",
          "name": "",
          "type": "bool"
        }
      ],
      "stateMutability": "view",
      "type": "function"
    },
    {
      "inputs": [
        {
          "internalType": "address",
          "name": "paymentToken",
          "type": "address"
        },
        {
          "internalType": "uint256",
          "name": "amount",
          "type": "uint256"
        }
      ],
      "name": "withdraw",
      "outputs": [],
      "stateMutability": "nonpayable",
      "type": "function"
    }
  ],
  "transactionHash": "0x703dda37bdb755841f1dcf47087c9c1d5ec167481a1eb8d100f0c901e446100b",
  "args": [],
  "numDeployments": 1,
  "solcInputHash": "7dbe994e2aaa861c1fcf9ccf0ecc9215",
  "bytecode": "0x608060405234801561001057600080fd5b5061001961001e565b6100d0565b7ff0c57e16840df040f15088dc2f81fe391c3923bec73e23a9662efc9c229c6a00805468010000000000000000900460ff161561006e5760405163f92ee8a960e01b815260040160405180910390fd5b80546001600160401b03908116146100cd5780546001600160401b0319166001600160401b0390811782556040519081527fc7f505b2f371ae2175ee4913f4499e1f2633a7b5936321eed1cdaeb6115181d29060200160405180910390a15b50565b61205c80620000e06000396000f3fe6080604052600436106101555760003560e01c80639ae97dcb116100bb578063c4d66de81161007f578063d547741f11610059578063d547741f146104b3578063ec95bfe7146104d3578063f3fef3a31461050057600080fd5b8063c4d66de8146103fd578063c777b3ea1461041d578063d41698f61461045157600080fd5b80639ae97dcb14610361578063a217fddf14610395578063a2c398dc146103aa578063a4ded79f146103ca578063c395fcb3146103dd57600080fd5b806331f7d9641161011d5780637ecebe00116100f75780637ecebe00146102e7578063839df9451461031457806391d148541461034157600080fd5b806331f7d9641461025057806336568abe146102905780635c975abb146102b057600080fd5b806301ffc9a71461015a578063092c5b3b1461018f57806314b95ee4146101d1578063248a9ca3146101f15780632f2ff15d1461022e575b600080fd5b34801561016657600080fd5b5061017a6101753660046119bf565b610520565b60405190151581526020015b60405180910390f35b34801561019b57600080fd5b506101c37f7b765e0e932d348852a6f810bfa1ab891e259123f02db8cdcde614c57022335781565b604051908152602001610186565b3480156101dd57600080fd5b5061017a6101ec366004611a05565b610557565b3480156101fd57600080fd5b506101c361020c366004611a20565b6000908152600080516020612030833981519152602052604090206001015490565b34801561023a57600080fd5b5061024e610249366004611a39565b610583565b005b34801561025c57600080fd5b5061027873eeeeeeeeeeeeeeeeeeeeeeeeeeeeeeeeeeeeeeee81565b6040516001600160a01b039091168152602001610186565b34801561029c57600080fd5b5061024e6102ab366004611a39565b6105bb565b3480156102bc57600080fd5b507fcd5ed15c6e187e77e9aee88184c21f4f2182ab5827cb3b7e07fbedcd63f033005460ff1661017a565b3480156102f357600080fd5b506101c3610302366004611a05565b60006020819052908152604090205481565b34801561032057600080fd5b5061033461032f366004611a20565b6105f3565b6040516101869190611ab5565b34801561034d57600080fd5b5061017a61035c366004611a39565b6106f2565b34801561036d57600080fd5b506101c37fb0556657657e6f2a9ab555181b3ae26a9a17fe4de2644d7a728f0eb3957063d281565b3480156103a157600080fd5b506101c3600081565b3480156103b657600080fd5b5061024e6103c5366004611bb6565b61072a565b61024e6103d8366004611c7f565b610a21565b3480156103e957600080fd5b5061017a6103f8366004611a05565b610cce565b34801561040957600080fd5b5061024e610418366004611a05565b610cda565b34801561042957600080fd5b506101c37f5521ede19eb2604937d63b5901868b6ab4b4503c8194bdcbecb65f3406f64e3181565b34801561045d57600080fd5b506101c361046c366004611d01565b6040516bffffffffffffffffffffffff19606084901b1660208201526034810182905260009060540160405160208183030381529060405280519060200120905092915050565b3480156104bf57600080fd5b5061024e6104ce366004611a39565b610e99565b3480156104df57600080fd5b506104f36104ee366004611a20565b610ecb565b6040516101869190611d2b565b34801561050c57600080fd5b5061024e61051b366004611d01565b611094565b60006001600160e01b03198216637965db0b60e01b148061055157506301ffc9a760e01b6001600160e01b03198316145b92915050565b60006105517f7b765e0e932d348852a6f810bfa1ab891e259123f02db8cdcde614c570223357836106f2565b600082815260008051602061203083398151915260205260409020600101546105ab81611144565b6105b58383611151565b50505050565b6001600160a01b03811633146105e45760405163334bd91960e11b815260040160405180910390fd5b6105ee82826111f6565b505050565b6040805160808101825260608082526000602083018190529282018390528101919091526000828152600160205260409081902081516080810190925280548290829061063f90611d9b565b80601f016020809104026020016040519081016040528092919081815260200182805461066b90611d9b565b80156106b85780601f1061068d576101008083540402835291602001916106b8565b820191906000526020600020905b81548152906001019060200180831161069b57829003601f168201915b505050918352505060018201546001600160a01b039081166020830152600283015416604082015260039091015460609091015292915050565b6000918252600080516020612030833981519152602090815260408084206001600160a01b0393909316845291905290205460ff1690565b610732611272565b61073a6112bc565b805160000361075c5760405163211e4cad60e01b815260040160405180910390fd5b6001600160a01b038616600090815260208190526040902054841461079457604051636dbc16d760e11b815260040160405180910390fd5b6000868686866040516020016107ad9493929190611dd5565b6040516020818303038152906040528051906020012090506107cf8184611301565b6107ec576040516312497a9360e01b815260040160405180910390fd5b604080516bffffffffffffffffffffffff1960608a901b16602080830191909152603480830189905283518084039091018152605490920183528151918101919091206001600160a01b038a1660009081529182905291812080549161085183611e38565b90915550506000818152600260205260408120600501805461087290611d9b565b905011156108935760405163129787db60e31b815260040160405180910390fd5b6040518060c00160405280868152602001896001600160a01b03168152602001886001600160a01b03168152602001878152602001838152602001848152506002600083815260200190815260200160002060008201518160000190816108fa9190611e97565b5060208201516001820180546001600160a01b039283166001600160a01b0319918216179091556040840151600284018054919093169116179055606082015160038201556080820151600482015560a0820151600582019061095d9082611e97565b5050506000828152600160205260408120906109798282611971565b506001810180546001600160a01b0319908116909155600282018054909116905560006003909101556040516001600160a01b0388811691908a16907f0a96207445142e05993257ee534010bd82000c0f781f7551d7b903155539fcbf906109e6908a9087908990611f57565b60405180910390a35050610a1960017f9b779b17422d0df92223018b32b4d1fa46e071723d6817e2486d003becc55f0055565b505050505050565b610a29611272565b610a316112bc565b610a5b7fb0556657657e6f2a9ab555181b3ae26a9a17fe4de2644d7a728f0eb3957063d2866106f2565b610a78576040516375f65cff60e01b815260040160405180910390fd5b8315610b33576001600160a01b03851673eeeeeeeeeeeeeeeeeeeeeeeeeeeeeeeeeeeeeeee14610abc57610ab76001600160a01b0386168730876113b8565b610b33565b604051309085156108fc029086906000818181858888f19350505050158015610ae9573d6000803e3d6000fd5b5083341115610b33576001600160a01b0386166108fc610b098634611f76565b6040518115909202916000818181858888f19350505050158015610b31573d6000803e3d6000fd5b505b6001600160a01b038616600090815260208181526040808320549051909291610b64918a918a9186918a9101611dd5565b60408051601f198184030181529181528151602092830120600081815260019384905291909120909101549091506001600160a01b0316610c3657604080516080810182528681526001600160a01b03808b16602080840191909152908a168284015260608201859052600084815260019091529190912081518190610bea9082611e97565b5060208201516001820180546001600160a01b039283166001600160a01b0319918216179091556040840151600284018054919093169116179055606090910151600390910155610c4f565b60405163345fa13360e21b815260040160405180910390fd5b81876001600160a01b0316896001600160a01b03167ff4a8f73b2fef46ba045cc57b8c228c5fd042d84904899357429042598173208b8989898988604051610c9b959493929190611f89565b60405180910390a45050610a1960017f9b779b17422d0df92223018b32b4d1fa46e071723d6817e2486d003becc55f0055565b600061055181836106f2565b7ff0c57e16840df040f15088dc2f81fe391c3923bec73e23a9662efc9c229c6a00805468010000000000000000810460ff16159067ffffffffffffffff16600081158015610d255750825b905060008267ffffffffffffffff166001148015610d425750303b155b905081158015610d50575080155b15610d6e5760405163f92ee8a960e01b815260040160405180910390fd5b845467ffffffffffffffff191660011785558315610da257845468ff00000000000000001916680100000000000000001785555b610daa611434565b610db261143c565b610dba61144c565b610dc5600087611151565b50610df17f7b765e0e932d348852a6f810bfa1ab891e259123f02db8cdcde614c570223357600061145c565b610e1c7fb0556657657e6f2a9ab555181b3ae26a9a17fe4de2644d7a728f0eb3957063d2600061145c565b610e477f5521ede19eb2604937d63b5901868b6ab4b4503c8194bdcbecb65f3406f64e31600061145c565b8315610a1957845468ff000000000000000019168555604051600181527fc7f505b2f371ae2175ee4913f4499e1f2633a7b5936321eed1cdaeb6115181d29060200160405180910390a1505050505050565b60008281526000805160206120308339815191526020526040902060010154610ec181611144565b6105b583836111f6565b610f196040518060c001604052806060815260200160006001600160a01b0316815260200160006001600160a01b031681526020016000815260200160008019168152602001606081525090565b60008281526002602052604090819020815160c08101909252805482908290610f4190611d9b565b80601f0160208091040260200160405190810160405280929190818152602001828054610f6d90611d9b565b8015610fba5780601f10610f8f57610100808354040283529160200191610fba565b820191906000526020600020905b815481529060010190602001808311610f9d57829003601f168201915b505050918352505060018201546001600160a01b0390811660208301526002830154166040820152600382015460608201526004820154608082015260058201805460a09092019161100b90611d9b565b80601f016020809104026020016040519081016040528092919081815260200182805461103790611d9b565b80156110845780601f1061105957610100808354040283529160200191611084565b820191906000526020600020905b81548152906001019060200180831161106757829003601f168201915b5050505050815250509050919050565b600061109f81611144565b6110a7611272565b6110af6112bc565b6001600160a01b03831673eeeeeeeeeeeeeeeeeeeeeeeeeeeeeeeeeeeeeeee146110ec576110e76001600160a01b03841633846114dc565b61111b565b604051339083156108fc029084906000818181858888f19350505050158015611119573d6000803e3d6000fd5b505b6105ee60017f9b779b17422d0df92223018b32b4d1fa46e071723d6817e2486d003becc55f0055565b61114e813361150d565b50565b600060008051602061203083398151915261116c84846106f2565b6111ec576000848152602082815260408083206001600160a01b03871684529091529020805460ff191660011790556111a23390565b6001600160a01b0316836001600160a01b0316857f2f8788117e7eff1d82e926ec794901d17c78024a50270940304540a733656f0d60405160405180910390a46001915050610551565b6000915050610551565b600060008051602061203083398151915261121184846106f2565b156111ec576000848152602082815260408083206001600160a01b0387168085529252808320805460ff1916905551339287917ff6391f5c32d9c69d2a47ea670b442974b53935d1edc7fd64eb21e047a839171b9190a46001915050610551565b7f9b779b17422d0df92223018b32b4d1fa46e071723d6817e2486d003becc55f008054600119016112b657604051633ee5aeb560e01b815260040160405180910390fd5b60029055565b7fcd5ed15c6e187e77e9aee88184c21f4f2182ab5827cb3b7e07fbedcd63f033005460ff16156112ff5760405163d93c066560e01b815260040160405180910390fd5b565b6040517f19556e69706179205369676e6564204d6573736167653a0a33320000000000006020820152603a81018390526000908190605a01604051602081830303815290604052805190602001209050600061135d828561154f565b90506113897f7b765e0e932d348852a6f810bfa1ab891e259123f02db8cdcde614c570223357826106f2565b95945050505050565b60017f9b779b17422d0df92223018b32b4d1fa46e071723d6817e2486d003becc55f0055565b6040516001600160a01b0384811660248301528381166044830152606482018390526105b59186918216906323b872dd906084015b604051602081830303815290604052915060e01b6020820180517bffffffffffffffffffffffffffffffffffffffffffffffffffffffff8381831617835250505050611579565b6112ff6115dc565b6114446115dc565b6112ff61162a565b6114546115dc565b6112ff611632565b6000805160206120308339815191526000611493846000908152600080516020612030833981519152602052604090206001015490565b600085815260208490526040808220600101869055519192508491839187917fbd79b86ffe0ab8e8776151514217cd7cacd52c909f66475c3af44e129f0b00ff9190a450505050565b6040516001600160a01b038381166024830152604482018390526105ee91859182169063a9059cbb906064016113ed565b61151782826106f2565b61154b5760405163e2517d3f60e01b81526001600160a01b0382166004820152602481018390526044015b60405180910390fd5b5050565b60008060008061155f8686611665565b92509250925061156f82826116b2565b5090949350505050565b600061158e6001600160a01b0384168361176b565b905080516000141580156115b35750808060200190518101906115b19190611fdb565b155b156105ee57604051635274afe760e01b81526001600160a01b0384166004820152602401611542565b7ff0c57e16840df040f15088dc2f81fe391c3923bec73e23a9662efc9c229c6a005468010000000000000000900460ff166112ff57604051631afcd79f60e31b815260040160405180910390fd5b6113926115dc565b61163a6115dc565b7fcd5ed15c6e187e77e9aee88184c21f4f2182ab5827cb3b7e07fbedcd63f03300805460ff19169055565b6000806000835160410361169f5760208401516040850151606086015160001a61169188828585611780565b9550955095505050506116ab565b50508151600091506002905b9250925092565b60008260038111156116c6576116c6611ffd565b036116cf575050565b60018260038111156116e3576116e3611ffd565b036117015760405163f645eedf60e01b815260040160405180910390fd5b600282600381111561171557611715611ffd565b036117365760405163fce698f760e01b815260048101829052602401611542565b600382600381111561174a5761174a611ffd565b0361154b576040516335e2f38360e21b815260048101829052602401611542565b60606117798383600061184f565b9392505050565b600080807f7fffffffffffffffffffffffffffffff5d576e7357a4501ddfe92f46681b20a08411156117bb5750600091506003905082611845565b604080516000808252602082018084528a905260ff891692820192909252606081018790526080810186905260019060a0016020604051602081039080840390855afa15801561180f573d6000803e3d6000fd5b5050604051601f1901519150506001600160a01b03811661183b57506000925060019150829050611845565b9250600091508190505b9450945094915050565b6060814710156118745760405163cd78605960e01b8152306004820152602401611542565b600080856001600160a01b031684866040516118909190612013565b60006040518083038185875af1925050503d80600081146118cd576040519150601f19603f3d011682016040523d82523d6000602084013e6118d2565b606091505b50915091506118e28683836118ec565b9695505050505050565b606082611901576118fc82611948565b611779565b815115801561191857506001600160a01b0384163b155b1561194157604051639996b31560e01b81526001600160a01b0385166004820152602401611542565b5080611779565b8051156119585780518082602001fd5b604051630a12f52160e11b815260040160405180910390fd5b50805461197d90611d9b565b6000825580601f1061198d575050565b601f01602090049060005260206000209081019061114e91905b808211156119bb57600081556001016119a7565b5090565b6000602082840312156119d157600080fd5b81356001600160e01b03198116811461177957600080fd5b80356001600160a01b0381168114611a0057600080fd5b919050565b600060208284031215611a1757600080fd5b611779826119e9565b600060208284031215611a3257600080fd5b5035919050565b60008060408385031215611a4c57600080fd5b82359150611a5c602084016119e9565b90509250929050565b60005b83811015611a80578181015183820152602001611a68565b50506000910152565b60008151808452611aa1816020860160208601611a65565b601f01601f19169290920160200192915050565b602081526000825160806020840152611ad160a0840182611a89565b905060208401516001600160a01b0380821660408601528060408701511660608601525050606084015160808401528091505092915050565b634e487b7160e01b600052604160045260246000fd5b600067ffffffffffffffff80841115611b3b57611b3b611b0a565b604051601f8501601f19908116603f01168101908282118183101715611b6357611b63611b0a565b81604052809350858152868686011115611b7c57600080fd5b858560208301376000602087830101525050509392505050565b600082601f830112611ba757600080fd5b61177983833560208501611b20565b60008060008060008060c08789031215611bcf57600080fd5b611bd8876119e9565b9550611be6602088016119e9565b945060408701359350606087013567ffffffffffffffff80821115611c0a57600080fd5b611c168a838b01611b96565b94506080890135915080821115611c2c57600080fd5b818901915089601f830112611c4057600080fd5b611c4f8a833560208501611b20565b935060a0890135915080821115611c6557600080fd5b50611c7289828a01611b96565b9150509295509295509295565b60008060008060008060c08789031215611c9857600080fd5b611ca1876119e9565b9550611caf602088016119e9565b945060408701359350606087013567ffffffffffffffff80821115611cd357600080fd5b611cdf8a838b01611b96565b94506080890135915080821115611cf557600080fd5b611c4f8a838b01611b96565b60008060408385031215611d1457600080fd5b611d1d836119e9565b946020939093013593505050565b602081526000825160c06020840152611d4760e0840182611a89565b905060208401516001600160a01b038082166040860152806040870151166060860152505060608401516080840152608084015160a084015260a0840151601f198483030160c08501526113898282611a89565b600181811c90821680611daf57607f821691505b602082108103611dcf57634e487b7160e01b600052602260045260246000fd5b50919050565b60006bffffffffffffffffffffffff19808760601b168352808660601b166014840152508360288301528251611e12816048850160208701611a65565b9190910160480195945050505050565b634e487b7160e01b600052601160045260246000fd5b600060018201611e4a57611e4a611e22565b5060010190565b601f8211156105ee57600081815260208120601f850160051c81016020861015611e785750805b601f850160051c820191505b81811015610a1957828155600101611e84565b815167ffffffffffffffff811115611eb157611eb1611b0a565b611ec581611ebf8454611d9b565b84611e51565b602080601f831160018114611efa5760008415611ee25750858301515b600019600386901b1c1916600185901b178555610a19565b600085815260208120601f198616915b82811015611f2957888601518255948401946001909101908401611f0a565b5085821015611f475787850151600019600388901b60f8161c191681555b5050505050600190811b01905550565b8381528260208201526060604082015260006113896060830184611a89565b8181038181111561055157610551611e22565b85815260a060208201526000611fa260a0830187611a89565b8281036040840152611fb48187611a89565b90508281036060840152611fc88186611a89565b9150508260808301529695505050505050565b600060208284031215611fed57600080fd5b8151801515811461177957600080fd5b634e487b7160e01b600052602160045260246000fd5b60008251612025818460208701611a65565b919091019291505056fe02dd7bc7dec4dceedda775e58dd541e08a116c6c53815c0bd028192f7b626800a164736f6c6343000814000a",
  "devdoc": {
    "errors": {
      "AccessControlBadConfirmation()": [
        {
          "details": "The caller of a function is not the expected one. NOTE: Don't confuse with {AccessControlUnauthorizedAccount}."
        }
      ],
      "AccessControlUnauthorizedAccount(address,bytes32)": [
        {
          "details": "The `account` is missing a role."
        }
      ],
      "AddressEmptyCode(address)": [
        {
          "details": "There's no code at `target` (it is not a contract)."
        }
      ],
      "AddressInsufficientBalance(address)": [
        {
          "details": "The ETH balance of the account is not enough to perform the operation."
        }
      ],
      "ECDSAInvalidSignature()": [
        {
          "details": "The signature derives the `address(0)`."
        }
      ],
      "ECDSAInvalidSignatureLength(uint256)": [
        {
          "details": "The signature has an invalid length."
        }
      ],
      "ECDSAInvalidSignatureS(bytes32)": [
        {
          "details": "The signature has an S value that is in the upper half order."
        }
      ],
      "EnforcedPause()": [
        {
          "details": "The operation failed because the contract is paused."
        }
      ],
      "ExpectedPause()": [
        {
          "details": "The operation failed because the contract is not paused."
        }
      ],
      "FailedInnerCall()": [
        {
          "details": "A call to an address target failed. The target may have reverted."
        }
      ],
      "InvalidInitialization()": [
        {
          "details": "The contract is already initialized."
        }
      ],
      "NotInitializing()": [
        {
          "details": "The contract is not initializing."
        }
      ],
      "ReentrancyGuardReentrantCall()": [
        {
          "details": "Unauthorized reentrant call."
        }
      ],
      "SafeERC20FailedOperation(address)": [
        {
          "details": "An operation with an ERC20 token failed."
        }
      ]
    },
    "events": {
      "Initialized(uint64)": {
        "details": "Triggered when the contract has been initialized or reinitialized."
      },
      "Paused(address)": {
        "details": "Emitted when the pause is triggered by `account`."
      },
      "RoleAdminChanged(bytes32,bytes32,bytes32)": {
        "details": "Emitted when `newAdminRole` is set as ``role``'s admin role, replacing `previousAdminRole` `DEFAULT_ADMIN_ROLE` is the starting admin for all roles, despite {RoleAdminChanged} not being emitted signaling this."
      },
      "RoleGranted(bytes32,address,address)": {
        "details": "Emitted when `account` is granted `role`. `sender` is the account that originated the contract call, an admin role bearer except when using {AccessControl-_setupRole}."
      },
      "RoleRevoked(bytes32,address,address)": {
        "details": "Emitted when `account` is revoked `role`. `sender` is the account that originated the contract call:   - if using `revokeRole`, it is the admin role bearer   - if using `renounceRole`, it is the role bearer (i.e. `account`)"
      },
      "Unpaused(address)": {
        "details": "Emitted when the pause is lifted by `account`."
      }
    },
    "kind": "dev",
    "methods": {
      "constructor": {
        "custom:oz-upgrades-unsafe-allow": "constructor"
      },
      "getRoleAdmin(bytes32)": {
        "details": "Returns the admin role that controls `role`. See {grantRole} and {revokeRole}. To change a role's admin, use {_setRoleAdmin}."
      },
      "grantRole(bytes32,address)": {
        "details": "Grants `role` to `account`. If `account` had not been already granted `role`, emits a {RoleGranted} event. Requirements: - the caller must have ``role``'s admin role. May emit a {RoleGranted} event."
      },
      "hasRole(bytes32,address)": {
        "details": "Returns `true` if `account` has been granted `role`."
      },
      "paused()": {
        "details": "Returns true if the contract is paused, and false otherwise."
      },
      "renounceRole(bytes32,address)": {
        "details": "Revokes `role` from the calling account. Roles are often managed via {grantRole} and {revokeRole}: this function's purpose is to provide a mechanism for accounts to lose their privileges if they are compromised (such as when a trusted device is misplaced). If the calling account had been revoked `role`, emits a {RoleRevoked} event. Requirements: - the caller must be `callerConfirmation`. May emit a {RoleRevoked} event."
      },
      "revokeRole(bytes32,address)": {
        "details": "Revokes `role` from `account`. If `account` had been granted `role`, emits a {RoleRevoked} event. Requirements: - the caller must have ``role``'s admin role. May emit a {RoleRevoked} event."
      },
      "supportsInterface(bytes4)": {
        "details": "See {IERC165-supportsInterface}."
      }
    },
    "version": 1
  },
  "userdoc": {
    "kind": "user",
    "methods": {},
    "version": 1
  },
  "storageLayout": {
    "storage": [
      {
        "astId": 2259,
        "contract": "src/registry/UniCardRegistryUpgradeable.sol:UniCardRegistryUpgradeable",
        "label": "nonces",
        "offset": 0,
        "slot": "0",
        "type": "t_mapping(t_address,t_uint256)"
      },
      {
        "astId": 2264,
        "contract": "src/registry/UniCardRegistryUpgradeable.sol:UniCardRegistryUpgradeable",
        "label": "_commitments",
        "offset": 0,
        "slot": "1",
        "type": "t_mapping(t_bytes32,t_struct(Commitment)2118_storage)"
      },
      {
        "astId": 2269,
        "contract": "src/registry/UniCardRegistryUpgradeable.sol:UniCardRegistryUpgradeable",
        "label": "_confirmations",
        "offset": 0,
        "slot": "2",
        "type": "t_mapping(t_bytes32,t_struct(Confirmation)2131_storage)"
      }
    ],
    "types": {
      "t_address": {
        "encoding": "inplace",
        "label": "address",
        "numberOfBytes": "20"
      },
      "t_bytes32": {
        "encoding": "inplace",
        "label": "bytes32",
        "numberOfBytes": "32"
      },
      "t_mapping(t_address,t_uint256)": {
        "encoding": "mapping",
        "key": "t_address",
        "label": "mapping(address => uint256)",
        "numberOfBytes": "32",
        "value": "t_uint256"
      },
      "t_mapping(t_bytes32,t_struct(Commitment)2118_storage)": {
        "encoding": "mapping",
        "key": "t_bytes32",
        "label": "mapping(bytes32 => struct IUniCardRegistry.Commitment)",
        "numberOfBytes": "32",
        "value": "t_struct(Commitment)2118_storage"
      },
      "t_mapping(t_bytes32,t_struct(Confirmation)2131_storage)": {
        "encoding": "mapping",
        "key": "t_bytes32",
        "label": "mapping(bytes32 => struct IUniCardRegistry.Confirmation)",
        "numberOfBytes": "32",
        "value": "t_struct(Confirmation)2131_storage"
      },
      "t_string_storage": {
        "encoding": "bytes",
        "label": "string",
        "numberOfBytes": "32"
      },
      "t_struct(Commitment)2118_storage": {
        "encoding": "inplace",
        "label": "struct IUniCardRegistry.Commitment",
        "members": [
          {
            "astId": 2111,
            "contract": "src/registry/UniCardRegistryUpgradeable.sol:UniCardRegistryUpgradeable",
            "label": "productCode",
            "offset": 0,
            "slot": "0",
            "type": "t_string_storage"
          },
          {
            "astId": 2113,
            "contract": "src/registry/UniCardRegistryUpgradeable.sol:UniCardRegistryUpgradeable",
            "label": "holder",
            "offset": 0,
            "slot": "1",
            "type": "t_address"
          },
          {
            "astId": 2115,
            "contract": "src/registry/UniCardRegistryUpgradeable.sol:UniCardRegistryUpgradeable",
            "label": "paymentToken",
            "offset": 0,
            "slot": "2",
            "type": "t_address"
          },
          {
            "astId": 2117,
            "contract": "src/registry/UniCardRegistryUpgradeable.sol:UniCardRegistryUpgradeable",
            "label": "nonce",
            "offset": 0,
            "slot": "3",
            "type": "t_uint256"
          }
        ],
        "numberOfBytes": "128"
      },
      "t_struct(Confirmation)2131_storage": {
        "encoding": "inplace",
        "label": "struct IUniCardRegistry.Confirmation",
        "members": [
          {
            "astId": 2120,
            "contract": "src/registry/UniCardRegistryUpgradeable.sol:UniCardRegistryUpgradeable",
            "label": "productCode",
            "offset": 0,
            "slot": "0",
            "type": "t_string_storage"
          },
          {
            "astId": 2122,
            "contract": "src/registry/UniCardRegistryUpgradeable.sol:UniCardRegistryUpgradeable",
            "label": "holder",
            "offset": 0,
            "slot": "1",
            "type": "t_address"
          },
          {
            "astId": 2124,
            "contract": "src/registry/UniCardRegistryUpgradeable.sol:UniCardRegistryUpgradeable",
            "label": "paymentToken",
            "offset": 0,
            "slot": "2",
            "type": "t_address"
          },
          {
            "astId": 2126,
            "contract": "src/registry/UniCardRegistryUpgradeable.sol:UniCardRegistryUpgradeable",
            "label": "nonce",
            "offset": 0,
            "slot": "3",
            "type": "t_uint256"
          },
          {
            "astId": 2128,
            "contract": "src/registry/UniCardRegistryUpgradeable.sol:UniCardRegistryUpgradeable",
            "label": "commitment",
            "offset": 0,
            "slot": "4",
            "type": "t_bytes32"
          },
          {
            "astId": 2130,
            "contract": "src/registry/UniCardRegistryUpgradeable.sol:UniCardRegistryUpgradeable",
            "label": "requestTxHash",
            "offset": 0,
            "slot": "5",
            "type": "t_string_storage"
          }
        ],
        "numberOfBytes": "192"
      },
      "t_uint256": {
        "encoding": "inplace",
        "label": "uint256",
        "numberOfBytes": "32"
      }
    }
  }
}