{
  "address": "0x1f7701A3267e8E6c785725261feD573Bdc12d382",
  "abi": [
    {
      "inputs": [],
      "stateMutability": "nonpayable",
      "type": "constructor"
    },
    {
      "inputs": [],
      "name": "AccessControlBadConfirmation",
      "type": "error"
    },
    {
      "inputs": [
        {
          "internalType": "address",
          "name": "account",
          "type": "address"
        },
        {
          "internalType": "bytes32",
          "name": "neededRole",
          "type": "bytes32"
        }
      ],
      "name": "AccessControlUnauthorizedAccount",
      "type": "error"
    },
    {
      "inputs": [
        {
          "internalType": "address",
          "name": "target",
          "type": "address"
        }
      ],
      "name": "AddressEmptyCode",
      "type": "error"
    },
    {
      "inputs": [
        {
          "internalType": "address",
          "name": "account",
          "type": "address"
        }
      ],
      "name": "AddressInsufficientBalance",
      "type": "error"
    },
    {
      "inputs": [],
      "name": "EnforcedPause",
      "type": "error"
    },
    {
      "inputs": [],
      "name": "ExpectedPause",
      "type": "error"
    },
    {
      "inputs": [],
      "name": "FailedInnerCall",
      "type": "error"
    },
    {
      "inputs": [],
      "name": "InvalidInitialization",
      "type": "error"
    },
    {
      "inputs": [],
      "name": "NotInitializing",
      "type": "error"
    },
    {
      "inputs": [],
      "name": "ReentrancyGuardReentrantCall",
      "type": "error"
    },
    {
      "inputs": [
        {
          "internalType": "address",
          "name": "token",
          "type": "address"
        }
      ],
      "name": "SafeERC20FailedOperation",
      "type": "error"
    },
    {
      "inputs": [],
      "name": "UNICARD_VAULT_CARD_NOT_INITIALIZED",
      "type": "error"
    },
    {
      "inputs": [],
      "name": "UNICARD_VAULT_INSUFFICIENT_BALANCE",
      "type": "error"
    },
    {
      "inputs": [],
      "name": "UNICARD_VAULT_INVALID_CARD_ID",
      "type": "error"
    },
    {
      "inputs": [],
      "name": "UNICARD_VAULT_INVALID_HOLDER",
      "type": "error"
    },
    {
      "anonymous": false,
      "inputs": [
        {
          "indexed": false,
          "internalType": "string",
          "name": "cardId",
          "type": "string"
        },
        {
          "indexed": false,
          "internalType": "address",
          "name": "holder",
          "type": "address"
        },
        {
          "indexed": false,
          "internalType": "uint256",
          "name": "amount",
          "type": "uint256"
        }
      ],
      "name": "Deposit",
      "type": "event"
    },
    {
      "anonymous": false,
      "inputs": [
        {
          "indexed": false,
          "internalType": "string",
          "name": "cardId",
          "type": "string"
        },
        {
          "indexed": false,
          "internalType": "address",
          "name": "holder",
          "type": "address"
        },
        {
          "indexed": false,
          "internalType": "uint256",
          "name": "amount",
          "type": "uint256"
        }
      ],
      "name": "EmergencyWithdraw",
      "type": "event"
    },
    {
      "anonymous": false,
      "inputs": [
        {
          "indexed": false,
          "internalType": "uint64",
          "name": "version",
          "type": "uint64"
        }
      ],
      "name": "Initialized",
      "type": "event"
    },
    {
      "anonymous": false,
      "inputs": [
        {
          "indexed": false,
          "internalType": "address",
          "name": "account",
          "type": "address"
        }
      ],
      "name": "Paused",
      "type": "event"
    },
    {
      "anonymous": false,
      "inputs": [
        {
          "indexed": true,
          "internalType": "bytes32",
          "name": "role",
          "type": "bytes32"
        },
        {
          "indexed": true,
          "internalType": "bytes32",
          "name": "previousAdminRole",
          "type": "bytes32"
        },
        {
          "indexed": true,
          "internalType": "bytes32",
          "name": "newAdminRole",
          "type": "bytes32"
        }
      ],
      "name": "RoleAdminChanged",
      "type": "event"
    },
    {
      "anonymous": false,
      "inputs": [
        {
          "indexed": true,
          "internalType": "bytes32",
          "name": "role",
          "type": "bytes32"
        },
        {
          "indexed": true,
          "internalType": "address",
          "name": "account",
          "type": "address"
        },
        {
          "indexed": true,
          "internalType": "address",
          "name": "sender",
          "type": "address"
        }
      ],
      "name": "RoleGranted",
      "type": "event"
    },
    {
      "anonymous": false,
      "inputs": [
        {
          "indexed": true,
          "internalType": "bytes32",
          "name": "role",
          "type": "bytes32"
        },
        {
          "indexed": true,
          "internalType": "address",
          "name": "account",
          "type": "address"
        },
        {
          "indexed": true,
          "internalType": "address",
          "name": "sender",
          "type": "address"
        }
      ],
      "name": "RoleRevoked",
      "type": "event"
    },
    {
      "anonymous": false,
      "inputs": [
        {
          "indexed": false,
          "internalType": "bool",
          "name": "isPaused",
          "type": "bool"
        }
      ],
      "name": "TogglePause",
      "type": "event"
    },
    {
      "anonymous": false,
      "inputs": [
        {
          "indexed": false,
          "internalType": "address",
          "name": "account",
          "type": "address"
        }
      ],
      "name": "Unpaused",
      "type": "event"
    },
    {
      "anonymous": false,
      "inputs": [
        {
          "indexed": false,
          "internalType": "address",
          "name": "newUsdu",
          "type": "address"
        }
      ],
      "name": "UsduUpdated",
      "type": "event"
    },
    {
      "anonymous": false,
      "inputs": [
        {
          "indexed": false,
          "internalType": "string",
          "name": "cardId",
          "type": "string"
        },
        {
          "indexed": false,
          "internalType": "address",
          "name": "holder",
          "type": "address"
        },
        {
          "indexed": false,
          "internalType": "uint256",
          "name": "amount",
          "type": "uint256"
        }
      ],
      "name": "Withdraw",
      "type": "event"
    },
    {
      "inputs": [],
      "name": "CONTROLLER_ROLE",
      "outputs": [
        {
          "internalType": "bytes32",
          "name": "",
          "type": "bytes32"
        }
      ],
      "stateMutability": "view",
      "type": "function"
    },
    {
      "inputs": [],
      "name": "DEFAULT_ADMIN_ROLE",
      "outputs": [
        {
          "internalType": "bytes32",
          "name": "",
          "type": "bytes32"
        }
      ],
      "stateMutability": "view",
      "type": "function"
    },
    {
      "inputs": [],
      "name": "UNICARD_CV_PROXY_ROLE",
      "outputs": [
        {
          "internalType": "bytes32",
          "name": "",
          "type": "bytes32"
        }
      ],
      "stateMutability": "view",
      "type": "function"
    },
    {
      "inputs": [
        {
          "internalType": "string",
          "name": "cardId",
          "type": "string"
        }
      ],
      "name": "cardAccounts",
      "outputs": [
        {
          "components": [
            {
              "internalType": "address",
              "name": "holder",
              "type": "address"
            },
            {
              "internalType": "uint256",
              "name": "balance",
              "type": "uint256"
            },
            {
              "internalType": "bool",
              "name": "initialized",
              "type": "bool"
            }
          ],
          "internalType": "struct IUniCardVault.Account",
          "name": "",
          "type": "tuple"
        }
      ],
      "stateMutability": "view",
      "type": "function"
    },
    {
      "inputs": [
        {
          "internalType": "string",
          "name": "cardId",
          "type": "string"
        },
        {
          "internalType": "uint256",
          "name": "amount",
          "type": "uint256"
        }
      ],
      "name": "deposit",
      "outputs": [],
      "stateMutability": "nonpayable",
      "type": "function"
    },
    {
      "inputs": [
        {
          "internalType": "string",
          "name": "cardId",
          "type": "string"
        },
        {
          "internalType": "address",
          "name": "holder",
          "type": "address"
        },
        {
          "internalType": "uint256",
          "name": "amount",
          "type": "uint256"
        }
      ],
      "name": "depositFor",
      "outputs": [],
      "stateMutability": "nonpayable",
      "type": "function"
    },
    {
      "inputs": [
        {
          "internalType": "string",
          "name": "cardId",
          "type": "string"
        }
      ],
      "name": "emergencyWithdraw",
      "outputs": [],
      "stateMutability": "nonpayable",
      "type": "function"
    },
    {
      "inputs": [
        {
          "internalType": "bytes32",
          "name": "role",
          "type": "bytes32"
        }
      ],
      "name": "getRoleAdmin",
      "outputs": [
        {
          "internalType": "bytes32",
          "name": "",
          "type": "bytes32"
        }
      ],
      "stateMutability": "view",
      "type": "function"
    },
    {
      "inputs": [
        {
          "internalType": "bytes32",
          "name": "role",
          "type": "bytes32"
        },
        {
          "internalType": "address",
          "name": "account",
          "type": "address"
        }
      ],
      "name": "grantRole",
      "outputs": [],
      "stateMutability": "nonpayable",
      "type": "function"
    },
    {
      "inputs": [
        {
          "internalType": "bytes32",
          "name": "role",
          "type": "bytes32"
        },
        {
          "internalType": "address",
          "name": "account",
          "type": "address"
        }
      ],
      "name": "hasRole",
      "outputs": [
        {
          "internalType": "bool",
          "name": "",
          "type": "bool"
        }
      ],
      "stateMutability": "view",
      "type": "function"
    },
    {
      "inputs": [
        {
          "internalType": "address",
          "name": "anAdmin",
          "type": "address"
        },
        {
          "internalType": "address",
          "name": "anUsdu",
          "type": "address"
        }
      ],
      "name": "initialize",
      "outputs": [],
      "stateMutability": "nonpayable",
      "type": "function"
    },
    {
      "inputs": [],
      "name": "paused",
      "outputs": [
        {
          "internalType": "bool",
          "name": "",
          "type": "bool"
        }
      ],
      "stateMutability": "view",
      "type": "function"
    },
    {
      "inputs": [
        {
          "internalType": "bytes32",
          "name": "role",
          "type": "bytes32"
        },
        {
          "internalType": "address",
          "name": "callerConfirmation",
          "type": "address"
        }
      ],
      "name": "renounceRole",
      "outputs": [],
      "stateMutability": "nonpayable",
      "type": "function"
    },
    {
      "inputs": [
        {
          "internalType": "bytes32",
          "name": "role",
          "type": "bytes32"
        },
        {
          "internalType": "address",
          "name": "account",
          "type": "address"
        }
      ],
      "name": "revokeRole",
      "outputs": [],
      "stateMutability": "nonpayable",
      "type": "function"
    },
    {
      "inputs": [
        {
          "internalType": "bytes4",
          "name": "interfaceId",
          "type": "bytes4"
        }
      ],
      "name": "supportsInterface",
      "outputs": [
        {
          "internalType": "bool",
          "name": "",
          "type": "bool"
        }
      ],
      "stateMutability": "view",
      "type": "function"
    },
    {
      "inputs": [
        {
          "internalType": "bool",
          "name": "enablePauseOrNot",
          "type": "bool"
        }
      ],
      "name": "togglePause",
      "outputs": [],
      "stateMutability": "nonpayable",
      "type": "function"
    },
    {
      "inputs": [
        {
          "internalType": "address",
          "name": "newUsdu",
          "type": "address"
        }
      ],
      "name": "updateUsdu",
      "outputs": [],
      "stateMutability": "nonpayable",
      "type": "function"
    },
    {
      "inputs": [],
      "name": "usdu",
      "outputs": [
        {
          "internalType": "address",
          "name": "",
          "type": "address"
        }
      ],
      "stateMutability": "view",
      "type": "function"
    },
    {
      "inputs": [
        {
          "internalType": "string",
          "name": "cardId",
          "type": "string"
        },
        {
          "internalType": "uint256",
          "name": "amount",
          "type": "uint256"
        }
      ],
      "name": "withdraw",
      "outputs": [],
      "stateMutability": "nonpayable",
      "type": "function"
    }
  ],
  "transactionHash": "0x954d60799b57b4483c65f4c82cf1e71a537dc836d4a225bea0741ea5bb40c3a6",
  "args": [],
  "numDeployments": 2,
  "solcInputHash": "5ee55f1270b390249779ecf43ff0cc5b",
  "bytecode": "0x608060405234801561001057600080fd5b5061001961001e565b6100d0565b7ff0c57e16840df040f15088dc2f81fe391c3923bec73e23a9662efc9c229c6a00805468010000000000000000900460ff161561006e5760405163f92ee8a960e01b815260040160405180910390fd5b80546001600160401b03908116146100cd5780546001600160401b0319166001600160401b0390811782556040519081527fc7f505b2f371ae2175ee4913f4499e1f2633a7b5936321eed1cdaeb6115181d29060200160405180910390a15b50565b611774806100df6000396000f3fe608060405234801561001057600080fd5b50600436106101215760003560e01c806357d159c6116100ad57806391d148541161007157806391d14854146102c9578063a217fddf1461030f578063cc47a89e14610317578063d547741f1461032a578063e2b8eabd1461033d57600080fd5b806357d159c61461023b5780635c975abb1461024e578063751be4df146102785780638b538cd3146102a35780638e27d719146102b657600080fd5b806330b39a62116100f457806330b39a62146101c857806336568abe146101db578063485cc955146101ee5780634ee527a3146102015780634ff55c931461021457600080fd5b806301ffc9a714610126578063092c5b3b1461014e578063248a9ca3146101835780632f2ff15d146101b3575b600080fd5b6101396101343660046113ec565b61037d565b60405190151581526020015b60405180910390f35b6101757f7b765e0e932d348852a6f810bfa1ab891e259123f02db8cdcde614c57022335781565b604051908152602001610145565b610175610191366004611416565b6000908152600080516020611748833981519152602052604090206001015490565b6101c66101c136600461144b565b6103b4565b005b6101c66101d636600461151a565b6103ec565b6101c66101e936600461144b565b6105d3565b6101c66101fc36600461155f565b61060b565b6101c661020f366004611589565b6107e6565b6101757f5fe9aebae54f55d4cc0d1aa06029f29662871d227bf25c3705640892c874add581565b6101c66102493660046115d4565b610949565b7fcd5ed15c6e187e77e9aee88184c21f4f2182ab5827cb3b7e07fbedcd63f033005460ff16610139565b60005461028b906001600160a01b031681565b6040516001600160a01b039091168152602001610145565b6101c66102b13660046115f1565b6109c8565b6101c66102c436600461151a565b610a40565b6101396102d736600461144b565b6000918252600080516020611748833981519152602090815260408084206001600160a01b0393909316845291905290205460ff1690565b610175600081565b6101c661032536600461160c565b610a9c565b6101c661033836600461144b565b610b0b565b61035061034b366004611589565b610b3d565b6040805182516001600160a01b031681526020808401519082015291810151151590820152606001610145565b60006001600160e01b03198216637965db0b60e01b14806103ae57506301ffc9a760e01b6001600160e01b03198316145b92915050565b600082815260008051602061174883398151915260205260409020600101546103dc81610bab565b6103e68383610bb8565b50505050565b6103f4610c75565b6103fc610cbf565b815160000361041e57604051633cf0954d60e11b815260040160405180910390fd5b60018260405161042e9190611687565b9081526040519081900360200190206002015460ff166104615760405163c8d5578160e01b815260040160405180910390fd5b806001836040516104729190611687565b90815260200160405180910390206001015410156104a357604051633554ba4160e01b815260040160405180910390fd5b336001600160a01b03166001836040516104bd9190611687565b908152604051908190036020019020546001600160a01b0316146104f457604051633801d5e760e11b815260040160405180910390fd5b61050c335b6000546001600160a01b03169083610d04565b8060018360405161051d9190611687565b9081526020016040518091039020600101600082825461053d91906116b9565b925050819055507f7a5e5c901f9da945e2028bd646eb1f6842dff416e862cfa502e0d3408635143a826001846040516105769190611687565b9081526040519081900360200181205461059e92916001600160a01b039091169085906116cc565b60405180910390a16105cf60017f9b779b17422d0df92223018b32b4d1fa46e071723d6817e2486d003becc55f0055565b5050565b6001600160a01b03811633146105fc5760405163334bd91960e11b815260040160405180910390fd5b6106068282610d9e565b505050565b7ff0c57e16840df040f15088dc2f81fe391c3923bec73e23a9662efc9c229c6a00805468010000000000000000810460ff16159067ffffffffffffffff166000811580156106565750825b905060008267ffffffffffffffff1660011480156106735750303b155b905081158015610681575080155b1561069f5760405163f92ee8a960e01b815260040160405180910390fd5b845467ffffffffffffffff1916600117855583156106d357845468ff00000000000000001916680100000000000000001785555b6106db610e32565b6106e3610e3a565b6106eb610e4a565b600080546001600160a01b0319166001600160a01b0388161781556107109088610bb8565b5061073b7f7b765e0e932d348852a6f810bfa1ab891e259123f02db8cdcde614c57022335788610bb8565b506107677f7b765e0e932d348852a6f810bfa1ab891e259123f02db8cdcde614c5702233576000610e5a565b6107927f5fe9aebae54f55d4cc0d1aa06029f29662871d227bf25c3705640892c874add56000610e5a565b83156107dd57845468ff000000000000000019168555604051600181527fc7f505b2f371ae2175ee4913f4499e1f2633a7b5936321eed1cdaeb6115181d29060200160405180910390a15b50505050505050565b60006107f181610bab565b815160000361081357604051633cf0954d60e11b815260040160405180910390fd5b6001826040516108239190611687565b9081526040519081900360200190206002015460ff166108565760405163c8d5578160e01b815260040160405180910390fd5b60006001836040516108689190611687565b9081526020016040518091039020600101549050600060018460405161088e9190611687565b90815260200160405180910390206001018190555060006001846040516108b59190611687565b908152604051908190036020019020600201805491151560ff199092169190911790556108e26104f93390565b7fbaed80e0286bf961ebc8227518d5bdf5094889d2badfdc96e22cb5c1b56e8e4d836001856040516109149190611687565b9081526040519081900360200181205461093c92916001600160a01b039091169085906116cc565b60405180910390a1505050565b7f7b765e0e932d348852a6f810bfa1ab891e259123f02db8cdcde614c57022335761097381610bab565b811561098657610981610eda565b61098e565b61098e610f4f565b60405182151581527ff8cec1b05ef1ff4ed57b2ab252020e10315146c455d9d966e5eb2dbc7f327221906020015b60405180910390a15050565b7f7b765e0e932d348852a6f810bfa1ab891e259123f02db8cdcde614c5702233576109f281610bab565b600080546001600160a01b0319166001600160a01b0384169081179091556040519081527f05522ae9e8ea4d882a599fab4ac6b509b3b7e2ee0738bb76cce5a12696249196906020016109bc565b610a48610c75565b610a50610cbf565b610a68336000546001600160a01b0316903084610fa7565b610a73823383610fe0565b6105cf60017f9b779b17422d0df92223018b32b4d1fa46e071723d6817e2486d003becc55f0055565b610aa4610c75565b610aac610cbf565b7f5fe9aebae54f55d4cc0d1aa06029f29662871d227bf25c3705640892c874add5610ad681610bab565b610ae1848484610fe0565b5061060660017f9b779b17422d0df92223018b32b4d1fa46e071723d6817e2486d003becc55f0055565b60008281526000805160206117488339815191526020526040902060010154610b3381610bab565b6103e68383610d9e565b60408051606081018252600080825260208201819052818301529051600190610b67908490611687565b90815260408051918290036020908101832060608401835280546001600160a01b031684526001810154918401919091526002015460ff1615159082015292915050565b610bb58133611120565b50565b6000828152600080516020611748833981519152602081815260408084206001600160a01b038616855290915282205460ff16610c6b576000848152602082815260408083206001600160a01b03871684529091529020805460ff19166001179055610c213390565b6001600160a01b0316836001600160a01b0316857f2f8788117e7eff1d82e926ec794901d17c78024a50270940304540a733656f0d60405160405180910390a460019150506103ae565b60009150506103ae565b7f9b779b17422d0df92223018b32b4d1fa46e071723d6817e2486d003becc55f00805460011901610cb957604051633ee5aeb560e01b815260040160405180910390fd5b60029055565b7fcd5ed15c6e187e77e9aee88184c21f4f2182ab5827cb3b7e07fbedcd63f033005460ff1615610d025760405163d93c066560e01b815260040160405180910390fd5b565b6040516001600160a01b0383811660248301526044820183905261060691859182169063a9059cbb906064015b604051602081830303815290604052915060e01b6020820180517bffffffffffffffffffffffffffffffffffffffffffffffffffffffff8381831617835250505050611187565b60017f9b779b17422d0df92223018b32b4d1fa46e071723d6817e2486d003becc55f0055565b6000828152600080516020611748833981519152602081815260408084206001600160a01b038616855290915282205460ff1615610c6b576000848152602082815260408083206001600160a01b0387168085529252808320805460ff1916905551339287917ff6391f5c32d9c69d2a47ea670b442974b53935d1edc7fd64eb21e047a839171b9190a460019150506103ae565b610d026111ea565b610e426111ea565b610d02611238565b610e526111ea565b610d02611240565b6000805160206117488339815191526000610e91846000908152600080516020611748833981519152602052604090206001015490565b600085815260208490526040808220600101869055519192508491839187917fbd79b86ffe0ab8e8776151514217cd7cacd52c909f66475c3af44e129f0b00ff9190a450505050565b610ee2610cbf565b7fcd5ed15c6e187e77e9aee88184c21f4f2182ab5827cb3b7e07fbedcd63f03300805460ff191660011781557f62e78cea01bee320cd4e420270b5ea74000d11b0c9f74754ebdbfc544b05a258335b6040516001600160a01b03909116815260200160405180910390a150565b610f57611273565b7fcd5ed15c6e187e77e9aee88184c21f4f2182ab5827cb3b7e07fbedcd63f03300805460ff191681557f5db9ee0a495bf2e6ff9c91a7834c1ba4fdd244a5e8aa4e537bd38aeae4b073aa33610f31565b6040516001600160a01b0384811660248301528381166044830152606482018390526103e69186918216906323b872dd90608401610d31565b825160000361100257604051633cf0954d60e11b815260040160405180910390fd5b6001836040516110129190611687565b9081526040519081900360200190206002015460ff166110b7576040518060600160405280836001600160a01b03168152602001828152602001600115158152506001846040516110639190611687565b9081526040805160209281900383019020835181546001600160a01b0319166001600160a01b0390911617815591830151600183015591909101516002909101805460ff19169115159190911790556110ee565b806001846040516110c89190611687565b908152602001604051809103902060010160008282546110e89190611717565b90915550505b7fd327b35e36b3981157588978d60961f5c09dc2926008abb81dd77b1197a416ed836001856040516109149190611687565b6000828152600080516020611748833981519152602090815260408083206001600160a01b038516845290915290205460ff166105cf5760405163e2517d3f60e01b81526001600160a01b0382166004820152602481018390526044015b60405180910390fd5b600061119c6001600160a01b038416836112b5565b905080516000141580156111c15750808060200190518101906111bf919061172a565b155b1561060657604051635274afe760e01b81526001600160a01b038416600482015260240161117e565b7ff0c57e16840df040f15088dc2f81fe391c3923bec73e23a9662efc9c229c6a005468010000000000000000900460ff16610d0257604051631afcd79f60e31b815260040160405180910390fd5b610d786111ea565b6112486111ea565b7fcd5ed15c6e187e77e9aee88184c21f4f2182ab5827cb3b7e07fbedcd63f03300805460ff19169055565b7fcd5ed15c6e187e77e9aee88184c21f4f2182ab5827cb3b7e07fbedcd63f033005460ff16610d0257604051638dfc202b60e01b815260040160405180910390fd5b60606112c3838360006112ca565b9392505050565b6060814710156112ef5760405163cd78605960e01b815230600482015260240161117e565b600080856001600160a01b0316848660405161130b9190611687565b60006040518083038185875af1925050503d8060008114611348576040519150601f19603f3d011682016040523d82523d6000602084013e61134d565b606091505b509150915061135d868383611367565b9695505050505050565b60608261137c57611377826113c3565b6112c3565b815115801561139357506001600160a01b0384163b155b156113bc57604051639996b31560e01b81526001600160a01b038516600482015260240161117e565b50806112c3565b8051156113d35780518082602001fd5b604051630a12f52160e11b815260040160405180910390fd5b6000602082840312156113fe57600080fd5b81356001600160e01b0319811681146112c357600080fd5b60006020828403121561142857600080fd5b5035919050565b80356001600160a01b038116811461144657600080fd5b919050565b6000806040838503121561145e57600080fd5b8235915061146e6020840161142f565b90509250929050565b634e487b7160e01b600052604160045260246000fd5b600082601f83011261149e57600080fd5b813567ffffffffffffffff808211156114b9576114b9611477565b604051601f8301601f19908116603f011681019082821181831017156114e1576114e1611477565b816040528381528660208588010111156114fa57600080fd5b836020870160208301376000602085830101528094505050505092915050565b6000806040838503121561152d57600080fd5b823567ffffffffffffffff81111561154457600080fd5b6115508582860161148d565b95602094909401359450505050565b6000806040838503121561157257600080fd5b61157b8361142f565b915061146e6020840161142f565b60006020828403121561159b57600080fd5b813567ffffffffffffffff8111156115b257600080fd5b6115be8482850161148d565b949350505050565b8015158114610bb557600080fd5b6000602082840312156115e657600080fd5b81356112c3816115c6565b60006020828403121561160357600080fd5b6112c38261142f565b60008060006060848603121561162157600080fd5b833567ffffffffffffffff81111561163857600080fd5b6116448682870161148d565b9350506116536020850161142f565b9150604084013590509250925092565b60005b8381101561167e578181015183820152602001611666565b50506000910152565b60008251611699818460208701611663565b9190910192915050565b634e487b7160e01b600052601160045260246000fd5b818103818111156103ae576103ae6116a3565b60608152600084518060608401526116eb816080850160208901611663565b6001600160a01b039490941660208301525060408101919091526080601f909201601f19160101919050565b808201808211156103ae576103ae6116a3565b60006020828403121561173c57600080fd5b81516112c3816115c656fe02dd7bc7dec4dceedda775e58dd541e08a116c6c53815c0bd028192f7b626800a164736f6c6343000814000a",
  "devdoc": {
    "errors": {
      "AccessControlBadConfirmation()": [
        {
          "details": "The caller of a function is not the expected one. NOTE: Don't confuse with {AccessControlUnauthorizedAccount}."
        }
      ],
      "AccessControlUnauthorizedAccount(address,bytes32)": [
        {
          "details": "The `account` is missing a role."
        }
      ],
      "AddressEmptyCode(address)": [
        {
          "details": "There's no code at `target` (it is not a contract)."
        }
      ],
      "AddressInsufficientBalance(address)": [
        {
          "details": "The ETH balance of the account is not enough to perform the operation."
        }
      ],
      "EnforcedPause()": [
        {
          "details": "The operation failed because the contract is paused."
        }
      ],
      "ExpectedPause()": [
        {
          "details": "The operation failed because the contract is not paused."
        }
      ],
      "FailedInnerCall()": [
        {
          "details": "A call to an address target failed. The target may have reverted."
        }
      ],
      "InvalidInitialization()": [
        {
          "details": "The contract is already initialized."
        }
      ],
      "NotInitializing()": [
        {
          "details": "The contract is not initializing."
        }
      ],
      "ReentrancyGuardReentrantCall()": [
        {
          "details": "Unauthorized reentrant call."
        }
      ],
      "SafeERC20FailedOperation(address)": [
        {
          "details": "An operation with an ERC20 token failed."
        }
      ]
    },
    "events": {
      "Initialized(uint64)": {
        "details": "Triggered when the contract has been initialized or reinitialized."
      },
      "Paused(address)": {
        "details": "Emitted when the pause is triggered by `account`."
      },
      "RoleAdminChanged(bytes32,bytes32,bytes32)": {
        "details": "Emitted when `newAdminRole` is set as ``role``'s admin role, replacing `previousAdminRole` `DEFAULT_ADMIN_ROLE` is the starting admin for all roles, despite {RoleAdminChanged} not being emitted signaling this."
      },
      "RoleGranted(bytes32,address,address)": {
        "details": "Emitted when `account` is granted `role`. `sender` is the account that originated the contract call, an admin role bearer except when using {AccessControl-_setupRole}."
      },
      "RoleRevoked(bytes32,address,address)": {
        "details": "Emitted when `account` is revoked `role`. `sender` is the account that originated the contract call:   - if using `revokeRole`, it is the admin role bearer   - if using `renounceRole`, it is the role bearer (i.e. `account`)"
      },
      "Unpaused(address)": {
        "details": "Emitted when the pause is lifted by `account`."
      }
    },
    "kind": "dev",
    "methods": {
      "constructor": {
        "custom:oz-upgrades-unsafe-allow": "constructor"
      },
      "getRoleAdmin(bytes32)": {
        "details": "Returns the admin role that controls `role`. See {grantRole} and {revokeRole}. To change a role's admin, use {_setRoleAdmin}."
      },
      "grantRole(bytes32,address)": {
        "details": "Grants `role` to `account`. If `account` had not been already granted `role`, emits a {RoleGranted} event. Requirements: - the caller must have ``role``'s admin role. May emit a {RoleGranted} event."
      },
      "hasRole(bytes32,address)": {
        "details": "Returns `true` if `account` has been granted `role`."
      },
      "paused()": {
        "details": "Returns true if the contract is paused, and false otherwise."
      },
      "renounceRole(bytes32,address)": {
        "details": "Revokes `role` from the calling account. Roles are often managed via {grantRole} and {revokeRole}: this function's purpose is to provide a mechanism for accounts to lose their privileges if they are compromised (such as when a trusted device is misplaced). If the calling account had been revoked `role`, emits a {RoleRevoked} event. Requirements: - the caller must be `callerConfirmation`. May emit a {RoleRevoked} event."
      },
      "revokeRole(bytes32,address)": {
        "details": "Revokes `role` from `account`. If `account` had been granted `role`, emits a {RoleRevoked} event. Requirements: - the caller must have ``role``'s admin role. May emit a {RoleRevoked} event."
      },
      "supportsInterface(bytes4)": {
        "details": "See {IERC165-supportsInterface}."
      }
    },
    "version": 1
  },
  "userdoc": {
    "kind": "user",
    "methods": {},
    "version": 1
  },
  "storageLayout": {
    "storage": [
      {
        "astId": 14849,
        "contract": "src/core/UniCardVault.sol:UniCardVault",
        "label": "usdu",
        "offset": 0,
        "slot": "0",
        "type": "t_address"
      },
      {
        "astId": 14854,
        "contract": "src/core/UniCardVault.sol:UniCardVault",
        "label": "_cardAccounts",
        "offset": 0,
        "slot": "1",
        "type": "t_mapping(t_string_memory_ptr,t_struct(Account)15378_storage)"
      }
    ],
    "types": {
      "t_address": {
        "encoding": "inplace",
        "label": "address",
        "numberOfBytes": "20"
      },
      "t_bool": {
        "encoding": "inplace",
        "label": "bool",
        "numberOfBytes": "1"
      },
      "t_mapping(t_string_memory_ptr,t_struct(Account)15378_storage)": {
        "encoding": "mapping",
        "key": "t_string_memory_ptr",
        "label": "mapping(string => struct IUniCardVault.Account)",
        "numberOfBytes": "32",
        "value": "t_struct(Account)15378_storage"
      },
      "t_string_memory_ptr": {
        "encoding": "bytes",
        "label": "string",
        "numberOfBytes": "32"
      },
      "t_struct(Account)15378_storage": {
        "encoding": "inplace",
        "label": "struct IUniCardVault.Account",
        "members": [
          {
            "astId": 15373,
            "contract": "src/core/UniCardVault.sol:UniCardVault",
            "label": "holder",
            "offset": 0,
            "slot": "0",
            "type": "t_address"
          },
          {
            "astId": 15375,
            "contract": "src/core/UniCardVault.sol:UniCardVault",
            "label": "balance",
            "offset": 0,
            "slot": "1",
            "type": "t_uint256"
          },
          {
            "astId": 15377,
            "contract": "src/core/UniCardVault.sol:UniCardVault",
            "label": "initialized",
            "offset": 0,
            "slot": "2",
            "type": "t_bool"
          }
        ],
        "numberOfBytes": "96"
      },
      "t_uint256": {
        "encoding": "inplace",
        "label": "uint256",
        "numberOfBytes": "32"
      }
    }
  }
}