{
  "address": "0x0315b0b7c61Fa0Ae01770ED833f5304aC8dD0e33",
  "abi": [
    {
      "inputs": [],
      "stateMutability": "nonpayable",
      "type": "constructor"
    },
    {
      "inputs": [],
      "name": "AccessControlBadConfirmation",
      "type": "error"
    },
    {
      "inputs": [
        {
          "internalType": "address",
          "name": "account",
          "type": "address"
        },
        {
          "internalType": "bytes32",
          "name": "neededRole",
          "type": "bytes32"
        }
      ],
      "name": "AccessControlUnauthorizedAccount",
      "type": "error"
    },
    {
      "inputs": [],
      "name": "EnforcedPause",
      "type": "error"
    },
    {
      "inputs": [],
      "name": "ExpectedPause",
      "type": "error"
    },
    {
      "inputs": [],
      "name": "InvalidInitialization",
      "type": "error"
    },
    {
      "inputs": [],
      "name": "NotInitializing",
      "type": "error"
    },
    {
      "inputs": [],
      "name": "ReentrancyGuardReentrantCall",
      "type": "error"
    },
    {
      "inputs": [
        {
          "internalType": "address",
          "name": "token",
          "type": "address"
        }
      ],
      "name": "SafeERC20FailedOperation",
      "type": "error"
    },
    {
      "inputs": [],
      "name": "UNICARD_COLLATERAL_DEBT_REDUCTION_EXCEEDS_CURRENT_DEBT",
      "type": "error"
    },
    {
      "inputs": [],
      "name": "UNICARD_COLLATERAL_ETH_NOT_NEEDED",
      "type": "error"
    },
    {
      "inputs": [],
      "name": "UNICARD_COLLATERAL_EXCEEDS_ETH_VALUE",
      "type": "error"
    },
    {
      "inputs": [],
      "name": "UNICARD_COLLATERAL_INSUFFICIENT_COLLATERAL",
      "type": "error"
    },
    {
      "inputs": [],
      "name": "UNICARD_COLLATERAL_INSUFFICIENT_COLLATERAL_RATIO",
      "type": "error"
    },
    {
      "inputs": [],
      "name": "UNICARD_COLLATERAL_INVALID_ETH_AMOUNT",
      "type": "error"
    },
    {
      "inputs": [],
      "name": "UNICARD_COLLATERAL_INVALID_REPAY_TOKEN",
      "type": "error"
    },
    {
      "anonymous": false,
      "inputs": [
        {
          "indexed": false,
          "internalType": "address",
          "name": "holder",
          "type": "address"
        },
        {
          "indexed": false,
          "internalType": "uint256",
          "name": "collateralAmount",
          "type": "uint256"
        },
        {
          "indexed": false,
          "internalType": "bool",
          "name": "isCollateralIncrease",
          "type": "bool"
        },
        {
          "indexed": false,
          "internalType": "uint256",
          "name": "debtAmount",
          "type": "uint256"
        },
        {
          "indexed": false,
          "internalType": "bool",
          "name": "isDebtIncrease",
          "type": "bool"
        },
        {
          "indexed": false,
          "internalType": "address",
          "name": "repayToken",
          "type": "address"
        }
      ],
      "name": "CollateralAdjusted",
      "type": "event"
    },
    {
      "anonymous": false,
      "inputs": [
        {
          "indexed": false,
          "internalType": "uint64",
          "name": "version",
          "type": "uint64"
        }
      ],
      "name": "Initialized",
      "type": "event"
    },
    {
      "anonymous": false,
      "inputs": [
        {
          "indexed": false,
          "internalType": "address",
          "name": "account",
          "type": "address"
        }
      ],
      "name": "Paused",
      "type": "event"
    },
    {
      "anonymous": false,
      "inputs": [
        {
          "indexed": false,
          "internalType": "address",
          "name": "newPriceFeed",
          "type": "address"
        }
      ],
      "name": "PriceFeedUpdated",
      "type": "event"
    },
    {
      "anonymous": false,
      "inputs": [
        {
          "indexed": true,
          "internalType": "bytes32",
          "name": "role",
          "type": "bytes32"
        },
        {
          "indexed": true,
          "internalType": "bytes32",
          "name": "previousAdminRole",
          "type": "bytes32"
        },
        {
          "indexed": true,
          "internalType": "bytes32",
          "name": "newAdminRole",
          "type": "bytes32"
        }
      ],
      "name": "RoleAdminChanged",
      "type": "event"
    },
    {
      "anonymous": false,
      "inputs": [
        {
          "indexed": true,
          "internalType": "bytes32",
          "name": "role",
          "type": "bytes32"
        },
        {
          "indexed": true,
          "internalType": "address",
          "name": "account",
          "type": "address"
        },
        {
          "indexed": true,
          "internalType": "address",
          "name": "sender",
          "type": "address"
        }
      ],
      "name": "RoleGranted",
      "type": "event"
    },
    {
      "anonymous": false,
      "inputs": [
        {
          "indexed": true,
          "internalType": "bytes32",
          "name": "role",
          "type": "bytes32"
        },
        {
          "indexed": true,
          "internalType": "address",
          "name": "account",
          "type": "address"
        },
        {
          "indexed": true,
          "internalType": "address",
          "name": "sender",
          "type": "address"
        }
      ],
      "name": "RoleRevoked",
      "type": "event"
    },
    {
      "anonymous": false,
      "inputs": [
        {
          "indexed": false,
          "internalType": "bool",
          "name": "isPaused",
          "type": "bool"
        }
      ],
      "name": "TogglePause",
      "type": "event"
    },
    {
      "anonymous": false,
      "inputs": [
        {
          "indexed": false,
          "internalType": "address",
          "name": "account",
          "type": "address"
        }
      ],
      "name": "Unpaused",
      "type": "event"
    },
    {
      "anonymous": false,
      "inputs": [
        {
          "indexed": false,
          "internalType": "address",
          "name": "newUsdu",
          "type": "address"
        }
      ],
      "name": "UsduUpdated",
      "type": "event"
    },
    {
      "inputs": [],
      "name": "ALLOWED_REPAY_TOKEN",
      "outputs": [
        {
          "internalType": "bytes32",
          "name": "",
          "type": "bytes32"
        }
      ],
      "stateMutability": "view",
      "type": "function"
    },
    {
      "inputs": [],
      "name": "CONTROLLER_ROLE",
      "outputs": [
        {
          "internalType": "bytes32",
          "name": "",
          "type": "bytes32"
        }
      ],
      "stateMutability": "view",
      "type": "function"
    },
    {
      "inputs": [],
      "name": "DEFAULT_ADMIN_ROLE",
      "outputs": [
        {
          "internalType": "bytes32",
          "name": "",
          "type": "bytes32"
        }
      ],
      "stateMutability": "view",
      "type": "function"
    },
    {
      "inputs": [],
      "name": "MIN_COLLATERAL_RATIO",
      "outputs": [
        {
          "internalType": "uint256",
          "name": "",
          "type": "uint256"
        }
      ],
      "stateMutability": "view",
      "type": "function"
    },
    {
      "inputs": [],
      "name": "NATIVE_TOKEN",
      "outputs": [
        {
          "internalType": "address",
          "name": "",
          "type": "address"
        }
      ],
      "stateMutability": "view",
      "type": "function"
    },
    {
      "inputs": [],
      "name": "UNICARD_CV_PROXY_ROLE",
      "outputs": [
        {
          "internalType": "bytes32",
          "name": "",
          "type": "bytes32"
        }
      ],
      "stateMutability": "view",
      "type": "function"
    },
    {
      "inputs": [
        {
          "internalType": "uint256",
          "name": "debtAmount",
          "type": "uint256"
        }
      ],
      "name": "borrow",
      "outputs": [],
      "stateMutability": "payable",
      "type": "function"
    },
    {
      "inputs": [
        {
          "internalType": "address",
          "name": "holder",
          "type": "address"
        },
        {
          "internalType": "uint256",
          "name": "debtAmount",
          "type": "uint256"
        }
      ],
      "name": "borrowFor",
      "outputs": [],
      "stateMutability": "payable",
      "type": "function"
    },
    {
      "inputs": [
        {
          "internalType": "address",
          "name": "",
          "type": "address"
        }
      ],
      "name": "collaterals",
      "outputs": [
        {
          "internalType": "uint256",
          "name": "",
          "type": "uint256"
        }
      ],
      "stateMutability": "view",
      "type": "function"
    },
    {
      "inputs": [
        {
          "internalType": "address",
          "name": "",
          "type": "address"
        }
      ],
      "name": "debts",
      "outputs": [
        {
          "internalType": "uint256",
          "name": "",
          "type": "uint256"
        }
      ],
      "stateMutability": "view",
      "type": "function"
    },
    {
      "inputs": [
        {
          "internalType": "bytes32",
          "name": "role",
          "type": "bytes32"
        }
      ],
      "name": "getRoleAdmin",
      "outputs": [
        {
          "internalType": "bytes32",
          "name": "",
          "type": "bytes32"
        }
      ],
      "stateMutability": "view",
      "type": "function"
    },
    {
      "inputs": [
        {
          "internalType": "bytes32",
          "name": "role",
          "type": "bytes32"
        },
        {
          "internalType": "address",
          "name": "account",
          "type": "address"
        }
      ],
      "name": "grantRole",
      "outputs": [],
      "stateMutability": "nonpayable",
      "type": "function"
    },
    {
      "inputs": [
        {
          "internalType": "bytes32",
          "name": "role",
          "type": "bytes32"
        },
        {
          "internalType": "address",
          "name": "account",
          "type": "address"
        }
      ],
      "name": "hasRole",
      "outputs": [
        {
          "internalType": "bool",
          "name": "",
          "type": "bool"
        }
      ],
      "stateMutability": "view",
      "type": "function"
    },
    {
      "inputs": [
        {
          "internalType": "address",
          "name": "anAdmin",
          "type": "address"
        },
        {
          "internalType": "address",
          "name": "anUsdu",
          "type": "address"
        },
        {
          "internalType": "address",
          "name": "aPriceFeed",
          "type": "address"
        }
      ],
      "name": "initialize",
      "outputs": [],
      "stateMutability": "nonpayable",
      "type": "function"
    },
    {
      "inputs": [],
      "name": "paused",
      "outputs": [
        {
          "internalType": "bool",
          "name": "",
          "type": "bool"
        }
      ],
      "stateMutability": "view",
      "type": "function"
    },
    {
      "inputs": [],
      "name": "priceFeed",
      "outputs": [
        {
          "internalType": "contract IPriceFeed",
          "name": "",
          "type": "address"
        }
      ],
      "stateMutability": "view",
      "type": "function"
    },
    {
      "inputs": [
        {
          "internalType": "bytes32",
          "name": "role",
          "type": "bytes32"
        },
        {
          "internalType": "address",
          "name": "callerConfirmation",
          "type": "address"
        }
      ],
      "name": "renounceRole",
      "outputs": [],
      "stateMutability": "nonpayable",
      "type": "function"
    },
    {
      "inputs": [
        {
          "internalType": "address",
          "name": "repayToken",
          "type": "address"
        },
        {
          "internalType": "uint256",
          "name": "repayAmount",
          "type": "uint256"
        }
      ],
      "name": "repay",
      "outputs": [],
      "stateMutability": "nonpayable",
      "type": "function"
    },
    {
      "inputs": [
        {
          "internalType": "address",
          "name": "holder",
          "type": "address"
        },
        {
          "internalType": "address",
          "name": "repayToken",
          "type": "address"
        },
        {
          "internalType": "uint256",
          "name": "repayAmount",
          "type": "uint256"
        }
      ],
      "name": "repayFor",
      "outputs": [],
      "stateMutability": "nonpayable",
      "type": "function"
    },
    {
      "inputs": [
        {
          "internalType": "bytes32",
          "name": "role",
          "type": "bytes32"
        },
        {
          "internalType": "address",
          "name": "account",
          "type": "address"
        }
      ],
      "name": "revokeRole",
      "outputs": [],
      "stateMutability": "nonpayable",
      "type": "function"
    },
    {
      "inputs": [
        {
          "internalType": "bytes4",
          "name": "interfaceId",
          "type": "bytes4"
        }
      ],
      "name": "supportsInterface",
      "outputs": [
        {
          "internalType": "bool",
          "name": "",
          "type": "bool"
        }
      ],
      "stateMutability": "view",
      "type": "function"
    },
    {
      "inputs": [
        {
          "internalType": "bool",
          "name": "enablePauseOrNot",
          "type": "bool"
        }
      ],
      "name": "togglePause",
      "outputs": [],
      "stateMutability": "nonpayable",
      "type": "function"
    },
    {
      "inputs": [
        {
          "internalType": "address",
          "name": "newPriceFeed",
          "type": "address"
        }
      ],
      "name": "updatePriceFeed",
      "outputs": [],
      "stateMutability": "nonpayable",
      "type": "function"
    },
    {
      "inputs": [
        {
          "internalType": "address",
          "name": "newUsdu",
          "type": "address"
        }
      ],
      "name": "updateUsdu",
      "outputs": [],
      "stateMutability": "nonpayable",
      "type": "function"
    },
    {
      "inputs": [],
      "name": "usdu",
      "outputs": [
        {
          "internalType": "contract IUSDU",
          "name": "",
          "type": "address"
        }
      ],
      "stateMutability": "view",
      "type": "function"
    },
    {
      "stateMutability": "payable",
      "type": "receive"
    }
  ],
  "transactionHash": "0xef20324fde246652eea43dae98ad3ee2dc2523bc4d99b6c0c2b7817fd4481aea",
  "args": [],
  "numDeployments": 2,
  "solcInputHash": "563d3a601a2226efe35f83b9f203d55d",
  "bytecode": "0x608060405234801561001057600080fd5b5061001961001e565b6100d0565b7ff0c57e16840df040f15088dc2f81fe391c3923bec73e23a9662efc9c229c6a00805468010000000000000000900460ff161561006e5760405163f92ee8a960e01b815260040160405180910390fd5b80546001600160401b03908116146100cd5780546001600160401b0319166001600160401b0390811782556040519081527fc7f505b2f371ae2175ee4913f4499e1f2633a7b5936321eed1cdaeb6115181d29060200160405180910390a15b50565b6119d4806100df6000396000f3fe60806040526004361061019a5760003560e01c8063751be4df116100e1578063a217fddf1161008a578063d547741f11610064578063d547741f1461050b578063e9a1183d1461052b578063edd1a7e31461053e578063eeb97d3b1461057257600080fd5b8063a217fddf146104c3578063c0c53b8b146104d8578063c5ebeaec146104f857600080fd5b806391d14854116100bb57806391d148541461043057806395877f7814610483578063976ce495146104a357600080fd5b8063751be4df146103d45780637a9fffb7146103f45780638b538cd31461041057600080fd5b806331f7d9641161014357806357d159c61161011d57806357d159c61461035d5780635c975abb1461037d578063741bef1a146103b457600080fd5b806331f7d964146102c957806336568abe146103095780634ff55c931461032957600080fd5b8063248a9ca311610174578063248a9ca31461023f5780632ecd4e7d1461027c5780632f2ff15d146102a957600080fd5b806301ffc9a7146101a6578063092c5b3b146101db57806322867d781461021d57600080fd5b366101a157005b600080fd5b3480156101b257600080fd5b506101c66101c13660046117a8565b61059f565b60405190151581526020015b60405180910390f35b3480156101e757600080fd5b5061020f7f7b765e0e932d348852a6f810bfa1ab891e259123f02db8cdcde614c57022335781565b6040519081526020016101d2565b34801561022957600080fd5b5061023d6102383660046117ee565b6105d6565b005b34801561024b57600080fd5b5061020f61025a366004611818565b60009081526000805160206119a8833981519152602052604090206001015490565b34801561028857600080fd5b5061020f610297366004611831565b60026020526000908152604090205481565b3480156102b557600080fd5b5061023d6102c436600461184c565b610666565b3480156102d557600080fd5b506102f173eeeeeeeeeeeeeeeeeeeeeeeeeeeeeeeeeeeeeeee81565b6040516001600160a01b0390911681526020016101d2565b34801561031557600080fd5b5061023d61032436600461184c565b61069e565b34801561033557600080fd5b5061020f7f5fe9aebae54f55d4cc0d1aa06029f29662871d227bf25c3705640892c874add581565b34801561036957600080fd5b5061023d610378366004611878565b6106d6565b34801561038957600080fd5b507fcd5ed15c6e187e77e9aee88184c21f4f2182ab5827cb3b7e07fbedcd63f033005460ff166101c6565b3480156103c057600080fd5b506001546102f1906001600160a01b031681565b3480156103e057600080fd5b506000546102f1906001600160a01b031681565b34801561040057600080fd5b5061020f670f43fc2c04ee000081565b34801561041c57600080fd5b5061023d61042b366004611831565b610755565b34801561043c57600080fd5b506101c661044b36600461184c565b60009182526000805160206119a8833981519152602090815260408084206001600160a01b0393909316845291905290205460ff1690565b34801561048f57600080fd5b5061023d61049e366004611831565b6107cd565b3480156104af57600080fd5b5061023d6104be36600461189a565b610845565b3480156104cf57600080fd5b5061020f600081565b3480156104e457600080fd5b5061023d6104f33660046118d6565b6108f7565b61023d610506366004611818565b610b0f565b34801561051757600080fd5b5061023d61052636600461184c565b610ba1565b61023d6105393660046117ee565b610bd3565b34801561054a57600080fd5b5061020f7fac7d3937b4da62230108d58326b5e0aa217caaa6e6eaccee1bf34ac0d0f0a2c081565b34801561057e57600080fd5b5061020f61058d366004611831565b60036020526000908152604090205481565b60006001600160e01b03198216637965db0b60e01b14806105d057506301ffc9a760e01b6001600160e01b03198316145b92915050565b6105de610c8c565b6105e6610cd6565b6106396040518060c0016040528060008152602001600015158152602001838152602001600015158152602001846001600160a01b031681526020016106293390565b6001600160a01b03169052610d1b565b61066260017f9b779b17422d0df92223018b32b4d1fa46e071723d6817e2486d003becc55f0055565b5050565b60008281526000805160206119a8833981519152602052604090206001015461068e8161109b565b61069883836110a5565b50505050565b6001600160a01b03811633146106c75760405163334bd91960e11b815260040160405180910390fd5b6106d18282611162565b505050565b7f7b765e0e932d348852a6f810bfa1ab891e259123f02db8cdcde614c5702233576107008161109b565b81156107135761070e6111f6565b61071b565b61071b61126b565b60405182151581527ff8cec1b05ef1ff4ed57b2ab252020e10315146c455d9d966e5eb2dbc7f327221906020015b60405180910390a15050565b7f7b765e0e932d348852a6f810bfa1ab891e259123f02db8cdcde614c57022335761077f8161109b565b600080546001600160a01b0319166001600160a01b0384169081179091556040519081527f05522ae9e8ea4d882a599fab4ac6b509b3b7e2ee0738bb76cce5a1269624919690602001610749565b7f7b765e0e932d348852a6f810bfa1ab891e259123f02db8cdcde614c5702233576107f78161109b565b600180546001600160a01b0319166001600160a01b0384169081179091556040519081527fe5b20b8497e4f3e2435ef9c20e2e26b47497ee13745ce1c681ad6640653119e690602001610749565b61084d610c8c565b7f5fe9aebae54f55d4cc0d1aa06029f29662871d227bf25c3705640892c874add56108778161109b565b61087f610cd6565b6108cd6040518060c0016040528060008152602001600015158152602001848152602001600015158152602001856001600160a01b03168152602001866001600160a01b0316815250610d1b565b506106d160017f9b779b17422d0df92223018b32b4d1fa46e071723d6817e2486d003becc55f0055565b7ff0c57e16840df040f15088dc2f81fe391c3923bec73e23a9662efc9c229c6a00805468010000000000000000810460ff16159067ffffffffffffffff166000811580156109425750825b905060008267ffffffffffffffff16600114801561095f5750303b155b90508115801561096d575080155b1561098b5760405163f92ee8a960e01b815260040160405180910390fd5b845467ffffffffffffffff1916600117855583156109bf57845468ff00000000000000001916680100000000000000001785555b6109c76112c3565b6109cf6112cb565b6109d76112db565b600080546001600160a01b03808a166001600160a01b031992831617835560018054918a1691909216179055610a0d90896110a5565b50610a387f7b765e0e932d348852a6f810bfa1ab891e259123f02db8cdcde614c570223357896110a5565b50610a647fac7d3937b4da62230108d58326b5e0aa217caaa6e6eaccee1bf34ac0d0f0a2c060006112eb565b610a8f7f7b765e0e932d348852a6f810bfa1ab891e259123f02db8cdcde614c57022335760006112eb565b610aba7f5fe9aebae54f55d4cc0d1aa06029f29662871d227bf25c3705640892c874add560006112eb565b8315610b0557845468ff000000000000000019168555604051600181527fc7f505b2f371ae2175ee4913f4499e1f2633a7b5936321eed1cdaeb6115181d29060200160405180910390a15b5050505050505050565b610b17610c8c565b610b1f610cd6565b610b756040518060c0016040528034815260200160011515815260200183815260200160011515815260200173eeeeeeeeeeeeeeeeeeeeeeeeeeeeeeeeeeeeeeee6001600160a01b031681526020016106293390565b610b9e60017f9b779b17422d0df92223018b32b4d1fa46e071723d6817e2486d003becc55f0055565b50565b60008281526000805160206119a88339815191526020526040902060010154610bc98161109b565b6106988383611162565b7f5fe9aebae54f55d4cc0d1aa06029f29662871d227bf25c3705640892c874add5610bfd8161109b565b610c05610c8c565b610c0d610cd6565b6040805160c081018252348152600160208201819052918101849052606081019190915273eeeeeeeeeeeeeeeeeeeeeeeeeeeeeeeeeeeeeeee60808201526001600160a01b03841660a0820152610c6390610d1b565b6106d160017f9b779b17422d0df92223018b32b4d1fa46e071723d6817e2486d003becc55f0055565b7f9b779b17422d0df92223018b32b4d1fa46e071723d6817e2486d003becc55f00805460011901610cd057604051633ee5aeb560e01b815260040160405180910390fd5b60029055565b7fcd5ed15c6e187e77e9aee88184c21f4f2182ab5827cb3b7e07fbedcd63f033005460ff1615610d195760405163d93c066560e01b815260040160405180910390fd5b565b610d466040518060800160405280600081526020016000815260200160008152602001600081525090565b60a0820180516001600160a01b039081166000908152600360209081526040808320549451909316825260028152919020549084015115610e835783513414610da2576040516328a2743960e01b815260040160405180910390fd5b83606001518015610db7575060008460400151115b15610e7e57600160009054906101000a90046001600160a01b03166001600160a01b0316630490be836040518163ffffffff1660e01b8152600401602060405180830381865afa158015610e0f573d6000803e3d6000fd5b505050506040513d601f19601f82011682018060405250810190610e339190611919565b80845284516000916305f5e10091610e4b9190611948565b610e55919061195f565b90508085604001511115610e7c5760405163344aca6b60e21b815260040160405180910390fd5b505b610ea2565b3415610ea25760405163afc6f3af60e01b815260040160405180910390fd5b610eb5828560000151866020015161136b565b836020018181525050610ed6818560400151866060015187608001516113b6565b6040840181905215610fab578251600003610f6557600160009054906101000a90046001600160a01b03166001600160a01b0316630490be836040518163ffffffff1660e01b8152600401602060405180830381865afa158015610f3e573d6000803e3d6000fd5b505050506040513d601f19601f82011682018060405250810190610f629190611919565b83525b610f7c83602001518460400151856000015161149d565b60608401819052670f43fc2c04ee00001115610fab5760405163ee5a629b60e01b815260040160405180910390fd5b60208084015160a0860180516001600160a01b0390811660009081526003855260408082209490945583880151925190911681526002909352912055610ff0846114ce565b60a08085015185516020808801516040808a01516060808c01516080808e015185516001600160a01b039a8b16815297880198909852941515938601939093528401521515908201529116918101919091527f7f2132b3735354c4b977a7851410c222148f7f77ee8fcd7c5c05bb86f84e724d9060c00160405180910390a150505050565b60017f9b779b17422d0df92223018b32b4d1fa46e071723d6817e2486d003becc55f0055565b610b9e813361159b565b60008281526000805160206119a8833981519152602081815260408084206001600160a01b038616855290915282205460ff16611158576000848152602082815260408083206001600160a01b03871684529091529020805460ff1916600117905561110e3390565b6001600160a01b0316836001600160a01b0316857f2f8788117e7eff1d82e926ec794901d17c78024a50270940304540a733656f0d60405160405180910390a460019150506105d0565b60009150506105d0565b60008281526000805160206119a8833981519152602081815260408084206001600160a01b038616855290915282205460ff1615611158576000848152602082815260408083206001600160a01b0387168085529252808320805460ff1916905551339287917ff6391f5c32d9c69d2a47ea670b442974b53935d1edc7fd64eb21e047a839171b9190a460019150506105d0565b6111fe610cd6565b7fcd5ed15c6e187e77e9aee88184c21f4f2182ab5827cb3b7e07fbedcd63f03300805460ff191660011781557f62e78cea01bee320cd4e420270b5ea74000d11b0c9f74754ebdbfc544b05a258335b6040516001600160a01b03909116815260200160405180910390a150565b611273611602565b7fcd5ed15c6e187e77e9aee88184c21f4f2182ab5827cb3b7e07fbedcd63f03300805460ff191681557f5db9ee0a495bf2e6ff9c91a7834c1ba4fdd244a5e8aa4e537bd38aeae4b073aa3361124d565b610d19611644565b6112d3611644565b610d19611692565b6112e3611644565b610d1961169a565b6000805160206119a883398151915260006113228460009081526000805160206119a8833981519152602052604090206001015490565b600085815260208490526040808220600101869055519192508491839187917fbd79b86ffe0ab8e8776151514217cd7cacd52c909f66475c3af44e129f0b00ff9190a450505050565b600081156113845761137d8385611981565b90506113af565b838311156113a55760405163d652467d60e01b815260040160405180910390fd5b61137d8385611994565b9392505050565b6000821561140c576001600160a01b03821673eeeeeeeeeeeeeeeeeeeeeeeeeeeeeeeeeeeeeeee146113fb576040516370e4c5d760e11b815260040160405180910390fd5b6114058486611981565b9050611495565b8484111561142d5760405163015cb20560e51b815260040160405180910390fd5b831561148b576001600160a01b03821660009081527f0ef7964289e2ad0265b28160944e1b4cd9ba803591bca2c80e6aecba7b44a6ea602052604090205460ff1661148b576040516370e4c5d760e11b815260040160405180910390fd5b6114058486611994565b949350505050565b600082156114c5576000836114b28487611948565b6114bc919061195f565b91506113af9050565b506000196113af565b80606001511580156114e4575060008160400151115b156115095761150933604083015160808401516001600160a01b0316919030906116cd565b8060600151801561151e575060008160400151115b15610b9e576000546001600160a01b03166340c10f193360408085015190516001600160e01b031960e085901b1681526001600160a01b0390921660048301526024820152604401600060405180830381600087803b15801561158057600080fd5b505af1158015611594573d6000803e3d6000fd5b5050505050565b60008281526000805160206119a8833981519152602090815260408083206001600160a01b038516845290915290205460ff166106625760405163e2517d3f60e01b81526001600160a01b0382166004820152602481018390526044015b60405180910390fd5b7fcd5ed15c6e187e77e9aee88184c21f4f2182ab5827cb3b7e07fbedcd63f033005460ff16610d1957604051638dfc202b60e01b815260040160405180910390fd5b7ff0c57e16840df040f15088dc2f81fe391c3923bec73e23a9662efc9c229c6a005468010000000000000000900460ff16610d1957604051631afcd79f60e31b815260040160405180910390fd5b611075611644565b6116a2611644565b7fcd5ed15c6e187e77e9aee88184c21f4f2182ab5827cb3b7e07fbedcd63f03300805460ff19169055565b604080516001600160a01b0385811660248301528416604482015260648082018490528251808303909101815260849091019091526020810180517bffffffffffffffffffffffffffffffffffffffffffffffffffffffff166323b872dd60e01b179052610698908590600080602060008451602086016000885af18061175a576040513d6000823e3d81fd5b50506000513d9150811561177257806001141561177f565b6001600160a01b0384163b155b1561069857604051635274afe760e01b81526001600160a01b03851660048201526024016115f9565b6000602082840312156117ba57600080fd5b81356001600160e01b0319811681146113af57600080fd5b80356001600160a01b03811681146117e957600080fd5b919050565b6000806040838503121561180157600080fd5b61180a836117d2565b946020939093013593505050565b60006020828403121561182a57600080fd5b5035919050565b60006020828403121561184357600080fd5b6113af826117d2565b6000806040838503121561185f57600080fd5b8235915061186f602084016117d2565b90509250929050565b60006020828403121561188a57600080fd5b813580151581146113af57600080fd5b6000806000606084860312156118af57600080fd5b6118b8846117d2565b92506118c6602085016117d2565b9150604084013590509250925092565b6000806000606084860312156118eb57600080fd5b6118f4846117d2565b9250611902602085016117d2565b9150611910604085016117d2565b90509250925092565b60006020828403121561192b57600080fd5b5051919050565b634e487b7160e01b600052601160045260246000fd5b80820281158282048414176105d0576105d0611932565b60008261197c57634e487b7160e01b600052601260045260246000fd5b500490565b808201808211156105d0576105d0611932565b818103818111156105d0576105d061193256fe02dd7bc7dec4dceedda775e58dd541e08a116c6c53815c0bd028192f7b626800a164736f6c6343000814000a",
  "devdoc": {
    "errors": {
      "AccessControlBadConfirmation()": [
        {
          "details": "The caller of a function is not the expected one. NOTE: Don't confuse with {AccessControlUnauthorizedAccount}."
        }
      ],
      "AccessControlUnauthorizedAccount(address,bytes32)": [
        {
          "details": "The `account` is missing a role."
        }
      ],
      "EnforcedPause()": [
        {
          "details": "The operation failed because the contract is paused."
        }
      ],
      "ExpectedPause()": [
        {
          "details": "The operation failed because the contract is not paused."
        }
      ],
      "InvalidInitialization()": [
        {
          "details": "The contract is already initialized."
        }
      ],
      "NotInitializing()": [
        {
          "details": "The contract is not initializing."
        }
      ],
      "ReentrancyGuardReentrantCall()": [
        {
          "details": "Unauthorized reentrant call."
        }
      ],
      "SafeERC20FailedOperation(address)": [
        {
          "details": "An operation with an ERC-20 token failed."
        }
      ]
    },
    "events": {
      "Initialized(uint64)": {
        "details": "Triggered when the contract has been initialized or reinitialized."
      },
      "Paused(address)": {
        "details": "Emitted when the pause is triggered by `account`."
      },
      "RoleAdminChanged(bytes32,bytes32,bytes32)": {
        "details": "Emitted when `newAdminRole` is set as ``role``'s admin role, replacing `previousAdminRole` `DEFAULT_ADMIN_ROLE` is the starting admin for all roles, despite {RoleAdminChanged} not being emitted signaling this."
      },
      "RoleGranted(bytes32,address,address)": {
        "details": "Emitted when `account` is granted `role`. `sender` is the account that originated the contract call. This account bears the admin role (for the granted role). Expected in cases where the role was granted using the internal {AccessControl-_grantRole}."
      },
      "RoleRevoked(bytes32,address,address)": {
        "details": "Emitted when `account` is revoked `role`. `sender` is the account that originated the contract call:   - if using `revokeRole`, it is the admin role bearer   - if using `renounceRole`, it is the role bearer (i.e. `account`)"
      },
      "Unpaused(address)": {
        "details": "Emitted when the pause is lifted by `account`."
      }
    },
    "kind": "dev",
    "methods": {
      "borrow(uint256)": {
        "params": {
          "debtAmount": "The amount of USDU to borrow"
        }
      },
      "constructor": {
        "custom:oz-upgrades-unsafe-allow": "constructor"
      },
      "getRoleAdmin(bytes32)": {
        "details": "Returns the admin role that controls `role`. See {grantRole} and {revokeRole}. To change a role's admin, use {_setRoleAdmin}."
      },
      "grantRole(bytes32,address)": {
        "details": "Grants `role` to `account`. If `account` had not been already granted `role`, emits a {RoleGranted} event. Requirements: - the caller must have ``role``'s admin role. May emit a {RoleGranted} event."
      },
      "hasRole(bytes32,address)": {
        "details": "Returns `true` if `account` has been granted `role`."
      },
      "paused()": {
        "details": "Returns true if the contract is paused, and false otherwise."
      },
      "renounceRole(bytes32,address)": {
        "details": "Revokes `role` from the calling account. Roles are often managed via {grantRole} and {revokeRole}: this function's purpose is to provide a mechanism for accounts to lose their privileges if they are compromised (such as when a trusted device is misplaced). If the calling account had been revoked `role`, emits a {RoleRevoked} event. Requirements: - the caller must be `callerConfirmation`. May emit a {RoleRevoked} event."
      },
      "repay(address,uint256)": {
        "params": {
          "repayAmount": "The amount to repay",
          "repayToken": "The token used for repayment"
        }
      },
      "revokeRole(bytes32,address)": {
        "details": "Revokes `role` from `account`. If `account` had been granted `role`, emits a {RoleRevoked} event. Requirements: - the caller must have ``role``'s admin role. May emit a {RoleRevoked} event."
      },
      "supportsInterface(bytes4)": {
        "details": "See {IERC165-supportsInterface}."
      }
    },
    "version": 1
  },
  "userdoc": {
    "kind": "user",
    "methods": {
      "borrow(uint256)": {
        "notice": "Borrow USDU by providing ETH as collateral"
      },
      "repay(address,uint256)": {
        "notice": "Repay debt using allowed tokens"
      }
    },
    "version": 1
  },
  "storageLayout": {
    "storage": [
      {
        "astId": 16762,
        "contract": "src/core/UniCardCollateral.sol:UniCardCollateral",
        "label": "usdu",
        "offset": 0,
        "slot": "0",
        "type": "t_contract(IUSDU)16725"
      },
      {
        "astId": 16765,
        "contract": "src/core/UniCardCollateral.sol:UniCardCollateral",
        "label": "priceFeed",
        "offset": 0,
        "slot": "1",
        "type": "t_contract(IPriceFeed)18303"
      },
      {
        "astId": 16769,
        "contract": "src/core/UniCardCollateral.sol:UniCardCollateral",
        "label": "debts",
        "offset": 0,
        "slot": "2",
        "type": "t_mapping(t_address,t_uint256)"
      },
      {
        "astId": 16773,
        "contract": "src/core/UniCardCollateral.sol:UniCardCollateral",
        "label": "collaterals",
        "offset": 0,
        "slot": "3",
        "type": "t_mapping(t_address,t_uint256)"
      }
    ],
    "types": {
      "t_address": {
        "encoding": "inplace",
        "label": "address",
        "numberOfBytes": "20"
      },
      "t_contract(IPriceFeed)18303": {
        "encoding": "inplace",
        "label": "contract IPriceFeed",
        "numberOfBytes": "20"
      },
      "t_contract(IUSDU)16725": {
        "encoding": "inplace",
        "label": "contract IUSDU",
        "numberOfBytes": "20"
      },
      "t_mapping(t_address,t_uint256)": {
        "encoding": "mapping",
        "key": "t_address",
        "label": "mapping(address => uint256)",
        "numberOfBytes": "32",
        "value": "t_uint256"
      },
      "t_uint256": {
        "encoding": "inplace",
        "label": "uint256",
        "numberOfBytes": "32"
      }
    }
  }
}