{
  "address": "0xc427f7B9Cb02b0fE37F7C17becD8c2A3b57E6464",
  "abi": [
    {
      "inputs": [],
      "stateMutability": "nonpayable",
      "type": "constructor"
    },
    {
      "inputs": [],
      "name": "AccessControlBadConfirmation",
      "type": "error"
    },
    {
      "inputs": [
        {
          "internalType": "address",
          "name": "account",
          "type": "address"
        },
        {
          "internalType": "bytes32",
          "name": "neededRole",
          "type": "bytes32"
        }
      ],
      "name": "AccessControlUnauthorizedAccount",
      "type": "error"
    },
    {
      "inputs": [],
      "name": "EnforcedPause",
      "type": "error"
    },
    {
      "inputs": [],
      "name": "ExpectedPause",
      "type": "error"
    },
    {
      "inputs": [],
      "name": "InvalidInitialization",
      "type": "error"
    },
    {
      "inputs": [],
      "name": "NotInitializing",
      "type": "error"
    },
    {
      "inputs": [],
      "name": "ReentrancyGuardReentrantCall",
      "type": "error"
    },
    {
      "inputs": [
        {
          "internalType": "address",
          "name": "token",
          "type": "address"
        }
      ],
      "name": "SafeERC20FailedOperation",
      "type": "error"
    },
    {
      "inputs": [],
      "name": "UNICARD_COLLATERAL_DEBT_REDUCTION_EXCEEDS_CURRENT_DEBT",
      "type": "error"
    },
    {
      "inputs": [],
      "name": "UNICARD_COLLATERAL_ETH_NOT_NEEDED",
      "type": "error"
    },
    {
      "inputs": [],
      "name": "UNICARD_COLLATERAL_INSUFFICIENT_COLLATERAL",
      "type": "error"
    },
    {
      "inputs": [],
      "name": "UNICARD_COLLATERAL_INSUFFICIENT_COLLATERAL_RATIO",
      "type": "error"
    },
    {
      "inputs": [],
      "name": "UNICARD_COLLATERAL_INVALID_ETH_AMOUNT",
      "type": "error"
    },
    {
      "inputs": [],
      "name": "UNICARD_COLLATERAL_INVALID_REPAY_TOKEN",
      "type": "error"
    },
    {
      "anonymous": false,
      "inputs": [
        {
          "indexed": false,
          "internalType": "address",
          "name": "holder",
          "type": "address"
        },
        {
          "indexed": false,
          "internalType": "uint256",
          "name": "collateralAmount",
          "type": "uint256"
        },
        {
          "indexed": false,
          "internalType": "bool",
          "name": "isCollateralIncrease",
          "type": "bool"
        },
        {
          "indexed": false,
          "internalType": "uint256",
          "name": "debtAmount",
          "type": "uint256"
        },
        {
          "indexed": false,
          "internalType": "bool",
          "name": "isDebtIncrease",
          "type": "bool"
        },
        {
          "indexed": false,
          "internalType": "address",
          "name": "repayToken",
          "type": "address"
        }
      ],
      "name": "CollateralAdjusted",
      "type": "event"
    },
    {
      "anonymous": false,
      "inputs": [
        {
          "indexed": false,
          "internalType": "uint64",
          "name": "version",
          "type": "uint64"
        }
      ],
      "name": "Initialized",
      "type": "event"
    },
    {
      "anonymous": false,
      "inputs": [
        {
          "indexed": false,
          "internalType": "address",
          "name": "account",
          "type": "address"
        }
      ],
      "name": "Paused",
      "type": "event"
    },
    {
      "anonymous": false,
      "inputs": [
        {
          "indexed": false,
          "internalType": "address",
          "name": "newPriceFeed",
          "type": "address"
        }
      ],
      "name": "PriceFeedUpdated",
      "type": "event"
    },
    {
      "anonymous": false,
      "inputs": [
        {
          "indexed": true,
          "internalType": "bytes32",
          "name": "role",
          "type": "bytes32"
        },
        {
          "indexed": true,
          "internalType": "bytes32",
          "name": "previousAdminRole",
          "type": "bytes32"
        },
        {
          "indexed": true,
          "internalType": "bytes32",
          "name": "newAdminRole",
          "type": "bytes32"
        }
      ],
      "name": "RoleAdminChanged",
      "type": "event"
    },
    {
      "anonymous": false,
      "inputs": [
        {
          "indexed": true,
          "internalType": "bytes32",
          "name": "role",
          "type": "bytes32"
        },
        {
          "indexed": true,
          "internalType": "address",
          "name": "account",
          "type": "address"
        },
        {
          "indexed": true,
          "internalType": "address",
          "name": "sender",
          "type": "address"
        }
      ],
      "name": "RoleGranted",
      "type": "event"
    },
    {
      "anonymous": false,
      "inputs": [
        {
          "indexed": true,
          "internalType": "bytes32",
          "name": "role",
          "type": "bytes32"
        },
        {
          "indexed": true,
          "internalType": "address",
          "name": "account",
          "type": "address"
        },
        {
          "indexed": true,
          "internalType": "address",
          "name": "sender",
          "type": "address"
        }
      ],
      "name": "RoleRevoked",
      "type": "event"
    },
    {
      "anonymous": false,
      "inputs": [
        {
          "indexed": false,
          "internalType": "bool",
          "name": "isPaused",
          "type": "bool"
        }
      ],
      "name": "TogglePause",
      "type": "event"
    },
    {
      "anonymous": false,
      "inputs": [
        {
          "indexed": false,
          "internalType": "address",
          "name": "account",
          "type": "address"
        }
      ],
      "name": "Unpaused",
      "type": "event"
    },
    {
      "anonymous": false,
      "inputs": [
        {
          "indexed": false,
          "internalType": "address",
          "name": "newUsdu",
          "type": "address"
        }
      ],
      "name": "UsduUpdated",
      "type": "event"
    },
    {
      "inputs": [],
      "name": "ALLOWED_REPAY_TOKEN",
      "outputs": [
        {
          "internalType": "bytes32",
          "name": "",
          "type": "bytes32"
        }
      ],
      "stateMutability": "view",
      "type": "function"
    },
    {
      "inputs": [],
      "name": "CONTROLLER_ROLE",
      "outputs": [
        {
          "internalType": "bytes32",
          "name": "",
          "type": "bytes32"
        }
      ],
      "stateMutability": "view",
      "type": "function"
    },
    {
      "inputs": [],
      "name": "DEFAULT_ADMIN_ROLE",
      "outputs": [
        {
          "internalType": "bytes32",
          "name": "",
          "type": "bytes32"
        }
      ],
      "stateMutability": "view",
      "type": "function"
    },
    {
      "inputs": [],
      "name": "MIN_COLLATERAL_RATIO",
      "outputs": [
        {
          "internalType": "uint256",
          "name": "",
          "type": "uint256"
        }
      ],
      "stateMutability": "view",
      "type": "function"
    },
    {
      "inputs": [],
      "name": "NATIVE_TOKEN",
      "outputs": [
        {
          "internalType": "address",
          "name": "",
          "type": "address"
        }
      ],
      "stateMutability": "view",
      "type": "function"
    },
    {
      "inputs": [],
      "name": "UNICARD_CV_PROXY_ROLE",
      "outputs": [
        {
          "internalType": "bytes32",
          "name": "",
          "type": "bytes32"
        }
      ],
      "stateMutability": "view",
      "type": "function"
    },
    {
      "inputs": [
        {
          "internalType": "uint256",
          "name": "debtAmount",
          "type": "uint256"
        }
      ],
      "name": "borrow",
      "outputs": [],
      "stateMutability": "payable",
      "type": "function"
    },
    {
      "inputs": [
        {
          "internalType": "address",
          "name": "holder",
          "type": "address"
        },
        {
          "internalType": "uint256",
          "name": "debtAmount",
          "type": "uint256"
        }
      ],
      "name": "borrowFor",
      "outputs": [],
      "stateMutability": "payable",
      "type": "function"
    },
    {
      "inputs": [
        {
          "internalType": "address",
          "name": "",
          "type": "address"
        }
      ],
      "name": "collaterals",
      "outputs": [
        {
          "internalType": "uint256",
          "name": "",
          "type": "uint256"
        }
      ],
      "stateMutability": "view",
      "type": "function"
    },
    {
      "inputs": [
        {
          "internalType": "address",
          "name": "",
          "type": "address"
        }
      ],
      "name": "debts",
      "outputs": [
        {
          "internalType": "uint256",
          "name": "",
          "type": "uint256"
        }
      ],
      "stateMutability": "view",
      "type": "function"
    },
    {
      "inputs": [
        {
          "internalType": "bytes32",
          "name": "role",
          "type": "bytes32"
        }
      ],
      "name": "getRoleAdmin",
      "outputs": [
        {
          "internalType": "bytes32",
          "name": "",
          "type": "bytes32"
        }
      ],
      "stateMutability": "view",
      "type": "function"
    },
    {
      "inputs": [
        {
          "internalType": "bytes32",
          "name": "role",
          "type": "bytes32"
        },
        {
          "internalType": "address",
          "name": "account",
          "type": "address"
        }
      ],
      "name": "grantRole",
      "outputs": [],
      "stateMutability": "nonpayable",
      "type": "function"
    },
    {
      "inputs": [
        {
          "internalType": "bytes32",
          "name": "role",
          "type": "bytes32"
        },
        {
          "internalType": "address",
          "name": "account",
          "type": "address"
        }
      ],
      "name": "hasRole",
      "outputs": [
        {
          "internalType": "bool",
          "name": "",
          "type": "bool"
        }
      ],
      "stateMutability": "view",
      "type": "function"
    },
    {
      "inputs": [
        {
          "internalType": "address",
          "name": "anAdmin",
          "type": "address"
        },
        {
          "internalType": "address",
          "name": "anUsdu",
          "type": "address"
        },
        {
          "internalType": "address",
          "name": "aPriceFeed",
          "type": "address"
        }
      ],
      "name": "initialize",
      "outputs": [],
      "stateMutability": "nonpayable",
      "type": "function"
    },
    {
      "inputs": [],
      "name": "paused",
      "outputs": [
        {
          "internalType": "bool",
          "name": "",
          "type": "bool"
        }
      ],
      "stateMutability": "view",
      "type": "function"
    },
    {
      "inputs": [],
      "name": "priceFeed",
      "outputs": [
        {
          "internalType": "contract IPriceFeed",
          "name": "",
          "type": "address"
        }
      ],
      "stateMutability": "view",
      "type": "function"
    },
    {
      "inputs": [
        {
          "internalType": "bytes32",
          "name": "role",
          "type": "bytes32"
        },
        {
          "internalType": "address",
          "name": "callerConfirmation",
          "type": "address"
        }
      ],
      "name": "renounceRole",
      "outputs": [],
      "stateMutability": "nonpayable",
      "type": "function"
    },
    {
      "inputs": [
        {
          "internalType": "address",
          "name": "repayToken",
          "type": "address"
        },
        {
          "internalType": "uint256",
          "name": "repayAmount",
          "type": "uint256"
        }
      ],
      "name": "repay",
      "outputs": [],
      "stateMutability": "nonpayable",
      "type": "function"
    },
    {
      "inputs": [
        {
          "internalType": "address",
          "name": "holder",
          "type": "address"
        },
        {
          "internalType": "address",
          "name": "repayToken",
          "type": "address"
        },
        {
          "internalType": "uint256",
          "name": "repayAmount",
          "type": "uint256"
        }
      ],
      "name": "repayFor",
      "outputs": [],
      "stateMutability": "nonpayable",
      "type": "function"
    },
    {
      "inputs": [
        {
          "internalType": "bytes32",
          "name": "role",
          "type": "bytes32"
        },
        {
          "internalType": "address",
          "name": "account",
          "type": "address"
        }
      ],
      "name": "revokeRole",
      "outputs": [],
      "stateMutability": "nonpayable",
      "type": "function"
    },
    {
      "inputs": [
        {
          "internalType": "bytes4",
          "name": "interfaceId",
          "type": "bytes4"
        }
      ],
      "name": "supportsInterface",
      "outputs": [
        {
          "internalType": "bool",
          "name": "",
          "type": "bool"
        }
      ],
      "stateMutability": "view",
      "type": "function"
    },
    {
      "inputs": [
        {
          "internalType": "bool",
          "name": "enablePauseOrNot",
          "type": "bool"
        }
      ],
      "name": "togglePause",
      "outputs": [],
      "stateMutability": "nonpayable",
      "type": "function"
    },
    {
      "inputs": [
        {
          "internalType": "address",
          "name": "newPriceFeed",
          "type": "address"
        }
      ],
      "name": "updatePriceFeed",
      "outputs": [],
      "stateMutability": "nonpayable",
      "type": "function"
    },
    {
      "inputs": [
        {
          "internalType": "address",
          "name": "newUsdu",
          "type": "address"
        }
      ],
      "name": "updateUsdu",
      "outputs": [],
      "stateMutability": "nonpayable",
      "type": "function"
    },
    {
      "inputs": [],
      "name": "usdu",
      "outputs": [
        {
          "internalType": "contract IUSDU",
          "name": "",
          "type": "address"
        }
      ],
      "stateMutability": "view",
      "type": "function"
    },
    {
      "stateMutability": "payable",
      "type": "receive"
    }
  ],
  "transactionHash": "0x3b75d78cd2b6ec8b736a8ef10f6847ab2fbdc7cedb7cf47f01275e804175995e",
  "args": [],
  "numDeployments": 1,
  "solcInputHash": "cf2964f297f026ec63c78a3565957082",
  "bytecode": "0x608060405234801561001057600080fd5b5061001961001e565b6100d0565b7ff0c57e16840df040f15088dc2f81fe391c3923bec73e23a9662efc9c229c6a00805468010000000000000000900460ff161561006e5760405163f92ee8a960e01b815260040160405180910390fd5b80546001600160401b03908116146100cd5780546001600160401b0319166001600160401b0390811782556040519081527fc7f505b2f371ae2175ee4913f4499e1f2633a7b5936321eed1cdaeb6115181d29060200160405180910390a15b50565b611aa7806100df6000396000f3fe60806040526004361061019a5760003560e01c8063751be4df116100e1578063a217fddf1161008a578063d547741f11610064578063d547741f1461050b578063e9a1183d1461052b578063edd1a7e31461053e578063eeb97d3b1461057257600080fd5b8063a217fddf146104c3578063c0c53b8b146104d8578063c5ebeaec146104f857600080fd5b806391d14854116100bb57806391d148541461043057806395877f7814610483578063976ce495146104a357600080fd5b8063751be4df146103d45780637a9fffb7146103f45780638b538cd31461041057600080fd5b806331f7d9641161014357806357d159c61161011d57806357d159c61461035d5780635c975abb1461037d578063741bef1a146103b457600080fd5b806331f7d964146102c957806336568abe146103095780634ff55c931461032957600080fd5b8063248a9ca311610174578063248a9ca31461023f5780632ecd4e7d1461027c5780632f2ff15d146102a957600080fd5b806301ffc9a7146101a6578063092c5b3b146101db57806322867d781461021d57600080fd5b366101a157005b600080fd5b3480156101b257600080fd5b506101c66101c136600461182d565b61059f565b60405190151581526020015b60405180910390f35b3480156101e757600080fd5b5061020f7f7b765e0e932d348852a6f810bfa1ab891e259123f02db8cdcde614c57022335781565b6040519081526020016101d2565b34801561022957600080fd5b5061023d610238366004611873565b6105d6565b005b34801561024b57600080fd5b5061020f61025a36600461189d565b6000908152600080516020611a7b833981519152602052604090206001015490565b34801561028857600080fd5b5061020f6102973660046118b6565b60026020526000908152604090205481565b3480156102b557600080fd5b5061023d6102c43660046118d1565b610666565b3480156102d557600080fd5b506102f173eeeeeeeeeeeeeeeeeeeeeeeeeeeeeeeeeeeeeeee81565b6040516001600160a01b0390911681526020016101d2565b34801561031557600080fd5b5061023d6103243660046118d1565b61069e565b34801561033557600080fd5b5061020f7f5fe9aebae54f55d4cc0d1aa06029f29662871d227bf25c3705640892c874add581565b34801561036957600080fd5b5061023d6103783660046118fd565b6106d6565b34801561038957600080fd5b507fcd5ed15c6e187e77e9aee88184c21f4f2182ab5827cb3b7e07fbedcd63f033005460ff166101c6565b3480156103c057600080fd5b506001546102f1906001600160a01b031681565b3480156103e057600080fd5b506000546102f1906001600160a01b031681565b34801561040057600080fd5b5061020f670f43fc2c04ee000081565b34801561041c57600080fd5b5061023d61042b3660046118b6565b610755565b34801561043c57600080fd5b506101c661044b3660046118d1565b6000918252600080516020611a7b833981519152602090815260408084206001600160a01b0393909316845291905290205460ff1690565b34801561048f57600080fd5b5061023d61049e3660046118b6565b6107cd565b3480156104af57600080fd5b5061023d6104be36600461191f565b610845565b3480156104cf57600080fd5b5061020f600081565b3480156104e457600080fd5b5061023d6104f336600461195b565b6108f7565b61023d61050636600461189d565b610b0f565b34801561051757600080fd5b5061023d6105263660046118d1565b610ba1565b61023d610539366004611873565b610bd3565b34801561054a57600080fd5b5061020f7fac7d3937b4da62230108d58326b5e0aa217caaa6e6eaccee1bf34ac0d0f0a2c081565b34801561057e57600080fd5b5061020f61058d3660046118b6565b60036020526000908152604090205481565b60006001600160e01b03198216637965db0b60e01b14806105d057506301ffc9a760e01b6001600160e01b03198316145b92915050565b6105de610c8c565b6105e6610cd6565b6106396040518060c0016040528060008152602001600015158152602001838152602001600015158152602001846001600160a01b031681526020016106293390565b6001600160a01b03169052610d1b565b61066260017f9b779b17422d0df92223018b32b4d1fa46e071723d6817e2486d003becc55f0055565b5050565b6000828152600080516020611a7b833981519152602052604090206001015461068e81610fb2565b6106988383610fbc565b50505050565b6001600160a01b03811633146106c75760405163334bd91960e11b815260040160405180910390fd5b6106d18282611079565b505050565b7f7b765e0e932d348852a6f810bfa1ab891e259123f02db8cdcde614c57022335761070081610fb2565b81156107135761070e61110d565b61071b565b61071b611182565b60405182151581527ff8cec1b05ef1ff4ed57b2ab252020e10315146c455d9d966e5eb2dbc7f327221906020015b60405180910390a15050565b7f7b765e0e932d348852a6f810bfa1ab891e259123f02db8cdcde614c57022335761077f81610fb2565b600080546001600160a01b0319166001600160a01b0384169081179091556040519081527f05522ae9e8ea4d882a599fab4ac6b509b3b7e2ee0738bb76cce5a1269624919690602001610749565b7f7b765e0e932d348852a6f810bfa1ab891e259123f02db8cdcde614c5702233576107f781610fb2565b600180546001600160a01b0319166001600160a01b0384169081179091556040519081527fe5b20b8497e4f3e2435ef9c20e2e26b47497ee13745ce1c681ad6640653119e690602001610749565b61084d610c8c565b7f5fe9aebae54f55d4cc0d1aa06029f29662871d227bf25c3705640892c874add561087781610fb2565b61087f610cd6565b6108cd6040518060c0016040528060008152602001600015158152602001848152602001600015158152602001856001600160a01b03168152602001866001600160a01b0316815250610d1b565b506106d160017f9b779b17422d0df92223018b32b4d1fa46e071723d6817e2486d003becc55f0055565b7ff0c57e16840df040f15088dc2f81fe391c3923bec73e23a9662efc9c229c6a00805468010000000000000000810460ff16159067ffffffffffffffff166000811580156109425750825b905060008267ffffffffffffffff16600114801561095f5750303b155b90508115801561096d575080155b1561098b5760405163f92ee8a960e01b815260040160405180910390fd5b845467ffffffffffffffff1916600117855583156109bf57845468ff00000000000000001916680100000000000000001785555b6109c76111da565b6109cf6111e2565b6109d76111f2565b600080546001600160a01b03808a166001600160a01b031992831617835560018054918a1691909216179055610a0d9089610fbc565b50610a387f7b765e0e932d348852a6f810bfa1ab891e259123f02db8cdcde614c57022335789610fbc565b50610a647fac7d3937b4da62230108d58326b5e0aa217caaa6e6eaccee1bf34ac0d0f0a2c06000611202565b610a8f7f7b765e0e932d348852a6f810bfa1ab891e259123f02db8cdcde614c5702233576000611202565b610aba7f5fe9aebae54f55d4cc0d1aa06029f29662871d227bf25c3705640892c874add56000611202565b8315610b0557845468ff000000000000000019168555604051600181527fc7f505b2f371ae2175ee4913f4499e1f2633a7b5936321eed1cdaeb6115181d29060200160405180910390a15b5050505050505050565b610b17610c8c565b610b1f610cd6565b610b756040518060c0016040528034815260200160011515815260200183815260200160011515815260200173eeeeeeeeeeeeeeeeeeeeeeeeeeeeeeeeeeeeeeee6001600160a01b031681526020016106293390565b610b9e60017f9b779b17422d0df92223018b32b4d1fa46e071723d6817e2486d003becc55f0055565b50565b6000828152600080516020611a7b8339815191526020526040902060010154610bc981610fb2565b6106988383611079565b7f5fe9aebae54f55d4cc0d1aa06029f29662871d227bf25c3705640892c874add5610bfd81610fb2565b610c05610c8c565b610c0d610cd6565b6040805160c081018252348152600160208201819052918101849052606081019190915273eeeeeeeeeeeeeeeeeeeeeeeeeeeeeeeeeeeeeeee60808201526001600160a01b03841660a0820152610c6390610d1b565b6106d160017f9b779b17422d0df92223018b32b4d1fa46e071723d6817e2486d003becc55f0055565b7f9b779b17422d0df92223018b32b4d1fa46e071723d6817e2486d003becc55f00805460011901610cd057604051633ee5aeb560e01b815260040160405180910390fd5b60029055565b7fcd5ed15c6e187e77e9aee88184c21f4f2182ab5827cb3b7e07fbedcd63f033005460ff1615610d195760405163d93c066560e01b815260040160405180910390fd5b565b610d466040518060800160405280600081526020016000815260200160008152602001600081525090565b60a0820180516001600160a01b039081166000908152600360209081526040808320549451909316825260028152919020549084015115610da75783513414610da2576040516328a2743960e01b815260040160405180910390fd5b610dc6565b3415610dc65760405163afc6f3af60e01b815260040160405180910390fd5b610dd98285600001518660200151611282565b836020018181525050610dfa818560400151866060015187608001516112cd565b6040840181905215610ec257600160009054906101000a90046001600160a01b03166001600160a01b0316630490be836040518163ffffffff1660e01b8152600401602060405180830381865afa158015610e59573d6000803e3d6000fd5b505050506040513d601f19601f82011682018060405250810190610e7d919061199e565b80845260208401516040850151610e93926113b4565b60608401819052670f43fc2c04ee00001115610ec25760405163ee5a629b60e01b815260040160405180910390fd5b60208084015160a0860180516001600160a01b0390811660009081526003855260408082209490945583880151925190911681526002909352912055610f07846114b1565b60a08085015185516020808801516040808a01516060808c01516080808e015185516001600160a01b039a8b16815297880198909852941515938601939093528401521515908201529116918101919091527f7f2132b3735354c4b977a7851410c222148f7f77ee8fcd7c5c05bb86f84e724d9060c00160405180910390a150505050565b60017f9b779b17422d0df92223018b32b4d1fa46e071723d6817e2486d003becc55f0055565b610b9e813361157e565b6000828152600080516020611a7b833981519152602081815260408084206001600160a01b038616855290915282205460ff1661106f576000848152602082815260408083206001600160a01b03871684529091529020805460ff191660011790556110253390565b6001600160a01b0316836001600160a01b0316857f2f8788117e7eff1d82e926ec794901d17c78024a50270940304540a733656f0d60405160405180910390a460019150506105d0565b60009150506105d0565b6000828152600080516020611a7b833981519152602081815260408084206001600160a01b038616855290915282205460ff161561106f576000848152602082815260408083206001600160a01b0387168085529252808320805460ff1916905551339287917ff6391f5c32d9c69d2a47ea670b442974b53935d1edc7fd64eb21e047a839171b9190a460019150506105d0565b611115610cd6565b7fcd5ed15c6e187e77e9aee88184c21f4f2182ab5827cb3b7e07fbedcd63f03300805460ff191660011781557f62e78cea01bee320cd4e420270b5ea74000d11b0c9f74754ebdbfc544b05a258335b6040516001600160a01b03909116815260200160405180910390a150565b61118a6115e5565b7fcd5ed15c6e187e77e9aee88184c21f4f2182ab5827cb3b7e07fbedcd63f03300805460ff191681557f5db9ee0a495bf2e6ff9c91a7834c1ba4fdd244a5e8aa4e537bd38aeae4b073aa33611164565b610d19611627565b6111ea611627565b610d19611675565b6111fa611627565b610d1961167d565b600080516020611a7b8339815191526000611239846000908152600080516020611a7b833981519152602052604090206001015490565b600085815260208490526040808220600101869055519192508491839187917fbd79b86ffe0ab8e8776151514217cd7cacd52c909f66475c3af44e129f0b00ff9190a450505050565b6000811561129b5761129483856119cd565b90506112c6565b838311156112bc5760405163d652467d60e01b815260040160405180910390fd5b61129483856119e0565b9392505050565b60008215611323576001600160a01b03821673eeeeeeeeeeeeeeeeeeeeeeeeeeeeeeeeeeeeeeee14611312576040516370e4c5d760e11b815260040160405180910390fd5b61131c84866119cd565b90506113ac565b848411156113445760405163015cb20560e51b815260040160405180910390fd5b83156113a2576001600160a01b03821660009081527f0ef7964289e2ad0265b28160944e1b4cd9ba803591bca2c80e6aecba7b44a6ea602052604090205460ff166113a2576040516370e4c5d760e11b815260040160405180910390fd5b61131c84866119e0565b949350505050565b60006113f46040518060400160405280601081526020017f636f6c6c61746572616c416d6f756e74000000000000000000000000000000008152506116b0565b6113fd846116f3565b6114286040518060400160405280600a8152602001691919589d105b5bdd5b9d60b21b8152506116b0565b611431836116f3565b61145760405180604001604052806005815260200164707269636560d81b8152506116b0565b611460826116f3565b82156114a85760006305f5e100848461148188670de0b6b3a76400006119f3565b61148b91906119f3565b6114959190611a0a565b61149f9190611a0a565b91506112c69050565b506000196112c6565b80606001511580156114c7575060008160400151115b156114ec576114ec33604083015160808401516001600160a01b031691903090611738565b80606001518015611501575060008160400151115b15610b9e576000546001600160a01b03166340c10f193360408085015190516001600160e01b031960e085901b1681526001600160a01b0390921660048301526024820152604401600060405180830381600087803b15801561156357600080fd5b505af1158015611577573d6000803e3d6000fd5b5050505050565b6000828152600080516020611a7b833981519152602090815260408083206001600160a01b038516845290915290205460ff166106625760405163e2517d3f60e01b81526001600160a01b0382166004820152602481018390526044015b60405180910390fd5b7fcd5ed15c6e187e77e9aee88184c21f4f2182ab5827cb3b7e07fbedcd63f033005460ff16610d1957604051638dfc202b60e01b815260040160405180910390fd5b7ff0c57e16840df040f15088dc2f81fe391c3923bec73e23a9662efc9c229c6a005468010000000000000000900460ff16610d1957604051631afcd79f60e31b815260040160405180910390fd5b610f8c611627565b611685611627565b7fcd5ed15c6e187e77e9aee88184c21f4f2182ab5827cb3b7e07fbedcd63f03300805460ff19169055565b610b9e816040516024016116c49190611a2c565b60408051601f198184030181529190526020810180516001600160e01b031663104c13eb60e21b179052611792565b610b9e8160405160240161170991815260200190565b60408051601f198184030181529190526020810180516001600160e01b031663f82c50f160e01b179052611792565b604080516001600160a01b0385811660248301528416604482015260648082018490528251808303909101815260849091019091526020810180516001600160e01b03166323b872dd60e01b17905261069890859061179b565b610b9e8161180c565b600080602060008451602086016000885af1806117be576040513d6000823e3d81fd5b50506000513d915081156117d65780600114156117e3565b6001600160a01b0384163b155b1561069857604051635274afe760e01b81526001600160a01b03851660048201526024016115dc565b60006a636f6e736f6c652e6c6f679050600080835160208501845afa505050565b60006020828403121561183f57600080fd5b81356001600160e01b0319811681146112c657600080fd5b80356001600160a01b038116811461186e57600080fd5b919050565b6000806040838503121561188657600080fd5b61188f83611857565b946020939093013593505050565b6000602082840312156118af57600080fd5b5035919050565b6000602082840312156118c857600080fd5b6112c682611857565b600080604083850312156118e457600080fd5b823591506118f460208401611857565b90509250929050565b60006020828403121561190f57600080fd5b813580151581146112c657600080fd5b60008060006060848603121561193457600080fd5b61193d84611857565b925061194b60208501611857565b9150604084013590509250925092565b60008060006060848603121561197057600080fd5b61197984611857565b925061198760208501611857565b915061199560408501611857565b90509250925092565b6000602082840312156119b057600080fd5b5051919050565b634e487b7160e01b600052601160045260246000fd5b808201808211156105d0576105d06119b7565b818103818111156105d0576105d06119b7565b80820281158282048414176105d0576105d06119b7565b600082611a2757634e487b7160e01b600052601260045260246000fd5b500490565b600060208083528351808285015260005b81811015611a5957858101830151858201604001528201611a3d565b506000604082860101526040601f19601f830116850101925050509291505056fe02dd7bc7dec4dceedda775e58dd541e08a116c6c53815c0bd028192f7b626800a164736f6c6343000814000a",
  "devdoc": {
    "errors": {
      "AccessControlBadConfirmation()": [
        {
          "details": "The caller of a function is not the expected one. NOTE: Don't confuse with {AccessControlUnauthorizedAccount}."
        }
      ],
      "AccessControlUnauthorizedAccount(address,bytes32)": [
        {
          "details": "The `account` is missing a role."
        }
      ],
      "EnforcedPause()": [
        {
          "details": "The operation failed because the contract is paused."
        }
      ],
      "ExpectedPause()": [
        {
          "details": "The operation failed because the contract is not paused."
        }
      ],
      "InvalidInitialization()": [
        {
          "details": "The contract is already initialized."
        }
      ],
      "NotInitializing()": [
        {
          "details": "The contract is not initializing."
        }
      ],
      "ReentrancyGuardReentrantCall()": [
        {
          "details": "Unauthorized reentrant call."
        }
      ],
      "SafeERC20FailedOperation(address)": [
        {
          "details": "An operation with an ERC-20 token failed."
        }
      ]
    },
    "events": {
      "Initialized(uint64)": {
        "details": "Triggered when the contract has been initialized or reinitialized."
      },
      "Paused(address)": {
        "details": "Emitted when the pause is triggered by `account`."
      },
      "RoleAdminChanged(bytes32,bytes32,bytes32)": {
        "details": "Emitted when `newAdminRole` is set as ``role``'s admin role, replacing `previousAdminRole` `DEFAULT_ADMIN_ROLE` is the starting admin for all roles, despite {RoleAdminChanged} not being emitted signaling this."
      },
      "RoleGranted(bytes32,address,address)": {
        "details": "Emitted when `account` is granted `role`. `sender` is the account that originated the contract call. This account bears the admin role (for the granted role). Expected in cases where the role was granted using the internal {AccessControl-_grantRole}."
      },
      "RoleRevoked(bytes32,address,address)": {
        "details": "Emitted when `account` is revoked `role`. `sender` is the account that originated the contract call:   - if using `revokeRole`, it is the admin role bearer   - if using `renounceRole`, it is the role bearer (i.e. `account`)"
      },
      "Unpaused(address)": {
        "details": "Emitted when the pause is lifted by `account`."
      }
    },
    "kind": "dev",
    "methods": {
      "borrow(uint256)": {
        "params": {
          "debtAmount": "The amount of USDU to borrow"
        }
      },
      "constructor": {
        "custom:oz-upgrades-unsafe-allow": "constructor"
      },
      "getRoleAdmin(bytes32)": {
        "details": "Returns the admin role that controls `role`. See {grantRole} and {revokeRole}. To change a role's admin, use {_setRoleAdmin}."
      },
      "grantRole(bytes32,address)": {
        "details": "Grants `role` to `account`. If `account` had not been already granted `role`, emits a {RoleGranted} event. Requirements: - the caller must have ``role``'s admin role. May emit a {RoleGranted} event."
      },
      "hasRole(bytes32,address)": {
        "details": "Returns `true` if `account` has been granted `role`."
      },
      "paused()": {
        "details": "Returns true if the contract is paused, and false otherwise."
      },
      "renounceRole(bytes32,address)": {
        "details": "Revokes `role` from the calling account. Roles are often managed via {grantRole} and {revokeRole}: this function's purpose is to provide a mechanism for accounts to lose their privileges if they are compromised (such as when a trusted device is misplaced). If the calling account had been revoked `role`, emits a {RoleRevoked} event. Requirements: - the caller must be `callerConfirmation`. May emit a {RoleRevoked} event."
      },
      "repay(address,uint256)": {
        "params": {
          "repayAmount": "The amount to repay",
          "repayToken": "The token used for repayment"
        }
      },
      "revokeRole(bytes32,address)": {
        "details": "Revokes `role` from `account`. If `account` had been granted `role`, emits a {RoleRevoked} event. Requirements: - the caller must have ``role``'s admin role. May emit a {RoleRevoked} event."
      },
      "supportsInterface(bytes4)": {
        "details": "See {IERC165-supportsInterface}."
      }
    },
    "version": 1
  },
  "userdoc": {
    "kind": "user",
    "methods": {
      "borrow(uint256)": {
        "notice": "Borrow USDU by providing ETH as collateral"
      },
      "repay(address,uint256)": {
        "notice": "Repay debt using allowed tokens"
      }
    },
    "version": 1
  },
  "storageLayout": {
    "storage": [
      {
        "astId": 10072,
        "contract": "src/core/UniCardCollateral.sol:UniCardCollateral",
        "label": "usdu",
        "offset": 0,
        "slot": "0",
        "type": "t_contract(IUSDU)10035"
      },
      {
        "astId": 10075,
        "contract": "src/core/UniCardCollateral.sol:UniCardCollateral",
        "label": "priceFeed",
        "offset": 0,
        "slot": "1",
        "type": "t_contract(IPriceFeed)10721"
      },
      {
        "astId": 10079,
        "contract": "src/core/UniCardCollateral.sol:UniCardCollateral",
        "label": "debts",
        "offset": 0,
        "slot": "2",
        "type": "t_mapping(t_address,t_uint256)"
      },
      {
        "astId": 10083,
        "contract": "src/core/UniCardCollateral.sol:UniCardCollateral",
        "label": "collaterals",
        "offset": 0,
        "slot": "3",
        "type": "t_mapping(t_address,t_uint256)"
      }
    ],
    "types": {
      "t_address": {
        "encoding": "inplace",
        "label": "address",
        "numberOfBytes": "20"
      },
      "t_contract(IPriceFeed)10721": {
        "encoding": "inplace",
        "label": "contract IPriceFeed",
        "numberOfBytes": "20"
      },
      "t_contract(IUSDU)10035": {
        "encoding": "inplace",
        "label": "contract IUSDU",
        "numberOfBytes": "20"
      },
      "t_mapping(t_address,t_uint256)": {
        "encoding": "mapping",
        "key": "t_address",
        "label": "mapping(address => uint256)",
        "numberOfBytes": "32",
        "value": "t_uint256"
      },
      "t_uint256": {
        "encoding": "inplace",
        "label": "uint256",
        "numberOfBytes": "32"
      }
    }
  }
}