{
  "address": "0x37614caA3174b54E3aB0bDDca26DA6eCD9df6de3",
  "abi": [
    {
      "inputs": [],
      "stateMutability": "nonpayable",
      "type": "constructor"
    },
    {
      "inputs": [],
      "name": "AccessControlBadConfirmation",
      "type": "error"
    },
    {
      "inputs": [
        {
          "internalType": "address",
          "name": "account",
          "type": "address"
        },
        {
          "internalType": "bytes32",
          "name": "neededRole",
          "type": "bytes32"
        }
      ],
      "name": "AccessControlUnauthorizedAccount",
      "type": "error"
    },
    {
      "inputs": [],
      "name": "EnforcedPause",
      "type": "error"
    },
    {
      "inputs": [],
      "name": "ExpectedPause",
      "type": "error"
    },
    {
      "inputs": [],
      "name": "InvalidInitialization",
      "type": "error"
    },
    {
      "inputs": [],
      "name": "NotInitializing",
      "type": "error"
    },
    {
      "inputs": [],
      "name": "ReentrancyGuardReentrantCall",
      "type": "error"
    },
    {
      "inputs": [
        {
          "internalType": "address",
          "name": "token",
          "type": "address"
        }
      ],
      "name": "SafeERC20FailedOperation",
      "type": "error"
    },
    {
      "inputs": [],
      "name": "UNICARD_REGISTRY_CARD_ALREADY_DEACTIVATED",
      "type": "error"
    },
    {
      "inputs": [],
      "name": "UNICARD_REGISTRY_CARD_ALREADY_OPENED",
      "type": "error"
    },
    {
      "inputs": [],
      "name": "UNICARD_REGISTRY_CARD_NOT_OPENED",
      "type": "error"
    },
    {
      "inputs": [],
      "name": "UNICARD_REGISTRY_INSUFFICIENT_BALANCE",
      "type": "error"
    },
    {
      "inputs": [],
      "name": "UNICARD_REGISTRY_INSUFFICIENT_NATIVE_TOKEN_AMOUNT",
      "type": "error"
    },
    {
      "inputs": [],
      "name": "UNICARD_REGISTRY_PAYMENT_TOKEN_NOT_ALLOWED",
      "type": "error"
    },
    {
      "anonymous": false,
      "inputs": [
        {
          "indexed": false,
          "internalType": "address",
          "name": "holder",
          "type": "address"
        },
        {
          "indexed": false,
          "internalType": "uint256",
          "name": "nonce",
          "type": "uint256"
        }
      ],
      "name": "CardCloseRequest",
      "type": "event"
    },
    {
      "anonymous": false,
      "inputs": [
        {
          "indexed": false,
          "internalType": "address",
          "name": "holder",
          "type": "address"
        },
        {
          "indexed": false,
          "internalType": "address",
          "name": "paymentToken",
          "type": "address"
        },
        {
          "indexed": false,
          "internalType": "uint256",
          "name": "nonce",
          "type": "uint256"
        },
        {
          "indexed": false,
          "internalType": "uint256",
          "name": "amount",
          "type": "uint256"
        },
        {
          "indexed": false,
          "internalType": "string",
          "name": "productCode",
          "type": "string"
        },
        {
          "indexed": false,
          "internalType": "string",
          "name": "inviteCode",
          "type": "string"
        },
        {
          "indexed": false,
          "internalType": "string",
          "name": "referralCode",
          "type": "string"
        }
      ],
      "name": "CardOpenRequest",
      "type": "event"
    },
    {
      "anonymous": false,
      "inputs": [
        {
          "indexed": false,
          "internalType": "uint64",
          "name": "version",
          "type": "uint64"
        }
      ],
      "name": "Initialized",
      "type": "event"
    },
    {
      "anonymous": false,
      "inputs": [
        {
          "indexed": false,
          "internalType": "address",
          "name": "account",
          "type": "address"
        }
      ],
      "name": "Paused",
      "type": "event"
    },
    {
      "anonymous": false,
      "inputs": [
        {
          "indexed": true,
          "internalType": "bytes32",
          "name": "role",
          "type": "bytes32"
        },
        {
          "indexed": true,
          "internalType": "bytes32",
          "name": "previousAdminRole",
          "type": "bytes32"
        },
        {
          "indexed": true,
          "internalType": "bytes32",
          "name": "newAdminRole",
          "type": "bytes32"
        }
      ],
      "name": "RoleAdminChanged",
      "type": "event"
    },
    {
      "anonymous": false,
      "inputs": [
        {
          "indexed": true,
          "internalType": "bytes32",
          "name": "role",
          "type": "bytes32"
        },
        {
          "indexed": true,
          "internalType": "address",
          "name": "account",
          "type": "address"
        },
        {
          "indexed": true,
          "internalType": "address",
          "name": "sender",
          "type": "address"
        }
      ],
      "name": "RoleGranted",
      "type": "event"
    },
    {
      "anonymous": false,
      "inputs": [
        {
          "indexed": true,
          "internalType": "bytes32",
          "name": "role",
          "type": "bytes32"
        },
        {
          "indexed": true,
          "internalType": "address",
          "name": "account",
          "type": "address"
        },
        {
          "indexed": true,
          "internalType": "address",
          "name": "sender",
          "type": "address"
        }
      ],
      "name": "RoleRevoked",
      "type": "event"
    },
    {
      "anonymous": false,
      "inputs": [
        {
          "indexed": false,
          "internalType": "bool",
          "name": "isPaused",
          "type": "bool"
        }
      ],
      "name": "TogglePause",
      "type": "event"
    },
    {
      "anonymous": false,
      "inputs": [
        {
          "indexed": false,
          "internalType": "address",
          "name": "account",
          "type": "address"
        }
      ],
      "name": "Unpaused",
      "type": "event"
    },
    {
      "inputs": [],
      "name": "ALLOWED_TOKEN_PAYMENT",
      "outputs": [
        {
          "internalType": "bytes32",
          "name": "",
          "type": "bytes32"
        }
      ],
      "stateMutability": "view",
      "type": "function"
    },
    {
      "inputs": [],
      "name": "CONTROLLER_ROLE",
      "outputs": [
        {
          "internalType": "bytes32",
          "name": "",
          "type": "bytes32"
        }
      ],
      "stateMutability": "view",
      "type": "function"
    },
    {
      "inputs": [],
      "name": "DEFAULT_ADMIN_ROLE",
      "outputs": [
        {
          "internalType": "bytes32",
          "name": "",
          "type": "bytes32"
        }
      ],
      "stateMutability": "view",
      "type": "function"
    },
    {
      "inputs": [],
      "name": "NATIVE_TOKEN",
      "outputs": [
        {
          "internalType": "address",
          "name": "",
          "type": "address"
        }
      ],
      "stateMutability": "view",
      "type": "function"
    },
    {
      "inputs": [
        {
          "internalType": "bytes32",
          "name": "",
          "type": "bytes32"
        }
      ],
      "name": "cards",
      "outputs": [
        {
          "internalType": "address",
          "name": "holder",
          "type": "address"
        },
        {
          "internalType": "address",
          "name": "paymentToken",
          "type": "address"
        },
        {
          "internalType": "uint256",
          "name": "nonce",
          "type": "uint256"
        },
        {
          "internalType": "uint256",
          "name": "openCardAmount",
          "type": "uint256"
        },
        {
          "internalType": "string",
          "name": "productCode",
          "type": "string"
        },
        {
          "internalType": "string",
          "name": "inviteCode",
          "type": "string"
        },
        {
          "internalType": "string",
          "name": "referralCode",
          "type": "string"
        },
        {
          "internalType": "enum Enums.CardStatus",
          "name": "status",
          "type": "uint8"
        }
      ],
      "stateMutability": "view",
      "type": "function"
    },
    {
      "inputs": [
        {
          "internalType": "address",
          "name": "holder",
          "type": "address"
        },
        {
          "internalType": "uint256",
          "name": "nonce",
          "type": "uint256"
        }
      ],
      "name": "closeCardRequest",
      "outputs": [],
      "stateMutability": "nonpayable",
      "type": "function"
    },
    {
      "inputs": [
        {
          "internalType": "bytes32",
          "name": "role",
          "type": "bytes32"
        }
      ],
      "name": "getRoleAdmin",
      "outputs": [
        {
          "internalType": "bytes32",
          "name": "",
          "type": "bytes32"
        }
      ],
      "stateMutability": "view",
      "type": "function"
    },
    {
      "inputs": [
        {
          "internalType": "bytes32",
          "name": "role",
          "type": "bytes32"
        },
        {
          "internalType": "address",
          "name": "account",
          "type": "address"
        }
      ],
      "name": "grantRole",
      "outputs": [],
      "stateMutability": "nonpayable",
      "type": "function"
    },
    {
      "inputs": [
        {
          "internalType": "bytes32",
          "name": "role",
          "type": "bytes32"
        },
        {
          "internalType": "address",
          "name": "account",
          "type": "address"
        }
      ],
      "name": "hasRole",
      "outputs": [
        {
          "internalType": "bool",
          "name": "",
          "type": "bool"
        }
      ],
      "stateMutability": "view",
      "type": "function"
    },
    {
      "inputs": [
        {
          "internalType": "address",
          "name": "anAdmin",
          "type": "address"
        }
      ],
      "name": "initialize",
      "outputs": [],
      "stateMutability": "nonpayable",
      "type": "function"
    },
    {
      "inputs": [
        {
          "internalType": "address",
          "name": "",
          "type": "address"
        }
      ],
      "name": "nonces",
      "outputs": [
        {
          "internalType": "uint256",
          "name": "",
          "type": "uint256"
        }
      ],
      "stateMutability": "view",
      "type": "function"
    },
    {
      "inputs": [
        {
          "internalType": "address",
          "name": "holder",
          "type": "address"
        },
        {
          "internalType": "address",
          "name": "paymentToken",
          "type": "address"
        },
        {
          "internalType": "uint256",
          "name": "amount",
          "type": "uint256"
        },
        {
          "internalType": "string",
          "name": "productCode",
          "type": "string"
        },
        {
          "internalType": "string",
          "name": "inviteCode",
          "type": "string"
        },
        {
          "internalType": "string",
          "name": "referralCode",
          "type": "string"
        }
      ],
      "name": "openCardRequest",
      "outputs": [],
      "stateMutability": "payable",
      "type": "function"
    },
    {
      "inputs": [],
      "name": "paused",
      "outputs": [
        {
          "internalType": "bool",
          "name": "",
          "type": "bool"
        }
      ],
      "stateMutability": "view",
      "type": "function"
    },
    {
      "inputs": [
        {
          "internalType": "bytes32",
          "name": "role",
          "type": "bytes32"
        },
        {
          "internalType": "address",
          "name": "callerConfirmation",
          "type": "address"
        }
      ],
      "name": "renounceRole",
      "outputs": [],
      "stateMutability": "nonpayable",
      "type": "function"
    },
    {
      "inputs": [
        {
          "internalType": "bytes32",
          "name": "role",
          "type": "bytes32"
        },
        {
          "internalType": "address",
          "name": "account",
          "type": "address"
        }
      ],
      "name": "revokeRole",
      "outputs": [],
      "stateMutability": "nonpayable",
      "type": "function"
    },
    {
      "inputs": [
        {
          "internalType": "bytes4",
          "name": "interfaceId",
          "type": "bytes4"
        }
      ],
      "name": "supportsInterface",
      "outputs": [
        {
          "internalType": "bool",
          "name": "",
          "type": "bool"
        }
      ],
      "stateMutability": "view",
      "type": "function"
    },
    {
      "inputs": [
        {
          "internalType": "bool",
          "name": "enablePauseOrNot",
          "type": "bool"
        }
      ],
      "name": "togglePause",
      "outputs": [],
      "stateMutability": "nonpayable",
      "type": "function"
    },
    {
      "inputs": [
        {
          "internalType": "address",
          "name": "paymentToken",
          "type": "address"
        },
        {
          "internalType": "uint256",
          "name": "amount",
          "type": "uint256"
        }
      ],
      "name": "withdrawRegistryFunds",
      "outputs": [],
      "stateMutability": "nonpayable",
      "type": "function"
    },
    {
      "stateMutability": "payable",
      "type": "receive"
    }
  ],
  "transactionHash": "0xddc2fc102f62a79942bd27c412f34faec5e5732f660ce11763ebf885a3d0af85",
  "args": [],
  "numDeployments": 1,
  "solcInputHash": "b209e670221dd0b13c90ea3af78b8f6e",
  "bytecode": "0x608060405234801561001057600080fd5b5061001961001e565b6100d0565b7ff0c57e16840df040f15088dc2f81fe391c3923bec73e23a9662efc9c229c6a00805468010000000000000000900460ff161561006e5760405163f92ee8a960e01b815260040160405180910390fd5b80546001600160401b03908116146100cd5780546001600160401b0319166001600160401b0390811782556040519081527fc7f505b2f371ae2175ee4913f4499e1f2633a7b5936321eed1cdaeb6115181d29060200160405180910390a15b50565b611b9a806100df6000396000f3fe60806040526004361061010d5760003560e01c8063707cd60c116100955780639ae97dcb116100645780639ae97dcb1461039a578063a217fddf146103ce578063a4ded79f146103e3578063c4d66de8146103f6578063d547741f1461041657600080fd5b8063707cd60c146102c65780637ecebe00146102fa57806390e2a5891461032757806391d148541461034757600080fd5b806331f7d964116100dc57806331f7d964146101ef57806336568abe1461022f57806348f5d6361461024f57806357d159c61461026f5780635c975abb1461028f57600080fd5b806301ffc9a714610119578063092c5b3b1461014e578063248a9ca3146101905780632f2ff15d146101cd57600080fd5b3661011457005b600080fd5b34801561012557600080fd5b50610139610134366004611614565b610436565b60405190151581526020015b60405180910390f35b34801561015a57600080fd5b506101827f7b765e0e932d348852a6f810bfa1ab891e259123f02db8cdcde614c57022335781565b604051908152602001610145565b34801561019c57600080fd5b506101826101ab366004611645565b6000908152600080516020611b6e833981519152602052604090206001015490565b3480156101d957600080fd5b506101ed6101e836600461167a565b61046d565b005b3480156101fb57600080fd5b5061021773eeeeeeeeeeeeeeeeeeeeeeeeeeeeeeeeeeeeeeee81565b6040516001600160a01b039091168152602001610145565b34801561023b57600080fd5b506101ed61024a36600461167a565b6104a5565b34801561025b57600080fd5b506101ed61026a3660046116a6565b6104dd565b34801561027b57600080fd5b506101ed61028a3660046116d0565b6106e0565b34801561029b57600080fd5b507fcd5ed15c6e187e77e9aee88184c21f4f2182ab5827cb3b7e07fbedcd63f033005460ff16610139565b3480156102d257600080fd5b506102e66102e1366004611645565b610724565b60405161014598979695949392919061174e565b34801561030657600080fd5b506101826103153660046117e3565b60006020819052908152604090205481565b34801561033357600080fd5b506101ed6103423660046116a6565b610911565b34801561035357600080fd5b5061013961036236600461167a565b6000918252600080516020611b6e833981519152602090815260408084206001600160a01b0393909316845291905290205460ff1690565b3480156103a657600080fd5b506101827fb0556657657e6f2a9ab555181b3ae26a9a17fe4de2644d7a728f0eb3957063d281565b3480156103da57600080fd5b50610182600081565b6101ed6103f13660046118a1565b610a73565b34801561040257600080fd5b506101ed6104113660046117e3565b610e4b565b34801561042257600080fd5b506101ed61043136600461167a565b61100a565b60006001600160e01b03198216637965db0b60e01b148061046757506301ffc9a760e01b6001600160e01b03198316145b92915050565b6000828152600080516020611b6e83398151915260205260409020600101546104958161103c565b61049f8383611049565b50505050565b6001600160a01b03811633146104ce5760405163334bd91960e11b815260040160405180910390fd5b6104d88282611106565b505050565b7f7b765e0e932d348852a6f810bfa1ab891e259123f02db8cdcde614c5702233576105078161103c565b6040516bffffffffffffffffffffffff19606085901b1660208201526034810183905260009060540160408051601f1981840301815291905280516020909101209050600260008281526001602052604090206007015460ff16600281111561057257610572611738565b03610590576040516371d51e3960e11b815260040160405180910390fd5b60008181526001602052604081206007015460ff1660028111156105b6576105b6611738565b036105d457604051631eadd0b160e11b815260040160405180910390fd5b600081815260016020819052604090912060078101805460ff19166002179055015473eeeeeeeeeeeeeeeeeeeeeeeeeeeeeeeeeeeeeeee6001600160a01b0390911614610650576000818152600160208190526040909120600381015491015461064b916001600160a01b0390911690869061119a565b610698565b6000818152600160205260408082206003015490516001600160a01b0387169282156108fc02929190818181858888f19350505050158015610696573d6000803e3d6000fd5b505b604080516001600160a01b0386168152602081018590527fcf1b1d3e5121f04e109c842a0298ca6f0abca03f4200ab92081f1347317325d3910160405180910390a150505050565b7f7b765e0e932d348852a6f810bfa1ab891e259123f02db8cdcde614c57022335761070a8161103c565b811561071c5761071861120e565b5050565b610718611283565b6001602081905260009182526040909120805491810154600282015460038301546004840180546001600160a01b039687169690941694929391929161076990611953565b80601f016020809104026020016040519081016040528092919081815260200182805461079590611953565b80156107e25780601f106107b7576101008083540402835291602001916107e2565b820191906000526020600020905b8154815290600101906020018083116107c557829003601f168201915b5050505050908060050180546107f790611953565b80601f016020809104026020016040519081016040528092919081815260200182805461082390611953565b80156108705780601f1061084557610100808354040283529160200191610870565b820191906000526020600020905b81548152906001019060200180831161085357829003601f168201915b50505050509080600601805461088590611953565b80601f01602080910402602001604051908101604052809291908181526020018280546108b190611953565b80156108fe5780601f106108d3576101008083540402835291602001916108fe565b820191906000526020600020905b8154815290600101906020018083116108e157829003601f168201915b5050506007909301549192505060ff1688565b600061091c8161103c565b6109246112db565b61092c611325565b6001600160a01b03831673eeeeeeeeeeeeeeeeeeeeeeeeeeeeeeeeeeeeeeee146109f8576040516370a0823160e01b81523060048201526000906001600160a01b038516906370a0823190602401602060405180830381865afa158015610997573d6000803e3d6000fd5b505050506040513d601f19601f820116820180604052508101906109bb919061198d565b9050808311156109de57604051630da4f8f960e11b815260040160405180910390fd5b6109f26001600160a01b038516338561119a565b50610a4a565b4780831115610a1a57604051630da4f8f960e11b815260040160405180910390fd5b604051339084156108fc029085906000818181858888f19350505050158015610a47573d6000803e3d6000fd5b50505b6104d860017f9b779b17422d0df92223018b32b4d1fa46e071723d6817e2486d003becc55f0055565b610a7b6112db565b610a83611325565b6001600160a01b03851660009081527f84503713b7228bce4269205fe5b780fb403c046127aeaddf5ac3b4a34c0dd57a602052604090205460ff16610adb576040516375f65cff60e01b815260040160405180910390fd5b8315610bb7576001600160a01b03851673eeeeeeeeeeeeeeeeeeeeeeeeeeeeeeeeeeeeeeee14610b1f57610b1a6001600160a01b038616873087611390565b610bb7565b83341015610b405760405163372f058b60e11b815260040160405180910390fd5b604051309085156108fc029086906000818181858888f19350505050158015610b6d573d6000803e3d6000fd5b5083341115610bb7576001600160a01b0386166108fc610b8d86346119bc565b6040518115909202916000818181858888f19350505050158015610bb5573d6000803e3d6000fd5b505b6001600160a01b03861660009081526020818152604080832054815160608b901b6bffffffffffffffffffffffff1916818501526034808201839052835180830390910181526054909101835280519084012080855260019093529083206007015490929060ff166002811115610c3057610c30611738565b03610d9357604051806101000160405280896001600160a01b03168152602001886001600160a01b0316815260200183815260200187815260200186815260200185815260200184815260200160016002811115610c9057610c90611738565b90526000828152600160208181526040928390208451815473ffffffffffffffffffffffffffffffffffffffff199081166001600160a01b0392831617835592860151938201805490931693169290921790559082015160028201556060820151600382015560808201516004820190610d0a9082611a15565b5060a08201516005820190610d1f9082611a15565b5060c08201516006820190610d349082611a15565b5060e082015160078201805460ff19166001836002811115610d5857610d58611738565b021790555050506001600160a01b0388166000908152602081905260408120805460019290610d88908490611ad5565b90915550610dac9050565b604051630ac301c160e41b815260040160405180910390fd5b6001600160a01b0388166000908152602081905260408120805491610dd083611ae8565b91905055507f1ee1fa132d80d633a623a19f9eeaadced54ebcecae215c88b49a9d9c9d9636a688888489898989604051610e109796959493929190611b01565b60405180910390a15050610e4360017f9b779b17422d0df92223018b32b4d1fa46e071723d6817e2486d003becc55f0055565b505050505050565b7ff0c57e16840df040f15088dc2f81fe391c3923bec73e23a9662efc9c229c6a00805468010000000000000000810460ff16159067ffffffffffffffff16600081158015610e965750825b905060008267ffffffffffffffff166001148015610eb35750303b155b905081158015610ec1575080155b15610edf5760405163f92ee8a960e01b815260040160405180910390fd5b845467ffffffffffffffff191660011785558315610f1357845468ff00000000000000001916680100000000000000001785555b610f1b6113c9565b610f236113d1565b610f2b6113e1565b610f36600087611049565b50610f617f7b765e0e932d348852a6f810bfa1ab891e259123f02db8cdcde614c57022335787611049565b50610f8d7f7b765e0e932d348852a6f810bfa1ab891e259123f02db8cdcde614c57022335760006113f1565b610fb87fb0556657657e6f2a9ab555181b3ae26a9a17fe4de2644d7a728f0eb3957063d260006113f1565b8315610e4357845468ff000000000000000019168555604051600181527fc7f505b2f371ae2175ee4913f4499e1f2633a7b5936321eed1cdaeb6115181d29060200160405180910390a1505050505050565b6000828152600080516020611b6e83398151915260205260409020600101546110328161103c565b61049f8383611106565b6110468133611471565b50565b6000828152600080516020611b6e833981519152602081815260408084206001600160a01b038616855290915282205460ff166110fc576000848152602082815260408083206001600160a01b03871684529091529020805460ff191660011790556110b23390565b6001600160a01b0316836001600160a01b0316857f2f8788117e7eff1d82e926ec794901d17c78024a50270940304540a733656f0d60405160405180910390a46001915050610467565b6000915050610467565b6000828152600080516020611b6e833981519152602081815260408084206001600160a01b038616855290915282205460ff16156110fc576000848152602082815260408083206001600160a01b0387168085529252808320805460ff1916905551339287917ff6391f5c32d9c69d2a47ea670b442974b53935d1edc7fd64eb21e047a839171b9190a46001915050610467565b6040516001600160a01b038381166024830152604482018390526104d891859182169063a9059cbb906064015b604051602081830303815290604052915060e01b6020820180517bffffffffffffffffffffffffffffffffffffffffffffffffffffffff83818316178352505050506114d8565b611216611325565b7fcd5ed15c6e187e77e9aee88184c21f4f2182ab5827cb3b7e07fbedcd63f03300805460ff191660011781557f62e78cea01bee320cd4e420270b5ea74000d11b0c9f74754ebdbfc544b05a258335b6040516001600160a01b03909116815260200160405180910390a150565b61128b611549565b7fcd5ed15c6e187e77e9aee88184c21f4f2182ab5827cb3b7e07fbedcd63f03300805460ff191681557f5db9ee0a495bf2e6ff9c91a7834c1ba4fdd244a5e8aa4e537bd38aeae4b073aa33611265565b7f9b779b17422d0df92223018b32b4d1fa46e071723d6817e2486d003becc55f0080546001190161131f57604051633ee5aeb560e01b815260040160405180910390fd5b60029055565b7fcd5ed15c6e187e77e9aee88184c21f4f2182ab5827cb3b7e07fbedcd63f033005460ff16156113685760405163d93c066560e01b815260040160405180910390fd5b565b60017f9b779b17422d0df92223018b32b4d1fa46e071723d6817e2486d003becc55f0055565b6040516001600160a01b03848116602483015283811660448301526064820183905261049f9186918216906323b872dd906084016111c7565b61136861158b565b6113d961158b565b6113686115d9565b6113e961158b565b6113686115e1565b600080516020611b6e8339815191526000611428846000908152600080516020611b6e833981519152602052604090206001015490565b600085815260208490526040808220600101869055519192508491839187917fbd79b86ffe0ab8e8776151514217cd7cacd52c909f66475c3af44e129f0b00ff9190a450505050565b6000828152600080516020611b6e833981519152602090815260408083206001600160a01b038516845290915290205460ff166107185760405163e2517d3f60e01b81526001600160a01b0382166004820152602481018390526044015b60405180910390fd5b600080602060008451602086016000885af1806114fb576040513d6000823e3d81fd5b50506000513d91508115611513578060011415611520565b6001600160a01b0384163b155b1561049f57604051635274afe760e01b81526001600160a01b03851660048201526024016114cf565b7fcd5ed15c6e187e77e9aee88184c21f4f2182ab5827cb3b7e07fbedcd63f033005460ff1661136857604051638dfc202b60e01b815260040160405180910390fd5b7ff0c57e16840df040f15088dc2f81fe391c3923bec73e23a9662efc9c229c6a005468010000000000000000900460ff1661136857604051631afcd79f60e31b815260040160405180910390fd5b61136a61158b565b6115e961158b565b7fcd5ed15c6e187e77e9aee88184c21f4f2182ab5827cb3b7e07fbedcd63f03300805460ff19169055565b60006020828403121561162657600080fd5b81356001600160e01b03198116811461163e57600080fd5b9392505050565b60006020828403121561165757600080fd5b5035919050565b80356001600160a01b038116811461167557600080fd5b919050565b6000806040838503121561168d57600080fd5b8235915061169d6020840161165e565b90509250929050565b600080604083850312156116b957600080fd5b6116c28361165e565b946020939093013593505050565b6000602082840312156116e257600080fd5b8135801515811461163e57600080fd5b6000815180845260005b81811015611718576020818501810151868301820152016116fc565b506000602082860101526020601f19601f83011685010191505092915050565b634e487b7160e01b600052602160045260246000fd5b60006101006001600160a01b03808c168452808b16602085015250886040840152876060840152806080840152611787818401886116f2565b905082810360a084015261179b81876116f2565b905082810360c08401526117af81866116f2565b915050600383106117d057634e487b7160e01b600052602160045260246000fd5b8260e08301529998505050505050505050565b6000602082840312156117f557600080fd5b61163e8261165e565b634e487b7160e01b600052604160045260246000fd5b600082601f83011261182557600080fd5b813567ffffffffffffffff80821115611840576118406117fe565b604051601f8301601f19908116603f01168101908282118183101715611868576118686117fe565b8160405283815286602085880101111561188157600080fd5b836020870160208301376000602085830101528094505050505092915050565b60008060008060008060c087890312156118ba57600080fd5b6118c38761165e565b95506118d16020880161165e565b945060408701359350606087013567ffffffffffffffff808211156118f557600080fd5b6119018a838b01611814565b9450608089013591508082111561191757600080fd5b6119238a838b01611814565b935060a089013591508082111561193957600080fd5b5061194689828a01611814565b9150509295509295509295565b600181811c9082168061196757607f821691505b60208210810361198757634e487b7160e01b600052602260045260246000fd5b50919050565b60006020828403121561199f57600080fd5b5051919050565b634e487b7160e01b600052601160045260246000fd5b81810381811115610467576104676119a6565b601f8211156104d857600081815260208120601f850160051c810160208610156119f65750805b601f850160051c820191505b81811015610e4357828155600101611a02565b815167ffffffffffffffff811115611a2f57611a2f6117fe565b611a4381611a3d8454611953565b846119cf565b602080601f831160018114611a785760008415611a605750858301515b600019600386901b1c1916600185901b178555610e43565b600085815260208120601f198616915b82811015611aa757888601518255948401946001909101908401611a88565b5085821015611ac55787850151600019600388901b60f8161c191681555b5050505050600190811b01905550565b80820180821115610467576104676119a6565b600060018201611afa57611afa6119a6565b5060010190565b60006001600160a01b03808a16835280891660208401525086604083015285606083015260e06080830152611b3960e08301866116f2565b82810360a0840152611b4b81866116f2565b905082810360c0840152611b5f81856116f2565b9a995050505050505050505056fe02dd7bc7dec4dceedda775e58dd541e08a116c6c53815c0bd028192f7b626800a164736f6c6343000814000a",
  "devdoc": {
    "errors": {
      "AccessControlBadConfirmation()": [
        {
          "details": "The caller of a function is not the expected one. NOTE: Don't confuse with {AccessControlUnauthorizedAccount}."
        }
      ],
      "AccessControlUnauthorizedAccount(address,bytes32)": [
        {
          "details": "The `account` is missing a role."
        }
      ],
      "EnforcedPause()": [
        {
          "details": "The operation failed because the contract is paused."
        }
      ],
      "ExpectedPause()": [
        {
          "details": "The operation failed because the contract is not paused."
        }
      ],
      "InvalidInitialization()": [
        {
          "details": "The contract is already initialized."
        }
      ],
      "NotInitializing()": [
        {
          "details": "The contract is not initializing."
        }
      ],
      "ReentrancyGuardReentrantCall()": [
        {
          "details": "Unauthorized reentrant call."
        }
      ],
      "SafeERC20FailedOperation(address)": [
        {
          "details": "An operation with an ERC-20 token failed."
        }
      ]
    },
    "events": {
      "Initialized(uint64)": {
        "details": "Triggered when the contract has been initialized or reinitialized."
      },
      "Paused(address)": {
        "details": "Emitted when the pause is triggered by `account`."
      },
      "RoleAdminChanged(bytes32,bytes32,bytes32)": {
        "details": "Emitted when `newAdminRole` is set as ``role``'s admin role, replacing `previousAdminRole` `DEFAULT_ADMIN_ROLE` is the starting admin for all roles, despite {RoleAdminChanged} not being emitted signaling this."
      },
      "RoleGranted(bytes32,address,address)": {
        "details": "Emitted when `account` is granted `role`. `sender` is the account that originated the contract call. This account bears the admin role (for the granted role). Expected in cases where the role was granted using the internal {AccessControl-_grantRole}."
      },
      "RoleRevoked(bytes32,address,address)": {
        "details": "Emitted when `account` is revoked `role`. `sender` is the account that originated the contract call:   - if using `revokeRole`, it is the admin role bearer   - if using `renounceRole`, it is the role bearer (i.e. `account`)"
      },
      "Unpaused(address)": {
        "details": "Emitted when the pause is lifted by `account`."
      }
    },
    "kind": "dev",
    "methods": {
      "constructor": {
        "custom:oz-upgrades-unsafe-allow": "constructor"
      },
      "getRoleAdmin(bytes32)": {
        "details": "Returns the admin role that controls `role`. See {grantRole} and {revokeRole}. To change a role's admin, use {_setRoleAdmin}."
      },
      "grantRole(bytes32,address)": {
        "details": "Grants `role` to `account`. If `account` had not been already granted `role`, emits a {RoleGranted} event. Requirements: - the caller must have ``role``'s admin role. May emit a {RoleGranted} event."
      },
      "hasRole(bytes32,address)": {
        "details": "Returns `true` if `account` has been granted `role`."
      },
      "paused()": {
        "details": "Returns true if the contract is paused, and false otherwise."
      },
      "renounceRole(bytes32,address)": {
        "details": "Revokes `role` from the calling account. Roles are often managed via {grantRole} and {revokeRole}: this function's purpose is to provide a mechanism for accounts to lose their privileges if they are compromised (such as when a trusted device is misplaced). If the calling account had been revoked `role`, emits a {RoleRevoked} event. Requirements: - the caller must be `callerConfirmation`. May emit a {RoleRevoked} event."
      },
      "revokeRole(bytes32,address)": {
        "details": "Revokes `role` from `account`. If `account` had been granted `role`, emits a {RoleRevoked} event. Requirements: - the caller must have ``role``'s admin role. May emit a {RoleRevoked} event."
      },
      "supportsInterface(bytes4)": {
        "details": "See {IERC165-supportsInterface}."
      }
    },
    "version": 1
  },
  "userdoc": {
    "kind": "user",
    "methods": {},
    "version": 1
  },
  "storageLayout": {
    "storage": [
      {
        "astId": 20218,
        "contract": "src/core/UniCardRegistry.sol:UniCardRegistry",
        "label": "nonces",
        "offset": 0,
        "slot": "0",
        "type": "t_mapping(t_address,t_uint256)"
      },
      {
        "astId": 20223,
        "contract": "src/core/UniCardRegistry.sol:UniCardRegistry",
        "label": "cards",
        "offset": 0,
        "slot": "1",
        "type": "t_mapping(t_bytes32,t_struct(Card)24298_storage)"
      }
    ],
    "types": {
      "t_address": {
        "encoding": "inplace",
        "label": "address",
        "numberOfBytes": "20"
      },
      "t_bytes32": {
        "encoding": "inplace",
        "label": "bytes32",
        "numberOfBytes": "32"
      },
      "t_enum(CardStatus)24493": {
        "encoding": "inplace",
        "label": "enum Enums.CardStatus",
        "numberOfBytes": "1"
      },
      "t_mapping(t_address,t_uint256)": {
        "encoding": "mapping",
        "key": "t_address",
        "label": "mapping(address => uint256)",
        "numberOfBytes": "32",
        "value": "t_uint256"
      },
      "t_mapping(t_bytes32,t_struct(Card)24298_storage)": {
        "encoding": "mapping",
        "key": "t_bytes32",
        "label": "mapping(bytes32 => struct IUniCardRegistry.Card)",
        "numberOfBytes": "32",
        "value": "t_struct(Card)24298_storage"
      },
      "t_string_storage": {
        "encoding": "bytes",
        "label": "string",
        "numberOfBytes": "32"
      },
      "t_struct(Card)24298_storage": {
        "encoding": "inplace",
        "label": "struct IUniCardRegistry.Card",
        "members": [
          {
            "astId": 24282,
            "contract": "src/core/UniCardRegistry.sol:UniCardRegistry",
            "label": "holder",
            "offset": 0,
            "slot": "0",
            "type": "t_address"
          },
          {
            "astId": 24284,
            "contract": "src/core/UniCardRegistry.sol:UniCardRegistry",
            "label": "paymentToken",
            "offset": 0,
            "slot": "1",
            "type": "t_address"
          },
          {
            "astId": 24286,
            "contract": "src/core/UniCardRegistry.sol:UniCardRegistry",
            "label": "nonce",
            "offset": 0,
            "slot": "2",
            "type": "t_uint256"
          },
          {
            "astId": 24288,
            "contract": "src/core/UniCardRegistry.sol:UniCardRegistry",
            "label": "openCardAmount",
            "offset": 0,
            "slot": "3",
            "type": "t_uint256"
          },
          {
            "astId": 24290,
            "contract": "src/core/UniCardRegistry.sol:UniCardRegistry",
            "label": "productCode",
            "offset": 0,
            "slot": "4",
            "type": "t_string_storage"
          },
          {
            "astId": 24292,
            "contract": "src/core/UniCardRegistry.sol:UniCardRegistry",
            "label": "inviteCode",
            "offset": 0,
            "slot": "5",
            "type": "t_string_storage"
          },
          {
            "astId": 24294,
            "contract": "src/core/UniCardRegistry.sol:UniCardRegistry",
            "label": "referralCode",
            "offset": 0,
            "slot": "6",
            "type": "t_string_storage"
          },
          {
            "astId": 24297,
            "contract": "src/core/UniCardRegistry.sol:UniCardRegistry",
            "label": "status",
            "offset": 0,
            "slot": "7",
            "type": "t_enum(CardStatus)24493"
          }
        ],
        "numberOfBytes": "256"
      },
      "t_uint256": {
        "encoding": "inplace",
        "label": "uint256",
        "numberOfBytes": "32"
      }
    }
  }
}